:020000040800F2
:10000000A007002005350008650200086702000807
:100010006B0200086F020008730200080000000075
:10002000000000000000000000000000770200084F
:1000300079020008000000007B0200087D02000831
:100040001F3500081F3500081F3500081F35000840
:100050001F3500081F3500081F3500081F35000830
:100060001F3500081F3500081F3500081F35000820
:100070001F3500081F3500081F3500081F35000810
:100080001F3500081F3500081F3500081F35000800
:100090001F3500081F3500081F3500081F350008F0
:1000A0001F3500081F3500081F3500081F350008E0
:1000B0001F3500081F3500081F3500081F350008D0
:1000C0001F3500081F3500081F3500081F350008C0
:1000D0001F350008793400081F3500081F35000857
:1000E0001F3500081F3500081F3500081F350008A0
:1000F0001F3500081F3500081F3500081F35000890
:100100001F3500081F3500081F3500081F3500087F
:100110001F3500081F3500081F3500081F3500086F
:100120001F3500081F3500081F3500081F3500085F
:100130001F3500081F3500081F3500081F3500084F
:100140001F3500081F3500081F3500081F3500083F
:100150001F3500081F3500081F3500081F3500082F
:100160001F3500081F3500081F3500081F3500081F
:100170001F3500081F3500081F3500081F3500080F
:100180001F3500081F35000800F002F800F03CF8A9
:100190000AA090E8000C82448344AAF10107DA45E2
:1001A00001D100F031F8AFF2090EBAE80F0013F0F8
:1001B000010F18BFFB1A43F00103184728980000ED
:1001C00048980000103A24BF78C878C1FAD852077E
:1001D00024BF30C830C144BF04680C6070470000C1
:1001E0000023002400250026103A28BF78C1FBD840
:1001F000520728BF30C148BF0B6070471FB504F0DD
:100200008AFE1FBD10B510BD04F0CAFB1146FFF7F2
:10021000F5FF00F008F804F0E8FB03B4FFF7F2FF85
:1002200003BC03F0C9F8A82003F044F84FF4E13010
:1002300003F0D0F801F041FD4FF6FF7000F099FF98
:100240000FE000F0ABFA00F0E6FA00F08CFB00F0F3
:100250004CFC00F029FD00F054FD00F08FFD00F093
:10026000E2FDEEE7704700BFFEE700BFFEE700BF1C
:10027000FEE700BFFEE77047704770477047000019
:100280000CB50020019000907648006840F4803062
:100290007449086000BF7348006800F400300090A3
:1002A0000198401C0190009818B90198B0F5A04F32
:1002B000F1D16C48006800F4003010B101200090CA
:1002C00001E0002000900098012846D165484030A8
:1002D000006840F08050634940310860624800681F
:1002E00040F44040604908605E48083000685D495D
:1002F000083108600846006840F40040086008467D
:10030000006840F4A05008605848091F0860081FA2
:10031000006840F08070091F086000BF5148006805
:1003200000F000700028F9D040F2057050490860D4
:100330004C480830006820F003004A490831086042
:100340000846006840F00200086000BF45480830D9
:10035000006800F00C000828F8D10CBD10B5454825
:10036000006840F47000434908603E48006840F06F
:1003700001003C49086000203A49083108603948CA
:1003800000683D490840374908603C48091D08603D
:10039000081F006820F48020091F086000203149F0
:1003A0000C310860FFF76CFF4FF000603149803975
:1003B000086010BD70B50020002202230024022135
:1003C000284D08352D6805F00C0020B1042806D012
:1003D000082834D107E02A4D2A4E356033E02A4DF3
:1003E000284E35602FE01F4D2D1D2D68C5F380541C
:1003F0001C4D2D1D2D6805F03F0154B1224DB5FB5C
:10040000F1F5184E361D3668C6F3881605FB06F260
:1004100009E01B4DB5FBF1F5124E361D3668C6F3EB
:10042000881605FB06F20F4D2D1D2D68C5F30145FD
:100430006D1C6B00B2FBF3F5124E356003E0104DFE
:10044000104E356000BF00BF064D08352D68C5F35E
:1004500003150E4E705D0B4D2D68C540094E35607D
:1004600070BD000000380240007000400854400792
:10047000003C024088ED00E0FFFFF6FE1030002453
:100480000024F4000000002000127A000400002084
:1004900070B504460D4616462B4622462946204690
:1004A00000F0FDFD304600F0EEFD70BD2DE9F0419D
:1004B00004460D4616461F46DDF81880EA1991B22B
:1004C000A21990B24246FFF7E3FFEA1991B2A21BCC
:1004D00090B24246FFF7DCFFEA1B91B2A21990B23C
:1004E0004246FFF7D5FFEA1B91B2A21B90B24246EB
:1004F000FFF7CEFFAA1991B2E21990B24246FFF778
:10050000C7FFAA1991B2E21B90B24246FFF7C0FFA3
:10051000AA1B91B2E21990B24246FFF7B9FFAA1B9B
:1005200091B2E21B90B24246FFF7B2FFBDE8F08104
:100530002DE9FF4F81B0824617469846DDF838B066
:10054000002445464FEA4800C0F10306BBF1000F06
:100550001FD01BE0A14608E04B46224600975046BC
:100560000299FFF7A3FF09F10109A945F4DD002E67
:1005700004DA042000FB0460861D06E0601B0421F1
:1005800001FB006000F10A066D1E641CAC42E1DD57
:1005900018E015E02B462246009750460299FFF7D7
:1005A00085FF002E04DA042000FB0460861D06E0AF
:1005B000601B042101FB006000F10A066D1E641C33
:1005C000AC42E7DD05B0BDE8F08F2DE9FF4F83B009
:1005D000064689461546DDE91148109FB2464FF0A0
:1005E000000B70E0BBF1000F30D104EBD4714A4A2C
:1005F0001288A2EB6101B14204DB47494988091B1B
:10060000494502DA07B0BDE8F08F2878802802DD7E
:100610004FF0010B57E028780D2806D109EB0400B4
:100620001FFA80F956466D1C0EE0CDE9014800978F
:100630002A7849463046069B01F086F9204604EBAD
:10064000D07106EB61018EB26D1C3CE0324800882F
:10065000001BB04204DB30484088001B484500DAEC
:10066000D0E74FF0000B202C09D1CDE901480097CD
:100670002A4649463046069B00F09AFE20E0182C98
:1006800009D1CDE9014800972A4649463046069BE4
:1006900000F02EFF14E0102C09D1CDE9014800979D
:1006A0002A4649463046069B00F0C3FF08E0CDE9E4
:1006B000014800972A4649463046069B01F052F809
:1006C000AD1C301986B2287800288BD100BF99E77D
:1006D0002DE9FF4F83B004460F461546DDE9119A18
:1006E000DDF84080284604F024F986B20A490988DA
:1006F000A1EBC60000EBD071C1F34F0B04EB0B0173
:1007000088B28DE800072A463946069BFFF75DFF51
:1007100007B0BDE8F08F00001E0000203EB5044683
:100720001F200090FB48028814230021084600F097
:1007300042FD1F200090F748438802884088143803
:1007400081B2002000F037FD012010211F224FF65A
:10075000FF73CDE900210290224602210020FFF71D
:10076000B7FF012010211F22CDE900210290E948A6
:100770004088123881B24FF6FF73E7A20020FFF7DE
:10078000A7FF00200090E3484088143883B2E14876
:1007900002881421002000F00EFD3EBD0EB5E2A03F
:1007A000FFF7BCFF012010211F22D302CDE9002159
:1007B0000290E3A21E210020FFF78AFF01201021F2
:1007C0001F22D302CDE900210290E0A23C210020AB
:1007D000FFF77EFF012010211F22D302CDE9002167
:1007E0000290DEA25A210020FFF772FF01201021A3
:1007F0001F22D302CDE900210290DCA27821002043
:10080000FFF766FF4FF47A7002F0B6FD4FF47A708E
:1008100002F0B2FD0EBD0EB5DAA0FFF77FFF4FF676
:10082000FF700090BB484088143883B2B9480288F2
:100830001421002000F0BFFC012010214FF6E072CF
:10084000CDE900210290B3490988323988B21F23CB
:10085000D1A21E21FFF7B9FE4FF4FA7002F08CFD11
:1008600000200090AB484088143883B2A948028821
:100870001421002000F09FFC012010214FF6E072AF
:10088000CDE900210290A3490988323988B21F239B
:10089000C3A21E21FFF799FE4FF4FA7002F06CFD1F
:1008A0004FF4784000909B484088143883B29948B0
:1008B00002881421002000F07EFC012010214FF658
:1008C000E072CDE90021029092490988323988B25C
:1008D0001F23B5A21E21FFF778FE4FF4FA7002F035
:1008E0004BFD4FF4FC6000908A484088143883B276
:1008F000884802881421002000F05DFC01201021AE
:100900004FF6E072CDE90021029082490988323920
:1009100088B21F23A5A21E21FFF757FE4FF4FA70DD
:1009200002F02AFD1F2000907A484088143883B2D4
:10093000784802881421002000F03DFC012010219D
:100940004FF6E072CDE900210290724909883239F0
:1009500088B21F2397A21E21FFF737FE4FF4FA70CB
:1009600002F00AFD0EBD2DE9F843002493A0FFF725
:10097000D5FE4FF6FF70009066484088143883B269
:10098000644802881421002000F015FC00BF47E0F5
:10099000904830F81400DFF87CC10090BCF8025099
:1009A00005EBD57C4FEA6C0CACF1500CC4EB041990
:1009B000CC440CF13C0C1FFA8CF3DFF858C1BCF8A6
:1009C000006006EBD67C4FEA6C0CACF1500CC4EB2B
:1009D0000419CC440CF13C0C1FFA8CF2DFF834C142
:1009E000BCF8027007EBD77C4FEA6C0CACF1500CF2
:1009F000C4EB0419CC441FFA8CF1DFF818C1BCF821
:100A0000008008EBD87C4FEA6C0CACF1500CC4EBC6
:100A10000419CC441FFA8CF000F056FC601CC4B2E0
:100A2000052CB5DB40F2DC5002F0A6FC4FF6FF705F
:100A3000009038484088143883B236480288142120
:100A4000002000F0B8FB002447E0624830F81400B2
:100A5000DFF8C0C00090BCF8026006EBD67C4FEA1D
:100A60006C0CACF1500CC4EB0419CC440CF13C0CF4
:100A70001FFA8CF3DFF89CC0BCF8005005EBD57C66
:100A80004FEA6C0CACF1500CC4EB0419CC440CF1E3
:100A90003C0C1FFA8CF2DFF87CC0BCF8028008EB3B
:100AA000D87C4FEA6C0CACF1500CC4EB0419CC446C
:100AB0001FFA8CF1DFF85CC0BCF8007007EBD77C44
:100AC0004FEA6C0CACF1500CC4EB0419CC441FFA87
:100AD0008CF000F070FB601CC4B2052CB5DB40F25A
:100AE000DC5002F049FCBDE8F883F8B500243AA0D8
:100AF000FFF714FE4FF6FF70009006484088143848
:100B000083B2044802881421002000F054FB00BF87
:100B10008EE000001E000020D6D0BEB0D4B0B0E6FB
:100B2000C8A8CBF9D3D02000D6D0BEB0D4B0B5E79A
:100B3000D7D3D7DBBACFB2E2CAD4B3CCD0F200005D
:100B4000D6D0BEB0D4B0B5E7D7D30000D7DBBACF8C
:100B5000B2E2CAD4B3CCD0F200000000494C49390B
:100B6000333431203234305833323000D6D0BEB036
:100B7000D4B0B5E7D7D320323032302D30352D30D8
:100B800035000000B2E2CAD4313AB4BFC9ABCCEEF2
:100B9000B3E4B2E2CAD4000057686974650000008B
:100BA000426C61636B0000005265640047726565CA
:100BB0006E000000426C756500000000B2E2CAD40D
:100BC000323A475549BED8D0CECCEEB3E4B2E2CAF1
:100BD000D400000014000020B2E2CAD4333A4755D2
:100BE00049BBADD4B2CCEEB3E4B2E2CAD40000004B
:100BF0000020D34B00905D8805EBD5735B10323B32
:100C000004EBC40707EB0417D919CD4B1E8806EB7C
:100C1000D6735B10503B04EBC40707EB0417D819DD
:100C2000C84B33F814201E23FFF782FC601CC4B2AB
:100C3000052CDDDB40F2DC5002F09EFB4FF6FF702E
:100C40000090BF484088143883B2BD480288142100
:100C5000002000F0B0FA00241FE00120B84B009003
:100C60005D8805EBD5735B10323B04EBC40707EBE3
:100C70000417D919B24B1E8806EBD6735B10503B94
:100C800004EBC40707EB0417D819AE4B33F8142054
:100C90001E23FFF74DFC601CC4B2052CDDDB40F2C7
:100CA000DC5002F069FBF8BD0EB5A7A0FFF736FDDA
:100CB000002010211F22D302CDE900210290A7A21B
:100CC00028210A20FFF781FC012010211F22D302D6
:100CD000CDE900210290ACA246210A20FFF775FC65
:100CE000002010211F22D302CDE900210290B1A2E1
:100CF00064210A20FFF769FC4FF4966002F03CFB88
:100D00000EBD0EB5B3A0FFF709FD002010214FF670
:100D1000E0721F23CDE900210290B3A21E210A2018
:100D2000FFF753FC012010214FF6E0721F23CDE99D
:100D300000210290B5A232210A20FFF746FC0120D3
:100D400018214FF6E0721F23CDE900210290B4A2D2
:100D500046210A20FFF739FC012020214FF6E072DE
:100D60001F23CDE900210290B2A264210A20FFF7DF
:100D70002CFC4FF4966002F0FFFA0EBD0EB5B2A047
:100D8000FFF7CCFC4FF6FF7000906D484088143898
:100D900083B26B4802881421002000F00CFAAF489F
:100DA00028231A461E210090084600F038FF012033
:100DB00010214FF6E0721F23CDE900210290A8A276
:100DC0004B212A20FFF701FCA44828231A461E21A4
:100DD00000905A2000F023FF012010214FF6E0720E
:100DE0001F23CDE9002102909DA24B216620FFF731
:100DF000ECFB9A4828231A461E210090962000F00A
:100E00000EFF012010214FF6E0721F23CDE90021D3
:100E1000029093A24B21A220FFF7D7FB4FF49660DC
:100E200002F0AAFA0EBD1FB54FF6FF70ADF80C0028
:100E300002F097F94FF6FF7000F09BF989A0FFF7D9
:100E40006DFC7BE08B48416800208847894890F81A
:100E5000200000F08000002870D0012002F08CFA01
:100E60008448808936490988884267DA8148C08A7F
:100E700033494988884261DABDF80C004FF6FF71AA
:100E8000884207D17B488089ADF80C007948C08A38
:100E9000ADF80E004FF47840764C0090E38AA289BA
:100EA000BDF80E10BDF80C0001F0C9FC2046808989
:100EB000ADF80C002046C08AADF80E0000201021CD
:100EC000CDE9000102901E4840883C3881B24FF4C1
:100ED000784369A20A2000F0DBFD102000214FF4C6
:100EE0007842CDE90021029020468289144840884A
:100EF0003C3881B203231A2000F0F6FD00201021B7
:100F0000CDE9000102900E484088283881B24FF4A4
:100F100078435AA20A2000F0BBFD102000214FF4B4
:100F20007842CDE9002102902046C28A04484088D8
:100F3000283881B203231A2000F0D6FD82E7000092
:100F40001E00002014000020B2E2CAD4343AD3A21A
:100F5000CEC4CFD4CABEB2E2CAD4000038583136AB
:100F60003A6162636465666768696A6B6C6D6E6F2F
:100F7000707172737475767778797A303132333470
:100F80003536373839000000385831363A41424357
:100F90004445464748494A4B4C4D4E4F5051525399
:100FA0005455565758595A3031323334353637380C
:100FB00039000000385831363A7E21402324255E1E
:100FC000262A28295F2B7B7D3A3C3E3F2F7C2D2B08
:100FD0002E000000B2E2CAD4353AD6D0CEC4CFD467
:100FE000CABEB2E2CAD4000031365831363AD6D041
:100FF000BEB0D4B0B5E7D7D3BCBCCAF5D3D0CFDE32
:10100000B9ABCBBEBBB6D3ADC4FA00003136583154
:10101000363A57656C636F6D65D6D0BEB0D4B000FC
:1010200032345832343A57656C636F6D65D6D0BE32
:10103000B0D4B00033325833323A57656C636F6DB9
:1010400065D6D0BEB0D4B000B2E2CAD4363ACDBC78
:10105000C6ACCFD4CABEB2E2CAD40000204F00084A
:1010600051510000B2E2CAD4373A546F756368B286
:10107000E2CAD40024000020583A0000593A000087
:10108000F74908807047F649891C0880704708B501
:10109000F348801C00880090BDF8000008BD30B502
:1010A00004460D462A20FFF7EBFF2012FFF7EBFF67
:1010B000E0B2FFF7E8FF1012FFF7E5FFD0B2FFF74D
:1010C000E2FF2B20FFF7DCFF2812FFF7DCFFE8B27E
:1010D000FFF7D9FF1812FFF7D6FFD8B2FFF7D3FFFB
:1010E0002C20FFF7CDFF30BD00B502460B462A206D
:1010F000FFF7C6FF1012FFF7C6FFD0B2FFF7C3FF1E
:101100002B20FFF7BDFF1812FFF7BDFFD8B2FFF786
:10111000BAFF00BD00B52920FFF7B2FF00BD00B542
:101120002820FFF7ADFF00BD2DE9F04106460F4630
:1011300000240025A04639463046FFF7D5FF2E2073
:10114000FFF79EFFFFF7A3FF0446FFF7A0FF04464B
:10115000FFF79DFF8046E5B24FF6FF7000EA0525D8
:10116000E012C002A91240EA411040EAE820BDE8BE
:10117000F08170B50646BB484088401E83B2B9482E
:101180000088401E82B200210846FFF788FF002435
:101190000CE0002504E03046FFF775FF681C85B2BF
:1011A000B0484088A842F6DC601C84B2AD48008894
:1011B000A042EEDC70BD2DE9F04706460F4614460E
:1011C0001D46DDF820A0681E83B2601E82B239463B
:1011D0003046FFF764FFB8460EE0B14606E05046E1
:1011E000FFF751FF09F101001FFA80F9A145F6DB75
:1011F00008F101001FFA80F8A845EEDBBDE8F08792
:1012000070B504460D4616462B4622462946204612
:10121000FFF745FF3046FFF736FF70BD2DE9FF4F62
:1012200084B081468A460020029083460698A0EB4F
:1012300009050798A0EB0A06CDF80490CDF800A0A8
:10124000002D01DD012705E00DB9002702E04FF078
:10125000FF376D42002E02DD4FF0010806E016B99F
:101260004FF0000802E04FF0FF387642B54201DD52
:101270002C4600E03446002003901EE0009A91B214
:10128000019A90B2119AFFF7BBFF0298284402908E
:10129000B3440298A04205DD0298001B0290019819
:1012A00038440190A34504DDABEB040B00984044A7
:1012B00000900398401C80B20390611C0398884200
:1012C000DCDB08B0BDE8F08F2DE9F84105460E469D
:1012D00017469846079C33463A46314628460094BE
:1012E000FFF79CFF43462A46314628460094FFF705
:1012F00095FF43463A46414628460094FFF78EFF45
:1013000043463A46314638460094FFF787FFBDE82A
:10131000F8812DE9F04306460F4690469946002590
:10132000444641E07A1B91B2321B90B24A46FFF725
:1013300067FF7A1B91B2321990B24A46FFF760FFFD
:101340003A1991B2721B90B24A46FFF759FF3A1B05
:1013500091B2721B90B24A46FFF752FF7A1991B2CE
:10136000321990B24A46FFF74BFF3A1B91B27219FD
:1013700090B24A46FFF744FF3A1991B2721990B2FF
:101380004A46FFF73DFF7A1991B2321B90B24A46A6
:10139000FFF736FF6D1C05FB05F004FB040108FB9D
:1013A00008F0814200DD641EA542BBDDBDE8F0838C
:1013B0002DE9FF4F0646894692469B460E9C00202B
:1013C000039000962046E21704EB5272D210214699
:1013D000E31704EB5373DB10A4EBC3030BB101233E
:1013E00000E000231A44624392B201920520029069
:1013F000002578E005EB85101B4911F810009AF8DC
:10140000001088426CD105EB8510174901EB4000B4
:1014100040789AF80110884262D109EB0400401E1E
:1014200083B23019401E82B249463046FFF737FE7C
:10143000002752E04FF0000849E00F9830BB05EB61
:101440008510094901EB4000801CC05D012101FAB3
:1014500008F1084050B15846FFF715FE09E00000BA
:101460007E00006C1E0000203E9700080D98FFF7DC
:101470000AFE0398401CC0B20390039890FBF4F15D
:1014800004FB1100F8B90020039023E005EB851060
:10149000FA4901EB4000801CC05D012101FA08F10E
:1014A000084020B15A4649463046FFF7A9FE701C55
:1014B00086B20098301AA04205D1009E09F10100C1
:1014C0001FFA80F906E008F1010000F0FF08B8F10A
:1014D000080FB2DB00BF781CC7B201988742A9DBB6
:1014E00000BF681C85B20298854283DBBDE8FF8F90
:1014F0002DE9FF4F0646894692469B460E9C0020EA
:10150000039000962046E21704EB5272D210214657
:10151000E31704EB5373DB10A4EBC3030BB10123FC
:1015200000E000231A44624392B201920520029027
:10153000002579E005EB850000EB4510D04911F856
:1015400010009AF8001088426BD105EB850000EB83
:101550004510CB4901EB400040789AF801108842D1
:101560005FD109EB0400401E83B23019401E82B2E5
:1015700049463046FFF793FD00274FE04FF0000843
:1015800046E00F9808BB05EB850000EB4510BC4911
:1015900001EB4000801CC05D012101FA08F1084008
:1015A00018B15846FFF76FFD02E00D98FFF76BFD8D
:1015B0000398401CC0B20390039890FBF4F104FB25
:1015C000110008BB0020039025E005EB850000EB2F
:1015D0004510AB4901EB4000801CC05D012101FAC0
:1015E00008F1084020B15A4649463046FFF708FE48
:1015F000701C86B20098301AA04205D1009E09F1F5
:1016000001001FFA80F906E008F1010000F0FF0870
:10161000B8F1080FB5DB00BF781CC7B2019887424C
:10162000ACDB00BF681C85B20298854282DBBDE856
:10163000FF8F2DE9FF4F0646894692469B460E9C3A
:101640000020039000962046E21704EB5272D2105D
:101650002146E31704EB5373DB10A4EBC3030BB178
:10166000012300E000231A44624392B201922B202E
:101670000290002571E005EB0510824911F8100079
:101680009AF80010884265D105EB05107D4901EB01
:10169000400040789AF8011088425BD109EB0400C1
:1016A000401E83B23019401E82B249463046FFF7D1
:1016B000F6FC00274BE04FF0000842E00F98F8B925
:1016C00005EB05106F4901EB4000801CC05D012156
:1016D00001FA08F1084018B15846FFF7D4FC02E0BF
:1016E0000D98FFF7D0FC0398401CC0B203900398FC
:1016F00090FBF4F104FB1100F8B90020039023E003
:1017000005EB05105F4901EB4000801CC05D012125
:1017100001FA08F1084020B15A4649463046FFF721
:101720006FFD701C86B20098301AA04205D1009E51
:1017300009F101001FFA80F906E008F1010000F04C
:10174000FF08B8F1080FB9DB00BF781CC7B20198D9
:101750008742B0DB00BF681C85B2029885428ADBF5
:10176000BDE8FF8F2DE9FF4F0646894692469B460E
:101770000E9C0020039000962046E21704EB527264
:10178000D2102146E31704EB5373DB10A4EBC30321
:101790000BB1012300E000231A44624392B201928C
:1017A00005200290002583E005EB850000EBC500D5
:1017B000354911F810009AF80010884275D105EBF0
:1017C000850000EBC500304901EB400040789AF8F5
:1017D0000110884269D109EB0400401E83B2301920
:1017E000401E82B249463046FFF759FC002759E0B7
:1017F0004FF0000850E00F9808BB05EB850000EBA8
:10180000C500214901EB4000801CC05D012101FAA7
:1018100008F1084018B15846FFF735FC02E00D9872
:10182000FFF731FC0398401CC0B20390039890FB73
:10183000F4F104FB110048BB002003902FE005EBFE
:10184000850000EBC500104901EB4000801CC05D25
:10185000012101FA08F1084020B15A4649463046B4
:10186000FFF7CEFC701C86B20098301AA0420FD150
:10187000009E09F101001FFA80F910E03E97000870
:10188000CC95000816900008948F000800E00CE04A
:1018900008F1010000F0FF08B8F1080FABDB00BF52
:1018A000781CC7B201988742A2DB00BF681C85B2D2
:1018B00002988542FFF678AFBDE8FF8F2DE9FE471D
:1018C0008046894617469A46DDE90C460B9D36E070
:1018D0000C2C09D153463A4649464046CDE90146CB
:1018E0000095FFF73FFF25E0102C09D153463A46FB
:1018F00049464046CDE901460095FFF79AFE19E0BA
:10190000182C09D153463A4649464046CDE901468E
:101910000095FFF7EDFD0DE0202C09D153463A4626
:1019200049464046CDE901460095FFF741FD01E0FB
:10193000BDE8FE87BF1C08EB04001FFA80F838786A
:101940000028C5D100BFF3E72DE9FF4F80468A4646
:1019500017469B460E9D00200290CDF80080284639
:1019600005EBD071C1F347042046E21704EB527235
:10197000D2102146E31704EB5373DB10A4EBC3032F
:101980000BB1012300E000231A446A4392B2019292
:10199000A7F12000C7B20AEB0500401E83B208EB96
:1019A0000400401E82B251464046FFF778FB0026F5
:1019B00069E00C2D07D107EB4700FE4901EB8000E1
:1019C000805D03901BE0102D05D1FB4800EB071054
:1019D000805D039013E0182D07D107EB4700F7490E
:1019E00001EB0010805D039009E0202D05D1F44843
:1019F00000EB8710805D039001E0BDE8FF8F4FF0A2
:101A000000093AE00F98C8B9012000FA09F00399DB
:101A1000084018B15846FFF736FB02E00D98FFF773
:101A200032FB0298401CC0B20290029890FBF4F185
:101A300004FB1100E8B90020029021E0012000FA27
:101A400009F00399084020B15A4651464046FFF735
:101A5000D7FB08F101001FFA80F80098A8EB0000FE
:101A6000A04206D1DDF800800AF101001FFA80FAD9
:101A700006E009F1010000F0FF09B9F1080FC1DB30
:101A800000BF701C86B20198864292DB00BFB4E7AB
:101A90002DE9FE4706460F4614469846DDE90C5AE6
:101AA000DDF82C9010E0CDE9015ACDF800902278B5
:101AB000434639463046FFF747FF284605EBD071CD
:101AC00006EB61018EB2641C20780028EBD1BDE8E2
:101AD000FE8710B50246012000E050430B1EA1F125
:101AE0000104E1B2F9D110BD2DE9FF4F84B00746E2
:101AF00091461D46DDE912A600200390304606EB14
:101B0000D071C1F3470B002434E0281B401EC1B242
:101B10000A20FFF7DEFFB9FBF0F00A21B0FBF1F27B
:101B200001FB12080398A0B9681EA04211DDB8F1AC
:101B3000000F0CD1002004FB0B71CDE900A6029030
:101B400088B22022119B0599FFF7FEFE10E00120CC
:101B50000390002008F13001CAB204FB0B71CDE9FB
:101B600000A6029088B2119B0599FFF7EDFE00BF19
:101B7000601CC4B2AC42C8DB08B0BDE8F08F2DE9F0
:101B8000FF4F2DED020B83B007461446DDE91286A8
:101B9000304606EBD071C1F3470ADFED8A0A60EEEA
:101BA000200AFCEEE00A10EE900A1FFA80FB0025E6
:101BB00030E0601B401EC1B20A20FFF78AFFBBFB6A
:101BC000F0F00A21B0FBF1F201FB1209A01EA842BD
:101BD00010D10020A11E01FB0A71CDE90086029000
:101BE00088B22E22089B0699FFF7AEFE681CC5B28C
:101BF000601CC4B2002009F13001CAB205FB0A71B1
:101C0000CDE90086029088B2089B0699FFF79CFEFA
:101C1000681CC5B2A542CCDB09B0BDE8F08F2DE948
:101C2000FC4F0746884615461E46DDF82C900024DA
:101C300008EB0600401E83B27819401E82B241466E
:101C40003846FFF72CFAA2461CE04FF0000B13E0D9
:101C500019F814200192012000EB440019F800103B
:101C60000091DDE9001241EA0220FFF70CFA641C42
:101C70000BF101001FFA80FBB345E9DB0AF101001B
:101C80001FFA80FAAA45E0DBBDE8FC8F0146081187
:101C9000C21700EB92729210A0EB820232B14FF4A5
:101CA000A070494A1080F020508005E0F020464A9C
:101CB00010804FF4A0705080704700B59FB0012194
:101CC0007A2001F0D3FF0121084602F007F84FF413
:101CD00000401D9001208DF8780000208DF87A00DA
:101CE00003208DF8790001208DF87B001DA937486D
:101CF00001F01EFD4CF233701D9002208DF878002B
:101D000000208DF87A0003208DF8790001208DF8ED
:101D10007B001DA92E4801F00BFD4FF680701D9031
:101D200002208DF8780000208DF87A0003208DF8CD
:101D3000790001208DF87B001DA9264801F0F8FCF0
:101D40004FF480501D9002208DF8780000208DF80F
:101D50007A0003208DF8790001208DF87B001DA901
:101D60001D4801F0E5FC4FF480501D9002208DF8D5
:101D7000780000208DF87A0003208DF8790001208A
:101D80008DF87B001DA9154801F0D2FC0C22002122
:101D90000F4801F058FD0C2201210D4801F053FDC0
:101DA0000C2204210A4801F04EFD0C2205210848AE
:101DB00016E00000A05B000814600008046600083C
:101DC000D47700080000C8421E0000200004024032
:101DD000000C0240001002400014024000180240B3
:101DE00001F031FD0C220821E14801F02CFD0C220C
:101DF0000921DF4801F027FD0C220A21DC4801F00F
:101E000022FD0C220E21DA4801F01DFD0C220F21CB
:101E1000D74801F018FD0C220721D64801F013FD28
:101E20000C220821D34801F00EFD0C220921D148D3
:101E300001F009FD0C220A21CE4801F004FD0C221C
:101E40000B21CC4801F0FFFC0C221146C94801F0DF
:101E5000FAFC0C220D21C74801F0F5FC0C220E21E2
:101E6000C44801F0F0FC0C220F21C24801F0EBFC49
:101E70000C221146C04801F0E6FC0C221146BF4876
:101E800001F0E1FC0F200790002008903C20099011
:101E900000200A900B900C900D90092000900020DB
:101EA0000190082002900020039004900590069075
:101EB00006200E9000200F9010901020119000200E
:101EC000129014901390159016904FF48050179024
:101ED000002018904FF48040199000201A9007A815
:101EE0001B90CDF870D00EA802F059FA01210620FF
:101EF00002F0E0FA322001F03FFA6020FFF7C6FE60
:101F0000D320FFF7BDF8FFF7C2F89D498880FFF79F
:101F1000BEF89B498880FFF7BAF89949888008463F
:101F200080884FF6FF7101EA002095498880FFF70D
:101F3000AEF893498988084391498880CF20FFF7FC
:101F40009FF80020FFF79FF8C120FFF79CF8302092
:101F5000FFF799F8ED20FFF793F86420FFF793F867
:101F60000320FFF790F81220FFF78DF88120FFF78C
:101F70008AF8E820FFF784F88520FFF784F810201E
:101F8000FFF781F87A20FFF77EF8CB20FFF778F88B
:101F90003920FFF778F82C20FFF775F80020FFF7BD
:101FA00072F83420FFF76FF80220FFF76CF8F72083
:101FB000FFF766F82020FFF766F8EA20FFF760F8E1
:101FC0000020FFF760F80020FFF75DF8C020FFF762
:101FD00057F81B20FFF757F8C120FFF751F80120F1
:101FE000FFF751F8C520FFF74BF83020FFF74BF80B
:101FF0003020FFF748F8C720FFF742F8B720FFF777
:1020000042F83620FFF73CF86820FFF73CF83A200A
:10201000FFF736F85520FFF736F8B120FFF730F814
:102020000020FFF730F81A20FFF72DF8B620FFF751
:1020300027F80A20FFF727F8A220FFF724F8F2205C
:10204000FFF71EF80020FFF71EF82620FFF718F80C
:102050000120FFF718F8E020FFF712F80F20FFF734
:1020600012F82A20FFF70FF82820FFF70CF80820B5
:10207000FFF709F80E20FFF706F80820FFF703F82E
:102080005420FFF700F8A920FEF7FDFF4320FEF7DC
:10209000FAFF0A20FEF7F7FF0F20FEF7F4FF0020FB
:1020A000FEF7F1FF0020FEF7EEFF0020FEF7EBFF4A
:1020B0000020FEF7E8FFE120FEF7E2FF0020FEF738
:1020C000E2FF1520FEF7DFFF1720FEF7DCFF0720F9
:1020D000FEF7D9FF1120FEF7D6FF0620FEF7D3FF4B
:1020E0002B20FEF7D0FF5620FEF7CDFF3C20FEF759
:1020F000CAFF0520FEF7C7FF1020FEF7C4FF0F2020
:10210000FEF7C1FF3F20FEF7BEFF3F20FEF7BBFFFB
:102110000F20FEF7B8FF2B20FEF7B2FF0020FEF7DE
:10212000B2FF0020FEF7AFFF0120FEF7ACFF3F201B
:10213000FEF7A9FF2A20FEF7A3FF0020FEF7A3FF6A
:102140000020FEF7A0FF0020FEF79DFFEF20FEF726
:102150009AFF1120FEF794FF782001F00DF9292055
:10216000FEF78EFF0120074908601FB000BD000088
:10217000000C02400010024000140240001802400F
:102180001E000020BC8240421CB50121022001F04B
:102190006DFD4FF44070009001208DF80400002088
:1021A0008DF8060003208DF8050001208DF807004A
:1021B00069468C4801F0BCFA1CBD10B5894800681E
:1021C00020F44020874908600846006840F48020D9
:1021D00008600120844908608449C1F8A0020420F5
:1021E00001F082F8002080490860042001F07CF8AA
:1021F00000207E49C1F8A00210BD10B579480068E2
:1022000020F44020774908600846006840F48020A8
:10221000086000207449091F08607449C1F8A402CD
:10222000042001F061F801206F49091F08606F491F
:10223000C1F8A402042001F057F810BD10B5002425
:102240006848006820F44020664908600846006835
:10225000086001206449086001F046F801206349E4
:10226000C1F8A00201F040F807E0601CC4B2FA2CEB
:1022700003DDFFF7C2FF012010BD5B488038006816
:102280000028F2D15849091F086000BFF4E710B5D3
:1022900000205549091F08605248006820F440207A
:1022A000504908600846006840F48020086000201B
:1022B0004E49C1F8A402022001F016F801204A4953
:1022C000091F0860022001F00FF800204749C1F8FB
:1022D000A00210BD10B500204349091F0860414805
:1022E000006820F440203F4908600846006840F438
:1022F0008020086001203D49C1F8A402022000F0BE
:10230000F3FF01203849091F0860022000F0ECFFAC
:1023100000203649C1F8A00210BD70B5044631480E
:10232000006820F440202F4908600846006840F407
:102330008020086000202C49091F086000251DE04E
:10234000E00918B101202849086002E00020264970
:1023500008606006040E022000F0C6FF012022493A
:10236000091F0860022000F0BFFF00201F49C1F8CC
:10237000A002022000F0B8FF681CC5B2082DDFDB08
:1023800070BD70B5054600241648006820F4402052
:1023900014490860084600680860002617E000201D
:1023A0001149091F0860022000F09EFF01200F491B
:1023B000C1F8A0026006040E0B488038006808B11E
:1023C000601CC4B2012000F08FFF701CC6B2082E42
:1023D000E5DB15B9FFF77EFF01E0FFF758FF204668
:1023E00070BD000000040240A482404200804042D0
:1023F00010B5FFF7C9FE10BD70B504460026FFF703
:10240000DCFE2546E11704EB11610912A02202EB64
:102410004101C8B2FFF781FFFFF710FFE11704EB9E
:1024200011610912A4EB0121C8B2FFF776FFFFF793
:1024300005FFFFF7C2FEA120FFF76FFFFFF7FEFECB
:102440000020FFF79EFF0646FFF7D7FE304670BD1F
:1024500070B504460E46FFF7B0FE2546E11704EBC3
:1024600011610912A02202EB4101C8B2FFF755FF2A
:10247000FFF7E4FEE11704EB11610912A4EB01215F
:10248000C8B2FFF74AFFFFF7D9FE3046FFF745FF16
:10249000FFF7D4FEFFF7B1FE0A2000F06DFF70BD1C
:1024A0002DE9F04105460E461746002409E0E200FA
:1024B00026FA02F2D1B22A1990B2FFF7C9FF601CC6
:1024C000C4B2BC42F3DBBDE8F0812DE9F041074620
:1024D0000C460026002509E036023919491B491E21
:1024E00088B2FFF789FF0644681CC5B2A542F3DB3A
:1024F0003046BDE8F08110B5FF20FFF77DFF0446B0
:10250000552C01D1002010BD5521FF20FFF7A0FF61
:10251000FF20FFF771FF0446552C01D10020F2E7A0
:102520000120F0E770B506460C46154608E0304637
:10253000721C96B2FFF760FF04F8010B681E85B2AB
:10254000002DF4D170BD70B505460C46164606E068
:1025500021782846FFF77CFF681C85B2641C301E7A
:10256000A6F101018EB2F3D170BD000070B5044632
:10257000002500BF17E004F0800018B10120FE49DB
:10258000086002E00020FC4908606006040E00209C
:10259000FA490860012000F0A7FE0120F849C1F8BF
:1025A0008002681CC5B2082DE5DB70BD70B506461B
:1025B000002500240020F1490860F249C1F8AC026E
:1025C000F14908603046FFF7D1FF062000F08CFE8D
:1025D0000020EB49C1F88002012000F085FE0120B7
:1025E000E649086000F080FE0020E549C1F880025D
:1025F00000BF15E04FF6FF7000EA44040020DF49F9
:102600000860012000F070FE0120DD49C1F8800261
:10261000DA487838006808B1601C84B2681CC5B21A
:10262000102DE7DB24110120D7490860204670BD3A
:102630002DE9FE4380460027002406E04046FFF7D0
:10264000B5FF2DF81400601C84B2052CF6DB0024C5
:1026500016E0601C85B20FE03DF814003DF815103F
:10266000884207DD3DF814603DF815002DF8140090
:102670002DF81560681C85B2052DEDDB601C84B259
:10268000042CE6DB0027012405E03DF81400384463
:1026900087B2601C84B2042CF7DB032097FBF0F0B8
:1026A00086B23046BDE8FE832DE9F04104460D4672
:1026B000B6480078FFF7BCFF0646B5480078FFF73C
:1026C000B7FF074626802F800120BDE8F0817FB547
:1026D00004460D4602A903A8FFF7E6FF064616B911
:1026E000002004B070BD694601A8FFF7DDFF064673
:1026F0000EB90020F5E7BDF80400BDF80C108842C3
:1027000006DCBDF80C10BDF80400323081420CDB51
:10271000BDF80C00BDF80410884236DCBDF804108A
:10272000BDF80C00323081422FDABDF80000BDF850
:102730000810884206DCBDF80810BDF800003230F1
:1027400081420CDBBDF80800BDF8001088421CDC9B
:10275000BDF80010BDF808003230814215DABDF82E
:102760000C10BDF80420881800EBD071C1F34F01A4
:102770002180BDF80810BDF80020881800EBD0714A
:10278000C1F34F0129800120ABE70020A9E7F8B58C
:1027900004460D46164604F10D018AB2193988B275
:1027A0002B4629460096FEF739FD05F10D0083B250
:1027B000193881B2224620460096FEF72FFD6A1C8A
:1027C00091B2621C90B23246FEF71AFD6A1C91B2B9
:1027D000621E90B23246FEF713FD6A1E91B2621C71
:1027E00090B23246FEF70CFD6A1E91B2621E90B2A4
:1027F0003246FEF705FD3346062229462046FEF7FF
:1028000088FDF8BD70B504460D4616463246294689
:102810002046FEF7F5FC611C88B232462946FEF7D9
:10282000EFFC681C81B232462046FEF7E9FC6A1CC8
:1028300091B2621C90B23246FEF7E2FC70BD2DE907
:10284000FF4F85B081468A46002003908346079853
:10285000A0EB09050898A0EB0A06CDF80890CDF882
:1028600004A0002D01DD012705E00DB9002702E0DD
:102870004FF0FF376D42002E02DD4FF0010806E0F9
:1028800016B94FF0000802E04FF0FF387642B5422B
:1028900001DD2C4600E03446002004901EE0019A41
:1028A00091B2029A90B2129AFFF7ACFF03982844B3
:1028B0000390B3440398A04205DD0398001B0390E6
:1028C000029838440290A34504DDABEB040B019859
:1028D000404401900498401C80B20490611C04980C
:1028E0008842DCDB09B0BDE8F08F10B50446234810
:1028F0007C38006800285ED12CB12649A1F10A007D
:10290000FFF7E5FE35E02349A1F10A00FFF7DFFEFE
:1029100078B320481638B0F92C0000EE100AB8EE53
:10292000C00A1C48163890ED091A808900EE900AFA
:10293000F8EE600A01EE200ABCEEC00A10EE100AA2
:102940001449163988810846B0F92E0000EE100AA5
:10295000B8EEC00A084690ED0A1AC08A00EE900A46
:10296000F8EE600A01EE200ABCEEC00A10EE100A72
:10297000C882084816380FE0AC824242808240424A
:102980000080404200804242B40241425800002090
:10299000590000203A00002090F8200000F080004C
:1029A00008BBC020FE4981F8200008468189818249
:1029B000C18AC18317E0FA4890F8200000F0800037
:1029C00040B1F74890F8200020F08000F44981F8E9
:1029D000200008E00021F2488182C1834FF6FF7099
:1029E000EF498881C882EE4890F8200000F080000E
:1029F00010BD10B50E22EA4924312820FFF7A3FDAF
:102A000060213620FFF724FD10BD10B53620FFF7FA
:102A1000F3FC0446602C07D10E22E1492431282022
:102A2000FFF780FD012010BD0020FCE72DE9F043F9
:102A30002DED068B87B04FF0000800BF4FF6FF70FA
:102A40000090D8484388028800210846FEF7B3FB6F
:102A5000002010214FF6FF724FF47843CDE900219A
:102A60000290D1A228210520FFF712F84FF47842F6
:102A700014210846FFF78BFE0020C94981F8200089
:102A80009FEDD10A084680ED090A69E3C448416810
:102A900001208847C24890F8200000F0C00040287C
:102AA0006FD1BF4890F8200020F04000BC4981F869
:102AB00020000846808903A921F82800B848C08A68
:102AC00001EB8801488008F1010000F0FF08B8F12F
:102AD000010F09D0B8F1020F16D0B8F1030F26D0BC
:102AE000B8F1040F0FD138E04FF6FF7214210846F9
:102AF000FFF74DFEAB490988143988B24FF478428C
:102B00001421FFF744FE29E3A6490988143988B245
:102B10004FF6FF721421FFF73AFEA248408814389E
:102B200081B24FF478421420FFF731FE16E39D483E
:102B30004088143881B24FF6FF721420FFF727FE49
:102B4000984A5288143A91B2964A1288143A90B22E
:102B50004FF47842FFF71BFE00E3BDF80C10BDF800
:102B60001020881A002801DB014600E041420C4693
:102B7000BDF80E20BDF81210501A002802DB0146E5
:102B800001E0ECE241420D4664436D43601901F0FF
:102B9000ACFF41EC1A0BB0EE4A0AF0EE6A0A01F003
:102BA0002DFFB0EE409AF0EE609A51EC190B01F057
:102BB0006FFF86B2BDF81410BDF81820881A0028DF
:102BC00001DB014600E041420C46BDF81620BDF88D
:102BD0001A10501A002801DB014600E041420D4660
:102BE00064436D43601901F080FF41EC1A0BB0EEB5
:102BF0004A0AF0EE6A0A01F001FFB0EE409AF0EEE8
:102C0000609A51EC190B01F043FF87B200EE106A95
:102C1000F8EE400A00EE107AB8EE400A80EE801A14
:102C200011EE109A484602F005F941EC180B9FEDA1
:102C3000670B53EC102B51EC180B01F069FF0BD311
:102C40009FED640B53EC102B51EC180B01F0F0FFCF
:102C500002D30EB1002F34D14FF00008514A5288F0
:102C6000143A91B24F4A1288143A90B24FF6FF725A
:102C7000FFF78DFD4FF4784214210846FFF787FDDA
:102C8000002010214FF6FF724FF47843CDE9002168
:102C9000029052A228210520FEF7FAFE0020102102
:102CA0004FF6FF724FF47843CDE90021029053A212
:102CB0003C210520FEF7ECFE4FF47A7000F05CFB3F
:102CC0004EE2BDF80C10BDF81420881A002801DB74
:102CD000014600E041420C46BDF80E20BDF816103A
:102CE000501A002801DB014600E041420D466443D2
:102CF0006D43601901F0F9FE41EC1A0BB0EE4A0A7F
:102D0000F0EE6A0A01F07AFEB0EE409AF0EE609AB8
:102D100051EC190B01F0BCFE86B2BDF81010BDF8E5
:102D20001820881A002801DB014600E041420C46C9
:102D3000BDF81220BDF81A10501A002801DB014618
:102D400000E041420D4664436D43601901F0CDFE41
:102D500041EC1A0BB0EE4A0AF0EE6A0A01F04EFEA0
:102D6000B0EE409AF0EE609A51EC190B01F090FE33
:102D700087B200EE106AF8EE400A00EE107AB8EE64
:102D8000400A80EE801A11EE109A484602F052F87E
:102D900041EC180B9FED0D0B53EC102B3EE00000A7
:102DA000240000201E000020506C656173652061C6
:102DB000646A7573746D656E7420746865207363DE
:102DC0007265656E2E000000000000006666666693
:102DD0006666EE3FCDCCCCCCCCCCF03F546F756367
:102DE000682041646A7573742046696C65642120AB
:102DF000202020202020202020000000506C656131
:102E000073652041646A75737420416761696E213E
:102E100020202020202020202000000051EC180B32
:102E200001F076FE08D31FED150B53EC102B51EC7F
:102E3000180B01F0FDFE36D24FF00008FE4A528812
:102E4000143A91B2FC4A1288143A90B24FF6FF72CB
:102E5000FFF79DFC4FF4784214210846FFF797FCDA
:102E6000002010214FF6FF724FF47843CDE9002186
:102E70000290AFF2980228210520FEF709FE0020FB
:102E800010214FF6FF724FF47843CDE900210290F4
:102E9000AFF298023C210520FEF7FAFD4FF47A705C
:102EA00000F06AFA5CE1BDF81010BDF81420881A31
:102EB000002801DB014600E041420C46BDF812202B
:102EC000BDF81610501A002801DB014600E041420F
:102ED0000D4664436D43601901F007FE41EC1A0B87
:102EE000B0EE4A0AF0EE6A0A01F088FDB0EE409AB0
:102EF000F0EE609A51EC190B01F0CAFD86B2BDF8F4
:102F00000C10BDF81820881A002801DB014600E0EB
:102F100041420C46BDF80E20BDF81A10501A002888
:102F200001DB014600E041420D4664436D436019F8
:102F300001F0DBFD41EC1A0BB0EE4A0AF0EE6A0A32
:102F400001F05CFDB0EE409AF0EE609A51EC190B86
:102F500001F09EFD87B200EE106AF8EE400A00EE26
:102F6000107AB8EE400A80EE801A11EE109A4846A8
:102F700001F060FF41EC180B1FED6C0B53EC102BB4
:102F800051EC180B01F0C4FD08D31FED6E0B53EC90
:102F9000102B51EC180B01F04BFE36D24FF000080D
:102FA000A54A5288143A91B2A34A1288143A90B2B0
:102FB0004FF6FF72FFF7EBFB4FF4784214210846FF
:102FC000FFF7E5FB002010214FF6FF724FF4784326
:102FD000CDE900210290AFF2FC1228210520FEF776
:102FE00057FD002010214FF6FF724FF47843CDE9D2
:102FF00000210290AFF2FC123C210520FEF748FDB3
:103000004FF47A7000F0B8F9AAE0BDF81000BDF8EE
:103010000C10401A00EE100AF8EEC00A864800882C
:10302000283800EE100AB8EEC00A80EE201A834855
:1030300080ED091ABDF81000BDF80C10084400EE30
:10304000100AF8EEC00A7C48008800EE100AB8EEBC
:10305000400A7A4890ED091A01EE600AF0EE000A83
:1030600080EE201ABDEEC10A10EE100A00B27349BC
:103070008885BDF81600BDF80E10401A00EE100A43
:10308000F8EEC00A6C484088283800EE100AB8EE06
:10309000C00A80EE201A694880ED0A1ABDF81600B1
:1030A000BDF80E10084400EE100AF8EEC00A62489F
:1030B000408800EE100AB8EE400A604890ED0A1A07
:1030C00001EE600AF0EE000A80EE201ABDEEC10AA1
:1030D00010EE100A00B25949C885574A5288143A6E
:1030E00091B2554A1288143A90B24FF6FF72FFF728
:1030F0004EFB002010214FF6FF724FF47843CDE9CC
:10310000002102904EA228210520FEF7C1FC0020DC
:1031100010214FF6FF724FF47843CDE90021029061
:103120004FA23C210520FEF7B3FC4FF47A7000F06B
:1031300023F9002010214FF6FF724FF47843CDE9B8
:10314000002102904EA228210520FEF7A1FCFFF7E6
:1031500050FC07B0BDEC068BBDE8F08300BF00BF9C
:1031600094E41CB50121262000F080FD062000908B
:1031700000208DF804008DF8060003208DF805006E
:1031800001208DF807006946434800F0D1FA062176
:10319000414800F049FB012000908DF80400002018
:1031A0008DF8060003208DF8050001208DF807003A
:1031B0006946394800F0BCFA0121374800F034FB79
:1031C0004FF40050009001208DF8040000208DF88D
:1031D000060003208DF8050001208DF807006946E0
:1031E0002E4800F0A5FA01212C4800F01DFB4FF4F9
:1031F0000060009001208DF8040000208DF806008A
:1032000003208DF8050001208DF807006946244849
:1032100000F08EFA4FF40061214800F005FB0749E9
:103220001631A1F10A00FFF73FFAFFF7E1F8FFF7C7
:10323000ECFBB8B300201CBD1E00002024000020C1
:10324000546F7563682053637265656E2041646ACC
:10325000757374204F4B2120202020202000000077
:10326000202020202020202020202020202020205E
:1032700020202020202020202020202020000000AE
:10328000202020202020202020202020202020203E
:1032900020202020202020000004024000080240BE
:1032A00000140240FFE7FFF7C1FBFFF7AEFB012070
:1032B0001CBD000010B504466FF0040000F094F946
:1032C000E11704EB5171C1F3C701394A117010467F
:1032D000007800EB4001C1EBC0104FF6FF7101EA2E
:1032E000C0003449088010BD0146314A12784A4373
:1032F0004FF0E0235A6100229A611A46126942F0A7
:1033000001021A6100BF4FF0E022106900F00102D3
:103310001AB100F48032002AF5D04FF0E022126991
:1033200022F001024FF0E0231A6100229A617047F7
:103330000146204A12884A434FF0E0235A61002296
:103340009A611A46126942F001021A6100BF4FF0F9
:10335000E022106900F001021AB100F48032002A64
:10336000F5D04FF0E022126922F001024FF0E02385
:103370001A6100229A61704770B504464FF40770D5
:1033800094FBF0F0C6B24FF4077094FBF0F100FB31
:10339000114085B205E04FF40770FFF7C9FF701EBA
:1033A000C6B2002EF7D115B12846FFF7C1FF70BD98
:1033B0005A0000205C000020014600BF704700BF9B
:1033C0004C4A128802F04002002AF9D0C2B2494B9E
:1033D0009A80704710B588B004460121084600F075
:1033E00045FC0121102000F09BFC072209214248E6
:1033F00000F029FA07220A213F4800F024FA4FF48E
:10340000C060069002208DF81C008DF81D00002081
:103410008DF81E0001208DF81F0006A9364800F027
:1034200087F902940020ADF80C00ADF80E00ADF85D
:103430001000ADF814000C20ADF8120002A92D48C0
:1034400000F0CFFD01212B4800F053FE012240F295
:103450002551284800F003FF25208DF804000320A3
:103460008DF805008DF8060001208DF8070001A8F1
:1034700000F06DF808B010BD10B540F225511D48A0
:1034800000F028FF10B31B4800F062FEC4B21B48D6
:10349000008800F40040C8B91848008800F4804053
:1034A00060B10A2C03D000201449088020E01348A2
:1034B000008840F400401149088019E00D2C06D125
:1034C0000E48008840F480400C49088010E00B480A
:1034D0000088C0F30D000A490C5408480088401CBD
:1034E0000649088008460088C72801DD00200880BA
:1034F00010BD0000001001400000024064000020E8
:10350000780000200948804709480047FEE7FEE7A9
:10351000FEE7FEE7FEE7FEE7FEE7FEE7FEE7FEE783
:1035200004480549054A064B704700005D03000842
:1035300089010008A0010020A0070020A0030020AE
:10354000A003002032490143324A1160704770B530
:10355000002100230F22C4781CB32E4C246804F4ED
:10356000E064C4F5E064C4F30721C1F10404E3B2EC
:103570000A4144789C40E1B28478144021430C070E
:10358000210E254C05786155047804F01F050124AF
:10359000AC4005786D11AD0005F1E025C5F800419E
:1035A00009E0047804F01F050124AC401B4D0678A7
:1035B000761145F8264070BD194A0A400243154B62
:1035C0001B1F1A60704739B1124A121D126802435C
:1035D000104B1B1D1A6006E00E4A121D1268824332
:1035E0000C4B1B1D1A607047042808D14FF0E021D6
:1035F000096941F004014FF0E022116107E04FF04A
:10360000E021096921F004014FF0E02211617047C7
:103610000000FA050CED00E000E400E080E100E0CD
:1036200080FFFF1F10B504469848844208D101214D
:10363000084600F086FB0021012000F082FB76E0C6
:103640009348844208D10121022000F07AFB002136
:10365000022000F076FB6AE08E48844208D1012106
:10366000042000F06EFB0021042000F06AFB5EE005
:103670008948844208D10121082000F062FB002122
:10368000082000F05EFB52E08448844208D101210A
:10369000102000F056FB0021102000F052FB46E005
:1036A0007F48844208D10121202000F04AFB0021FC
:1036B000202000F046FB3AE07A48844208D10121FC
:1036C000402000F03EFB0021402000F03AFB2EE0BD
:1036D0007548844208D10121802000F032FB00218E
:1036E000802000F02EFB22E07048844208D10121A6
:1036F000801500F026FB0021A01500F022FB16E04B
:103700006B48844208D10121401500F01AFB0021CA
:10371000601500F016FB0AE06648844207D10121DB
:10372000001500F00EFB0021201500F00AFB10BD73
:10373000F0B50A4600210023002400BF3DE001252A
:1037400005FA01F3156805EA03049C4234D10568C3
:103750004F000326BE40B543056015794E00B540C5
:103760000668354305601579012D02D01579022DC3
:1037700016D185684F000326BE40B5438560557954
:103780004E00B540866835438560456801268E4009
:10379000B5434560456896798E40B6B2354345607D
:1037A000C5684F000326BE40B543C560D5794E00BD
:1037B000B540C6683543C560491C1029BFD3F0BD6C
:1037C0004FF6FF7101600021017141718171C1717A
:1037D000704708B54FF480320092009A0A43009275
:1037E000009AC261C161009AC261C2690092C26955
:1037F000009208BD0246002013690B400BB1012066
:1038000000E0002070470146086980B27047024618
:10381000002053690B400BB1012000E000207047ED
:103820000146486980B27047018370474183704701
:103830000AB1018300E041837047416170474269EA
:103840004A4042617047F0B5002300244D07ED0E59
:1038500002FA05F3CE1000F1200555F826504E0768
:10386000F70E0F26BE40B543CF1000F1200646F8F4
:103870002750CE1000F1200555F8265045EA0304E4
:10388000CE1000F1200545F82640F0BD00000240B2
:103890000004024000080240000C024000100240F8
:1038A0000014024000180240001C024000200240A8
:1038B0000024024000280240F948006840F001005E
:1038C000F74908600020F64908310860F4480068AC
:1038D000F4490840F2490860F348091D0860F348BC
:1038E000EF4984310860F0481038091D0860EC4841
:1038F000006820F48020EA4908600020E8490C3183
:103900000860E7498C31086070470021E44A921C46
:10391000117011460870704710B50146002200234F
:1039200000204A11012A02D1DD4C236808E0022A56
:1039300003D1DB4C7034236802E0D94C7434236823
:1039400001F01F02012494401C400CB1012000E052
:10395000002010BD38B5002000900024002500BFD5
:103960003120FFF7D9FF05460098401C00900098D1
:10397000B0F5A04F01D0002DF2D03120FFF7CCFFE1
:1039800008B1012400E00024204638BD0146002093
:10399000C34A106820F0F80040EAC1001060704788
:1039A000C349086070470021BD4A70321170117020
:1039B000012802D004280AD104E00121B84A70325B
:1039C000117005E00521B64A7032117000E000BFA9
:1039D00000BF7047B7490860704770B5049C41EA62
:1039E00082150126C6EB530645EA0645054345EA1E
:1039F0000465AB4E361D356070BDAD490866704735
:103A0000820142EA0172A64B84331A607047A849CA
:103A10008866704710B5830143EA016343EA027385
:103A20009F4C8834236010BDA14908677047A049A6
:103A3000C864704702460020994B0833186820F08C
:103A4000EC6042EA01031843954B08331860704755
:103A500002460020924B0833186820F0784042EA72
:103A6000010318438E4B083318607047014600204D
:103A70008B4A0832106820F003000843106070473A
:103A800087480830006800F00C00704701460020AD
:103A9000834A0832106820F0F00008431060704735
:103AA000014600207E4A0832106820F4E0500843A6
:103AB0001060704701460020794A0832106820F4EF
:103AC000604040EAC10010607047F0B5002100225C
:103AD0000024022500260223714F08373F6807F0B3
:103AE0000C0121B1042905D0082937D105E0724F16
:103AF000076036E0714F076033E0694F3F1D3F6854
:103B0000C7F38056664F3F1D3F6807F03F036EB115
:103B10006A4FB7FBF3F7DFF888C10CF1040CDCF84F
:103B200000C0CCF3881C07FB0CF40CE0624FB7FB21
:103B3000F3F7DFF86CC10CF1040CDCF800C0CCF337
:103B4000881C07FB0CF4564F3F1D3F68C7F3014725
:103B50007F1C7D00B4FBF5F7076002E0564F07605D
:103B600000BF00BF4E4F08373F6807F0F00109095A
:103B7000534F7A5C0768D7404760494F08373F6822
:103B800007F4E051890A4E4F7A5C4768D740876056
:103B9000434F08373F6807F46041490B484F7A5C50
:103BA0004768D740C760F0BD002100F44072B2F50D
:103BB000407F0AD13A4A0832116821F4F811414A8B
:103BC00002401143364A08321160354A7032126899
:103BD000C0F30B031A43324B70331A6070473549F8
:103BE00044390860704733494039086070473649A6
:103BF0000860704701460020294A8C32106820F086
:103C00001F004A1E1043264A8C321060704701463E
:103C10000020234A8C32106820F4F8504A1E40EAF3
:103C200002201F4A8C3210607047014600201C4A57
:103C30008C32106820F44010084310607047014631
:103C40000020174A8C32106820F4400008431060AE
:103C5000704701460020124A8C32106820F4403030
:103C600008431060704719490860704739B10C4A21
:103C70003032126802430A4B30331A6006E0084AB9
:103C8000303212688243064B30331A607047F9B104
:103C9000034A343212680243014B34331A601CE089
:103CA00000380240FFFFF6EA103000240030002008
:103CB00000004742800E47420024F40000127A00C0
:103CC00066000020FFFCFF0F5C014742E011474205
:103CD0008F4A126882438E4B1A60704739B18C4A02
:103CE000121D126802438A4B1B1D1A6006E0884AA7
:103CF000121D12688243864B1B1D1A60704739B132
:103D0000834A0C3212680243814B0C331A6006E07E
:103D10007F4A0C32126882437D4B0C331A60704725
:103D200039B17B4A103212680243794B10331A6062
:103D300006E0774A103212688243754B10331A60DE
:103D4000704739B1724A243A12680243704B243BDF
:103D50001A6006E06E4A243A126882436C4B243B98
:103D60001A60704739B16A4A203A12680243684BB8
:103D7000203B1A6006E0664A203A12688243644B90
:103D8000203B1A60704739B1614A1C3A12680243FD
:103D90005F4B1C3B1A6006E05D4A1C3A1268824386
:103DA0005B4B1C3B1A60704739B1594A143A126890
:103DB0000243574B143B1A6006E0554A143A126806
:103DC0008243534B143B1A60704739B1504A103A42
:103DD000126802434E4B103B1A6006E04C4A103A00
:103DE000126882434A4B103B1A60704739B1484A07
:103DF0001C3212680243464B1C331A6006E0444AE8
:103E00001C3212688243424B1C331A60704739B12E
:103E10003F4A2032126802433D4B20331A6006E0CD
:103E20003B4A203212688243394B20331A60704774
:103E300039B1374A243212680243354B24331A60B1
:103E400006E0334A243212688243314B24331A602D
:103E5000704739B12E4A2C32126802432C4B2C3356
:103E60001A6006E02A4A2C3212688243284B2C330F
:103E70001A60704739B1264A303212680243244B27
:103E800030331A6006E0224A303212688243204BF7
:103E900030331A607047012808D11D493C31096848
:103EA00041F008011A4A3C32116007E018493C31E0
:103EB000096821F00801164A3C321160704739B197
:103EC000134A273A12780243114B273B1A7006E037
:103ED0000F4A273A127882430D4B273B1A707047DE
:103EE0000B484030006840F080700949403108605C
:103EF000704701460020064A283A12680A400AB173
:103F0000012000E000207047014926390870704701
:103F10003438024010B50446FA48844208D10121E1
:103F20001020FFF752FF00211020FFF74EFF57E04F
:103F3000F548844209D101214804FFF735FF0021EB
:103F40004FF40030FFF730FF4AE0F048844209D1D7
:103F500001218804FFF728FF00214FF48020FFF79C
:103F600023FF3DE0EA48844209D10121C804FFF75C
:103F70001BFF00214FF40020FFF716FF30E0E5485B
:103F8000844209D101210805FFF70EFF00214FF4FB
:103F90008010FFF709FF23E0DF48844208D10121A8
:103FA0002020FFF712FF00212020FFF70EFF17E06F
:103FB000DA48844209D101218807FFF7F5FE002184
:103FC0004FF08040FFF7F0FE0AE0D548844207D169
:103FD00001214005FFF7E8FE00216005FFF7E4FE40
:103FE00010BD2DE9FF4705460E460024A14600BF3F
:103FF000A046B08900B100BF2C8A24F44054F08858
:1040000004432C82AC8941F20C608443B08831892E
:104010000843718908430443AC81AC8A24F440749A
:10402000B0890443AC826846FFF74FFDB54885422E
:1040300002D0B948854202D1DDF80C9001E0DDF8EC
:104040000890A88900F4004040B109EBC90000EBDA
:10405000091031684900B0FBF1F707E009EBC9002E
:1040600000EB091031688900B0FBF1F76420B7FB61
:10407000F0F004012009642101FB1078A88900F404
:10408000004040B1322000EBC800B0FBF1F000F07E
:104090000700044308E0322000EB08106421B0FB65
:1040A000F1F000F00F0004432C81BDE8FF874FF4CE
:1040B0001651016000218180C18001810C21418164
:1040C00000218181704710B502460020108A20F43B
:1040D00070600B884C8823438C882343CC8823430F
:1040E0001843108210BD0021018041808180C18071
:1040F000704721B1828942F40052828104E08289B2
:104100004DF6FF731A4082817047028B02F47F42A2
:104110000283028B0A430283704721B1828942F4F1
:104120000042828103E08289C2F30E0282817047DD
:1041300021B1828A42F40062828204E0828A4FF2D4
:10414000FF731A4082827047C1F308028280704771
:1041500001468888C0F308007047028A4FF6F07362
:104160001A400282028A0A430282704721B1828980
:1041700042F00202828104E082894FF6FD731A4008
:104180008281704782894FF2FF731A40828182894F
:104190000A4382817047028A4FF6DF731A40028217
:1041A000028A0A430282704721B1028A42F48042A5
:1041B000028204E0028A4BF6FF731A4002827047C3
:1041C000818941F001018181704721B1828A42F0E9
:1041D0000802828204E0828A4FF6F7731A408282D4
:1041E0007047028BD2B20283028B42EA0122028321
:1041F000704721B1828A42F02002828204E0828AE2
:104200004FF6DF731A408282704721B1828A42F0F2
:104210001002828204E0828A4FF6EF731A40828293
:104220007047828A4FF6FB731A408282828A0A4361
:104230008282704721B1828A42F00202828204E0C7
:10424000828A4FF6FD731A40828270471AB1838AC0
:104250000B43838202E0838A8B4383827047F0B5ED
:104260000346002400260025002040F66A17B942C4
:1042700000D100BF1846C1F3421401F01F06012708
:1042800007FA06F5012C01D10C3004E0022C01D113
:10429000103000E014301AB107682F43076002E0C5
:1042A0000768AF430760F0BD02460020B1F5007F0C
:1042B00000D100BF13880B400BB1012000E00020AB
:1042C000704701F40072B2F5007F00D100BFCA430D
:1042D0000280704770B502460024002300250020AC
:1042E00040F66A16B14200D100BFC1F3421501F099
:1042F0001F03012606FA03F3012D13D196893340DB
:1043000017E0000000100140004400400048004059
:10431000004C004000500040001401400078004074
:10432000007C0040022D02D1168A334001E0968ABB
:1043300033400C12012606FA04F41688344013B1F7
:104340000CB1012000E0002070BD10B50022002358
:1043500040F66A14A14200D100BF0A120124944021
:10436000A3B2DC43048010BD30B943F2DB0281000C
:10437000A1F1C0410A6005E043F2D2028100A1F13F
:10438000C0410A606FF07042411C8900A1F1C04138
:104390000A608100A1F1C041C1F804217047D0E951
:1043A00001121143C268114302691143426911436A
:1043B00082691143C2691143026A1143426A11437F
:1043C000826A1143C26A1143026B11430268920070
:1043D000A2F1C0421160816808290BD101688900EF
:1043E000A1F1C041096841F0400201688900A1F1D2
:1043F000C0410A60416B0968426B526841EA021190
:10440000426B926841EA0221426B928941EA024181
:10441000426B128A41EA0251426B127D41EA02610B
:10442000426B926911430268521C9200A2F1C04291
:104430001160C16AB1F5804F1BD1816B0968826B35
:10444000526841EA0211826B926841EA0221826B52
:10445000128A41EA0251826B127D41EA0261826B4B
:104460009269114302689200A2F1C042C2F804119D
:1044700007E06FF0704201688900A1F1C041C1F806
:104480000421704700210160022141600021816008
:10449000C160016141618161C16101624FF480517C
:1044A0004162490081620021C1620163F8494163B0
:1044B0008163704751B18200A2F1C042126842F09C
:1044C00001038200A2F1C042136009E08200A2F160
:1044D000C0421268EF4B1A408300A3F1C0431A6038
:1044E000704710280AD118214FF020421166402150
:1044F00051664FF0FC319166D16610E01821E64A12
:10450000116040214FF02042C2F884104FF0FC317E
:10451000E14A083211604FF02042C2F88C10704717
:1045200030B5002100220023446844F00804856867
:104530002C43C5682C4305692C43456944EA45244E
:10454000856944EA4531C4692468C5696D6844EAEF
:104550000524C5692D8944EA0544C5692D7B44EAD3
:104560000562046A2468056A6D6844EA0524056AE0
:104570002D8944EA0544056A2D7B44EA05630468F5
:10458000102C05D14FF020442166A266E36608E0B6
:10459000C14C21604FF02044C4F88820BE4C0C343C
:1045A000236030BD10210160002141608160C16045
:1045B000016141618161FC21C2691160C269516080
:1045C000C2699160C269D160026A1160026A516079
:1045D000026A9160026AD160704799B1102808D1CF
:1045E0004FF02042126E42F004024FF020431A6650
:1045F0001DE0A94A126842F004024FF02043C3F8BC
:10460000802014E0102809D14FF02042126EA14BF7
:10461000DB1E1A404FF020431A6608E09E4A1268DB
:104620009C4BDB1E1A404FF02043C3F8802070479C
:1046300099B1102808D14FF02042126E42F040028A
:104640004FF020431A661DE0934A126842F0400280
:104650004FF02043C3F8802014E0102809D14FF018
:104660002042126E8B4B3F3B1A404FF020431A669C
:1046700008E0894A1268874B3F3B1A404FF02043BD
:10468000C3F88020704701460020102903D14FF065
:104690002042506F02E0804A1432106870471820A0
:1046A0007D492031086000200906C1F8A4004FF0C0
:1046B000FC30794928310860091D0860091D08602F
:1046C0007047016841F01001426841EA4221826866
:1046D00041EA4231704A20321160C1680968C268FB
:1046E000526841EA0221C268128941EA0241C26865
:1046F000127B41EA0261684A283211600169096847
:104700000269526841EA02210269128941EA0241C2
:104710000269127B41EA02615F4A2C3211604169F1
:1047200009684269526841EA02214269128941EAF4
:1047300002414269127B41EA02614FF02042C2F815
:10474000B01070470021016041608160FC21C268A7
:104750001160C2685160C2689160C268D16002692C
:10476000116002695160026991600269D160426919
:10477000116042695160426991604269D16070473D
:1047800048B145492031096841F004014FF0204209
:10479000C2F8A01009E04049203109683D4AD21E04
:1047A00011404FF02042C2F8A010704710B5F2B18E
:1047B000102807D14FF020435B6E0B434FF020448D
:1047C000636632E0B0F5807F08D1334B1B1D1B6858
:1047D0000B434FF02044C4F8843026E02E4B2433A2
:1047E0001B680B434FF02044C4F8A4301DE0102890
:1047F00007D14FF020435B6E8B434FF0204463663C
:1048000013E0B0F5807F08D1234B1B1D1B688B4341
:104810004FF02044C4F8843007E01F4B24331B685A
:104820008B434FF02044C4F8A43010BD10B50246AD
:1048300000200023102A03D14FF02044636E09E0CA
:10484000B2F5807F03D1144C241D236802E0124C82
:104850002434236803EA01040CB1012000E00020A5
:1048600010BD102807D14FF02042526E8A434FF0FE
:1048700020435A6619E0B0F5807F0FD1064A121D19
:1048800012688A434FF02043C3F884200DE00000F3
:10489000C8990008FEFF0F00800000A0234A12689C
:1048A0008A434FF02043C3F8A420704770B50246F6
:1048B0000020002300240025102A03D14FF02046B9
:1048C000736E08E0B2F5807F03D1184E203E336846
:1048D00001E0164E336803EA010403EAD10514B17E
:1048E0000DB1012000E0002070BD102808D14FF06C
:1048F0002042526E22EAD1024FF020435A6614E061
:10490000B0F5807F09D1094A203A126822EAD10223
:104910004FF02043C3F8842007E0044A126822EADB
:10492000D1024FF02043C3F8A4207047A40000A098
:10493000704710B5431C02E010F8011B71B18107EC
:10494000FAD14FF0013202C88C1A8C4314EAC2111A
:10495000F9D0C01A0A0603D0C01E10BDC01A10BD7F
:104960000A0401D0801E10BD0902FCD0401E10BDFB
:10497000704770477047704710B500F009F800683D
:1049800010BD10B5044600F003F8046010BD00002F
:104990000048704740010020004870474001002057
:1049A0007546FFF7F9FFAE4605006946534620F00D
:1049B0000700854618B020B5FEF7B2FDBDE82040DF
:1049C0004FF000064FF000074FF000084FF0000BCB
:1049D00021F00701AC46ACE8C009ACE8C009ACE87E
:1049E000C009ACE8C0098D46704710B50446AFF366
:1049F00000802046BDE81040FBF70FBC00B52DED50
:104A0000048BB0EE409AF0EE609A83B051EC190B33
:104A100000F044F941EC180B18EE100A18EE901A49
:104A20008DED008B002818BF0120084320F00040C6
:104A3000C0F17F6000F1E040C00F14D019EE101AF1
:104A400019EE900A8DED009B002918BF0121084343
:104A500020F00040C0F17F6000F1E040C00F04BFD3
:104A60000120FFF78EFFB0EE480A03B0F0EE680AAF
:104A7000BDEC048B00BD491058BFC1F140415B1033
:104A800058BFC3F140438B42EFF3008070470000F2
:104A90004FEA1153A3F58063D3F11E03A8BFD3F1EE
:104AA000200C08DB4FF0004242EAC12252EA505289
:104AB00032FA03F0704709420BD4102BC4BF002018
:104AC000704703F5787CBCF1FF3F05D04FF0FF3015
:104AD00070474FF00000704770B500F055F800BF08
:104AE0004992248000207047F0E7B0FA80F310FA72
:104AF00003F10AD0C3F11D0303F580634FEA41506F
:104B00004FEA035202EBD12170474FF0000070478B
:104B100051EA030C17D41CF5801F58BFBCF5801F49
:104B200000F10680994218BF704708BF9042704755
:104B300007D711F5801F58BF13F5801F19D499426C
:104B40007047894270471CF5801F08D5BCF5801F4F
:104B5000F7D58B4218BF704708BF824270474FF4A9
:104B6000001C1CEB410F38BF1CEB430F01D28B42E2
:104B7000704770B500F008F8922449004FF00051DA
:104B80004FF08053FFF777BF0EF1020E2EF0030EA9
:104B90005EF8046B364205D4012A43EB030515F594
:104BA000001F12D8012841EB010C1CF5001F0CD886
:104BB0000ED14FEAD17C15F5001F0CEB4C0C0CF11B
:104BC000020C08BF4CEBD37C04E04FF0080C01E072
:104BD0004FEAD37C0CEB4C0526FA05F606F00706E7
:104BE000B6F1040C06D20EEB860CBDE870404CF01A
:104BF000010C6047DFE80CF0090B02024FF00041A6
:104C00004FF00000A1F5002170BD194610460128A3
:104C100051EB010418BFD4F5001484BF002001F04B
:104C2000004170BD0808A0F500114FEA310170473E
:104C300053EA010C17D41CF5801F58BFBCF5801F28
:104C400000F106808B4218BF704708BF8242704750
:104C500007D713F5801F58BF11F5801F19D48B4259
:104C600070479B4270471CF5801F08D5BCF5801F1C
:104C7000F7D5994218BF704708BF904270474FF46C
:104C8000001C1CEB430F38BF1CEB410F01D29942B3
:104C900070470FB40CBC03BCFFF76BBF2DE9F041AC
:104CA00001F5801CBCF5001FC0F2A9804FEA115C21
:104CB00021EA0C510CF1FD0C41F480115FEA5C0C0F
:104CC0000CF5C07C01D34000494130A4890241EA7F
:104CD000905187028E0E0A0CA45D04FB04F602FBC1
:104CE00006F6C6F14046A4FB0662F60D46EA4226E9
:104CF00006FB06F4A4FB01235242C3F1404338BF34
:104D00005B1EA6FB02420024E6FB0324D20B42EA10
:104D10004446A6FB0623A1FB02E2A3FB07E4E3FB58
:104D200061426442C2F1404E38BFAEF1010EA6FBB3
:104D300004234FF00002E6FB0E32A2FB03463400D0
:104D4000E2FB6264A1FB06E6A4FB07E8E4FB616802
:104D50007642C8F1405838BFA8F10108A2FB06E42A
:104D6000A3FB08E5E2FB6854A1FB05E6A7FB04E80A
:104D7000E1FB648618F1200556F10006A809A8F1A8
:104D80001B08B10908F03F08B8F10A0F40EA866035
:104D90001CD901EB0C51BDE8F08100BFFCF5EEE839
:104DA000E2DDD8D3CFCBC7C3C0BDB9B6B4B1AEACCA
:104DB000A9A7A5A3A19F9D9B9A9896959392908F42
:104DC0008D8C8B898887868584838281A0FB00688F
:104DD00000FB01F208EB4208B8EB872807D534182E
:104DE00058EB0104D5D5401C51F10001D1E7341A2C
:104DF00078EB0104CDD4401E71F10001C9E75FEAF0
:104E00004C0C5FEA9C5C0DD105D34FF0000001F023
:104E10000041BDE8F081BDE8F04170B5FFF7B4FE98
:104E20006DDBFFBEBDE8F0414FF000000049704768
:104E30000000F87F43004FEAD30C4FEA3C0C43409C
:104E40001FBF40070CF1605113F0FE4F70471CF07C
:104E5000006F03D100200CF0004170470CF00043BC
:104E600043EA507010B540EACC0000F00EF800BFE5
:104E7000000000924FEA0001FFF7D4BE4FF000415E
:104E80004FF00000A1F5002170470EF1020E2EF048
:104E9000030E5EF8044B244204D44FEA4102B2F1FF
:104EA0007F4F11D84FEA4003B3F17F4F0CD80ED19A
:104EB0004FEAD07CB2F17F4F0CEB4C0C0CF1020CA2
:104EC00008BF4CEBD17C04E04FF0080C01E04FEA46
:104ED000D17C0CEB4C0324FA03F404F00704B4F186
:104EE000040C06D20EEB840CBDE810404CF0010C13
:104EF0006047DFE80CF0070802024FF00040A0F521
:104F0000800010BD0846420018BFD2F1807288BFF1
:104F100000F0004010BD4FF04070E1EE100A704705
:104F2000FFFFFFFFFFFFFFFFFFFFFFFFFFFFFFFF91
:104F3000FFFFFFFFFFFFFFFFFFFFFFFFFFFFF7BECA
:104F4000FFFFFFDEC6388C926B8E6B6E7C10AD96C9
:104F5000E73CFFFFFFFFFFFFFFFFFFFFFFFFFFFF3C
:104F6000FFFFFFFFFFFFFFFFFFFFFFFFFFFFFFFF51
:104F7000FFFFFFFFFFFFFFFFFFFFFFFFFFFFFFFF41
:104F8000FFFFFFFFFFFFFFFFFFFFFFFFFFFFEF5DE3
:104F90009D15634F426C320A29881946192521450F
:104FA00031E86B8EC638FFFFFFFFFFFFFFFFFFFFFB
:104FB000FFFFFFFFFFFFFFFFFFFFFFFFFFFFFFFF01
:104FC000FFFFFFFFFFFFFFFFFFFFFFFFFFFFFFFFF1
:104FD000FFFFFFFFFFFFFFFFFFFFFFFFA53653109F
:104FE0004B1053514B0F3A6C31E92167192510E4EE
:104FF00008A30062088352CBD69AFFFFFFFFFFFF92
:10500000FFFFFFFFFFFFFFFFFFFFFFFFFFFFFFFFB0
:10501000FFFFFFFFFFFFFFFFFFFFFFFFFFFFFFFFA0
:10502000FFFFFFFFFFFFFFFFE73C637063B37CB848
:1050300063F54311324D29EA21881926190519050E
:105040001104110410E4008308A38C72FFFFFFFF1A
:10505000FFFFFFFFFFFFFFFFFFFFFFFFFFFFFFFF60
:10506000FFFFFFFFFFFFFFFFFFFFFFFFFFFFFFFF50
:10507000FFFFFFFFFFFFDEDB3A4B42F06C354B5486
:1050800032B12A2E21EB21A9196719051104110447
:10509000110411041104190510E4004273AFFFFF5D
:1050A000FFFFFFFFFFFFFFFFFFFFFFFFFFFFFFFF10
:1050B000FFFFFFFFFFFFFFFFFFFFFFFFFFFFFFFF00
:1050C000FFFFFFFFEF5D3209324C4B10328F2A4F4A
:1050D0002A2E19CC1989218919471905110411049F
:1050E00010C410C411041104110410E400428431EE
:1050F000FFFFFFFFFFFFFFFFFFFFFFFFFFFFFFFFC0
:10510000FFFFFFFFFFFFFFFFFFFFFFFFFFFFFFFFAF
:10511000FFFFFFFF52EC1947324C2A0B21EC21EC28
:10512000220C5B914AEE11061926190410E410E4D2
:1051300029A7216608A319051104110410E40082AF
:10514000BDF7FFFFFFFFFFFFFFFFFFFFFFFFFFFFB9
:10515000FFFFFFFFFFFFFFFFFFFFFFFFFFFFFFFF5F
:10516000FFFFA535088321882188218921AA218A6A
:10517000426B8C71FFFF8C720883110408C44229B2
:10518000DEFBEF5D5AEC088311041104110408835F
:1051900031E8FFDFFFFFFFFFFFFFFFFFFFFFFFFF24
:1051A000FFFFFFFFFFFFFFFFFFFFFFFFFFFFFFFF0F
:1051B000F7BE31C710C4192519261947194729A860
:1051C000528A4A28AD55FFFF31E808A319056B4DF7
:1051D0006B4DFFFFEF7D214510C411041104110434
:1051E0000062AD76FFFFFFFFFFFFFFFFFFFFFFFF46
:1051F000FFFFFFFFFFFFFFFFFFFFFFFFFFFFFFFFBF
:10520000B5960062110419041105190508C44A8BEA
:10521000B5B6EF5DBDF7FFFF6B8E006242295AAA5B
:105220004208FFFFFFFF52CC088311041104110450
:1052300008A352ADFFFFFFFFFFFFFFFFFFFFFFFFD0
:10524000FFFFFFFFFFFFE71CFFFFFFFFFFFFFFFF69
:10525000634E006211041104110410E40062638EB5
:10526000FFFFFFFFFFFFFFFF73CF00019CF3632CE5
:10527000B596FFFFFFFF5B2D00831104110411049D
:1052800010E42167EF3DFFFFFFFFFFFFFFFFFFFF80
:10529000BDF8B5B7EF9E52CB94B3FFFFFFFFFFDF22
:1052A00031E808A3110411041104110408A34249B0
:1052B000F7FFF7FFFFFFFFFF4A6A00018472FFFF5D
:1052C000FFFFF7FFEFDF3A0908A3110411041104EF
:1052D00011041105BE18FFFFFFFFFFFFFFFFFFFFD7
:1052E0007BF0006231E831C70041A535FFFFEF5D7B
:1052F000214610C4110411041104110410E408A380
:105300009D76F7FFFFFFADB708A308A331C7E79E5F
:10531000F7FFF7FFA57608A310E4110411041104A8
:1053200011051105A535FFFFFFFFFFFFFFFFFFFF81
:10533000DEDB29A7008310C410C410C4E71CEF9E55
:10534000110510E41104110411041104190408C416
:1053500010E56BD16BD108C5006408A50043322B62
:105360009D7784B3192510C411041104110411048C
:10537000192509269D35FFFFFFFFFFFFFFFFFFFFF8
:10538000FFFF73AF00621904190500825B0D9B8E4D
:105390001062110511041104190410E400851105AF
:1053A00039C45A817B409C22AC43A4039B83728204
:1053B000498218C200A400C510E41904110419059B
:1053C000194711675AECFFBEFFFFFFFFFFFFFFFF0A
:1053D000FFDFDEDB10C410E41104110518A4C001C6
:1053E000888300E41905190408C521448343D523A3
:1053F000FE42FEE4FF27FF07FEA4FE64FE03FDA3BA
:10540000FCE2EC42B383622410E508C419041926B7
:1054100019A821879000BCD3FFFFFFFFFFFFFFFF0C
:10542000FFDFFFFF7C100042190511052883D00122
:10543000F84448A300E408C55A44ED02FDE2FE0228
:10544000FE66FF74FFB8FF73F6E7F6A6F645F5A40F
:10545000FCC3FC62FCC2FCC2CBE349C41106198840
:10546000018790A4F8019AECFFFFFFFFFFFFFFFF09
:10547000FFFFFFFFF7BE31E8008309054082C0014E
:10548000F823F08548A300A45A44FD02CC23DCC2D3
:10549000FE04FE28F648F646F624F5E4FD64FCE337
:1054A000FC62FCC2E402DC02FCE27AA4014801676F
:1054B00078C4F824F802B084E77DFFFFFFFFFFFF08
:1054C000FFFFFFFFFFFFDEDB192500A338C4E0026A
:1054D000D822F844F8A678A4006321437283398364
:1054E0009B82F521FD61FD22FCE2FCA2FC42FC4214
:1054F000FC42AB22418392C352040126192598A491
:10550000F844F823F802D0A4EF9EFFFFFFFFFFFF4F
:10551000FFFFFFFFFFFFFFFFD69A298700A5B843D3
:10552000F822E023F865F8E8C9074883004200A3A1
:10553000008429637AA2B362CBA2D362BB028A82BF
:10554000398300A400E500E508E560C4D864F844A8
:10555000F824F823F8028883C6DBFFFFFFFFFFFF74
:10556000FFFFFFFFFFFFFFFFFFFFE73D5B5031083D
:10557000E823F843F044F865F909F9ABD1898906C5
:1055800048A31842000200420061008200620062EB
:10559000008320A350C488A5D885F865F844F84452
:1055A000F823F823D003108229C7EF5DFFFFFFFF28
:1055B000FFFFFFFFFFFFFFFFFFFFFFFFFFFF326C5B
:1055C00038A5D802F823F865F866F8A7F94AFA0C66
:1055D000FA4DEA4CD20BB9A9B168A947B127B9076E
:1055E000D107E8E7F8C7F8A7F865F865F844F823A5
:1055F000F803D00228A3090508C45AECFFFFFFFFF7
:10560000FFFFFFFFFFFFFFFFFFFFFFFFDEFB1905AF
:1056100000C441A7C0E6F803F886F8A7F887F88623
:10562000F8C7F929F98AF9ABF9ABF98BF96AF929C5
:10563000F908F8C7F8A6F886F865F864F823F002C8
:10564000B106292500E410E4192519259D14FFFF52
:10565000FFFFFFFFFFFFFFFFFFFFFFFFAD960062B1
:1056600008829535CEBAA28BD044F825F887F8A7E2
:10567000F8C7F8A7F887F886F886F886F887F8A7B5
:10568000F8A7F8A6F885F865F864F024B864930DD7
:10569000B6BB63CF0883110410E421663A49EF5D7D
:1056A000FFFFFFFFFFFFFFFFFFFFFFFF94D300425D
:1056B00010E4CEBBFFFFE7BEB576AACCC107E0453C
:1056C000F845F846F866F886F886F886F886F865AC
:1056D000F845F865E865D044A84388019082D73C36
:1056E000EFFF95550883110411041905194694B369
:1056F000FFFFFFFFFFFFFFFFFFFFFFFF94B300412E
:105700002186DF5DFFFFFFFFFFFFE7DFC67AB4D32F
:10571000B34EC22AD168E0E6E8A6E8A5E8A5D8E637
:10572000C988A906A822A802A000C800D800E5F7E9
:10573000E7FFADF810C410E4110410E411054A8B22
:10574000FFFFFFFFFFFFFFFFFFFFFFFFA55500412A
:1057500029A7DF5DF7FFFFFFFFFFFFFFFFFFFFFF51
:10576000EFFFDF7DCEDBCE59CDF8CDD7C5F7CE79B3
:10577000BEFBA2ABF003F845D042E843F000D47280
:10578000DFFFAE3910E410E4110410E4110529879D
:10579000FFFFFFFFFFFFFFFFFFFFFFFFCE59088363
:1057A0002146D71CF7FFFFFFFFFFFFFFFFFFFFFFB3
:1057B000FFFFFFFFFFFFFFFFFFFFFFFFFFFFFFFFF9
:1057C000EFFFBA8BF804F845E062F044F800DB8E96
:1057D000DFFFA5F810C410E410E4110410E419254B
:1057E000FFFFFFFFFFFFFFFFFFFFFFFFF7BE298760
:1057F0000883B639F7FFF7DFFFFFFFFFFFFFFFFF6B
:10580000FFFFFFFFFFFFFFFFFFFFFFFFFFFFFFFFA8
:10581000E7BEBA4AF803F845F864F844F800E36EC6
:10582000D7FF8CF40883110410E410E410E4190588
:10583000FFFFFFFFFFFFFFFFFFFFFFFFFFFF73EF14
:1058400000008472EFFFEFBEFFDFFFFFFFFFFFFFEF
:10585000FFFFFFFFFFFFFFFFFFFFFFFFFFFFFFFF58
:10586000E7DFBA8BF803F845F845F823F800D4D3FE
:10587000D7FF5B4E00213A29A555088310C419258E
:10588000FFFFFFFFFFFFFFFFFFFFFFFFFFFFDEFB4D
:1058900008A331E8DF9EE79EEFBFFFFFFFFFFFFF9A
:1058A000FFFFFFFFFFFFFFFFFFFFFFFFFFFFFFFF08
:1058B000F7FFBC51E002F803F003E043C2ECCF7EF7
:1058C000BEFC2146002194D3FFFF845100002987AC
:1058D000FFFFFFFFFFFFFFFFFFFFFFFFFFFFFFFFD8
:1058E000845100008CF4EFFFE79EEFBFFFDFFFFF66
:1058F000FFFFFFFFFFFFFFFFFFFFFFFFFFFFFFFFB8
:10590000FFFFDF3DBD55BC52BC72B5B7C75DDFFFC1
:105910006BF000003A09F7BFFFFFFFFF9D14A5558C
:10592000FFFFFFFFFFFFFFFFFFFFFFFFFFFFFFFF87
:10593000FFFF4AAC08A4BEBBE7DFE77EEFBEF7DFA0
:10594000FFDFFFFFFFFFFFFFFFFFFFFFFFFFFFFF87
:10595000FFDFF7DFEFFFDFDFD7BFD79EDFDFA5D8A1
:1059600008831126D6DBFFFFFFFFFFFFFFFFFFFFCE
:10597000FFFFFFFFFFFFFFFFFFFFFFFFFFFFFFFF37
:10598000EE79DC8B312121A9CF3DDFBFDF7EE79EA1
:10599000EFBEEFBFF7DFF7DFF7DFF7DFF7DFEFBFD0
:1059A000EFBEE79EDF7ED75ED75EDFDFB69A1926B1
:1059B0000842A3EDFFBFFFFFFFFFFFFFFFFFFFFF59
:1059C000FFFFFFFFFFFFFFFFFFFFFFFFFFFFDD7494
:1059D000DBC0FE00EE4242022189B67BDFDFD77ECC
:1059E000DF7EDF7EE79EE79EE79EE79EE79EDF7E07
:1059F000DF7ED75DD75DDF9EE7FFA5F8110718E3CF
:105A0000C502FD60D3E6EEDBFFFFFFFFFFFFFFFFF8
:105A1000FFFFFFFFFFFFFFFFFFFFFFFFF79EBA84BF
:105A2000FCC1FE42FE82FEA2838121457474C75EE2
:105A3000DFDFD77ED75ED75DD75ED75ED75DD75D18
:105A4000D75EDF9EE7FFC73D63F108845242E6263A
:105A5000FF29FE86F3E0C36AFFFFFFFFFFFFFFFFA2
:105A6000FFFFFFFFFFFFFFFFFFFFFFFFDE18D2C1B9
:105A7000FDA2FE22FE42FE42FE62D4E26A4142499B
:105A80007453A63BC73ED7BFD7BFD7BFDFBFD7BF73
:105A9000C73EA61A63F229A74182B422FE62FE83A2
:105AA000FEAAFF0FFD67BA63EF3CFFFFFFFFFFFF9A
:105AB000FFFFFFFFFFFFFFFFFFFFFFFFE69AD28020
:105AC000FD21FDC2F5E2F5C2F582FD82FD62DC61D9
:105AD0009B216A846AE9632C63AF7411636E632C43
