:020000040800F2
:10000000A8070020CD010008291A0008810900086E
:10001000251A0008CF030008BB33000800000000C9
:10002000000000000000000000000000811C00082B
:10003000C5040008000000009D1A0008D51E000835
:10004000E7010008E7010008E7010008E7010008F0
:10005000E7010008E7010008E7010008E7010008E0
:10006000E7010008E7010008E7010008E7010008D0
:10007000E7010008E7010008E7010008E7010008C0
:10008000E7010008E7010008E7010008E7010008B0
:10009000E7010008E7010008E7010008E7010008A0
:1000A000E7010008E7010008E7010008E701000890
:1000B000E7010008E7010008E7010008E701000880
:1000C000E7010008E7010008E7010008E701000870
:1000D000E701000899310008E7010008E70100087E
:1000E000E7010008E7010008E7010008E701000850
:1000F000E7010008E7010008E7010008E701000840
:10010000E7010008E7010008E7010008E70100082F
:10011000E7010008E7010008E7010008E70100081F
:10012000E7010008E7010008E7010008E70100080F
:1001300000F002F800F03AF80AA090E8000C8244BF
:100140008344AAF10107DA4501D100F02FF8AFF29C
:10015000090EBAE80F0013F0010F18BFFB1A43F0A5
:1001600001031847008B0000208B0000103A24BFC9
:1001700078C878C1FAD8520724BF30C830C144BF0C
:1001800004680C607047000000230024002500264E
:10019000103A28BF78C1FBD8520728BF30C148BFEA
:1001A0000B6070471FB51FBD10B510BD00F066F89D
:1001B0001146FFF7F7FF03F002FA00F084F803B4EA
:1001C000FFF7F2FF03BC03F03CF900000948804749
:1001D00009480047FEE7FEE7FEE7FEE7FEE7FEE729
:1001E000FEE7FEE7FEE7FEE704480549054A064B41
:1001F00070470000D91E000831010008A801002046
:10020000A8070020A8030020A8030020704710B50D
:10021000431C02E010F8011B71B18107FAD14FF0C5
:10022000013202C88C1A8C4314EAC211F9D0C01AE8
:100230000A0603D0C01E10BDC01A10BD0A0401D0AA
:10024000801E10BD0902FCD0401E10BD70477047D3
:100250007047704710B500F009F8006810BD10B580
:10026000044600F003F8046010BD00000048704729
:100270004401002000487047440100207546FFF704
:10028000F9FFAE4605006946534620F00700854653
:1002900018B020B5FFF7A8FFBDE820404FF00006DA
:1002A0004FF000074FF000084FF0000B21F007015E
:1002B000AC46ACE8C009ACE8C009ACE8C009ACE8A1
:1002C000C0098D46704710B50446AFF30080204644
:1002D000BDE81040FFF773BF10B500F07BFB10BD09
:1002E00070B506460C46154608E03046721C96B2BC
:1002F00000F007F804F8010B681E85B2002DF4D158
:1003000070BD70B50446002600F018FC2546E117C4
:1003100004EB11610912A02202EB4101C8B200F006
:10032000D3FB00F057FCE11704EB11610912A4EBB9
:100330000121C8B200F0C8FB00F04CFC00F0FEFB4D
:10034000A12000F0C1FB00F045FC002000F084FB80
:10035000064600F019FC304670BD70B505460C46E7
:10036000164606E02178284600F009F8681C85B298
:10037000641C301EA6F101018EB2F3D170BD70B5C0
:1003800004460E4600F0DAFB2546E11704EB116146
:100390000912A02202EB4101C8B200F095FB00F067
:1003A00019FCE11704EB11610912A4EB0121C8B299
:1003B00000F08AFB00F00EFC304600F085FB00F0F8
:1003C00009FC00F0E1FB0A2003F060F870BD00BFFB
:1003D000FEE700000EB51EA000F076F80020102108
:1003E0004FF6E0721F23CDE9002102901DA21E21CD
:1003F0000A2001F0D5FC012010214FF6E0721F23E6
:10040000CDE90021029020A232210A2001F0C8FC8F
:10041000012018214FF6E0721F23CDE90021029040
:100420001EA246210A2001F0BBFC012020214FF62C
:10043000E0721F23CDE9002102901DA264210A2051
:1004400001F0AEFC4FF4966003F020F80EBD000002
:10045000B2E2CAD4353AD6D0CEC4CFD4CABEB2E204
:10046000CAD4000031365831363AD6D0BEB0D4B0F6
:10047000B5E7D7D3BCBCCAF5D3D0CFDEB9ABCBBEC2
:10048000BBB6D3ADC4FA000031365831363A5765A1
:100490006C636F6D65D6D0BEB0D4B00032345832C4
:1004A000343A57656C636F6D65D6D0BEB0D4B0007A
:1004B00033325833323A57656C636F6D65D6D0BEB0
:1004C000B0D4B000704700003EB504461F20009035
:1004D0001D48028814230021084600F0D6FC1F2086
:1004E00000901948438802884088143881B200205F
:1004F00000F0CBFC012010211F224FF6FF73CDE945
:100500000021029022460221002000F013FA01206F
:1005100010211F22CDE9002102900B48408812389B
:1005200081B24FF6FF7309A2002000F003FA002009
:10053000009005484088143883B20348028814218B
:10054000002000F0A2FC3EBD1E000020D6D0BEB0B0
:10055000D4B0B0E6C8A8CBF9D3D020002DE9F04341
:1005600006460F46904699460025444641E07A1BD0
:1005700091B2321B90B24A4600F0FEFB7A1B91B258
:10058000321990B24A4600F0F7FB3A1991B2721B49
:1005900090B24A4600F0F0FB3A1B91B2721B90B247
:1005A0004A4600F0E9FB7A1991B2321990B24A46F4
:1005B00000F0E2FB3A1B91B2721990B24A4600F089
:1005C000DBFB3A1991B2721990B24A4600F0D4FBA3
:1005D0007A1991B2321B90B24A4600F0CDFB6D1CE5
:1005E00005FB05F004FB040108FB08F0814200DD77
:1005F000641EA542BBDDBDE8F08300000EB516A069
:10060000FFF762FF002010211F22D302CDE9002155
:10061000029016A228210A2001F0C2FB012010211D
:100620001F22D302CDE9002102901BA246210A20FD
:1006300001F0B6FB002010211F22D302CDE90021DA
:10064000029020A264210A2001F0AAFB4FF49660D8
:1006500002F01CFF0EBD0000B2E2CAD4343AD3A2AD
:10066000CEC4CFD4CABEB2E2CAD4000038583136A4
:100670003A6162636465666768696A6B6C6D6E6F28
:10068000707172737475767778797A303132333469
:100690003536373839000000385831363A41424350
:1006A0004445464748494A4B4C4D4E4F5051525392
:1006B0005455565758595A30313233343536373805
:1006C00039000000385831363A7E21402324255E17
:1006D000262A28295F2B7B7D3A3C3E3F2F7C2D2B01
:1006E0002E00000051B18200A2F1C042126842F017
:1006F00001038200A2F1C042136009E08200A2F16E
:10070000C0421268034B1A408300A3F1C0431A6031
:1007100070470000FEFF0F00D0E901121143C268CC
:100720001143026911434269114382691143C2694D
:100730001143026A1143426A1143826A1143C26A39
:100740001143026B114302689200A2F1C042116092
:10075000816808290BD101688900A1F1C0410968AD
:1007600041F0400201688900A1F1C0410A60416B7B
:100770000968426B526841EA0211426B926841EA91
:100780000221426B928941EA0241426B128A41EA9C
:100790000251426B127D41EA0261426B9269114340
:1007A0000268521C9200A2F1C0421160C16AB1F508
:1007B000804F1BD1816B0968826B526841EA02113C
:1007C000826B926841EA0221826B128A41EA0251ED
:1007D000826B127D41EA0261826B92691143026869
:1007E0009200A2F1C042C2F8041107E06FF070421B
:1007F00001688900A1F1C041C1F8042170472DE9C9
:10080000F041024600250026002000230024002796
:1008100091F803C00CF00F0591F803C00CF0100C18
:10082000BCF1000F03D091F802C04CEA050591F825
:1008300000C0BCF1000F31D0146800202BE04FF055
:10084000010C0CFA00F3B1F800C00CEA03069E425A
:1008500020D183004FF00F0C0CFA03F7BC4305FACC
:1008600003FC4CEA040491F803C0BCF1280F06D144
:100870004FF0010C0CFA00FCC2F814C00AE091F829
:1008800003C0BCF1480F05D14FF0010C0CFA00FC7D
:10089000C2F810C0401C0828D1D31460B1F800C0C1
:1008A000BCF1FF0F34DD546800202EE000F1080C8D
:1008B0004FF0010808FA0CF3B1F800C00CEA030687
:1008C0009E4221D183004FF00F0C0CFA03F7BC437A
:1008D00005FA03FC4CEA040491F803C0BCF1280FAC
:1008E00005D100F1080C08FA0CF8C2F8148091F850
:1008F00003C0BCF1480F07D100F1080C4FF001080C
:1009000008FA0CF8C2F81080401C0828CED35460B6
:10091000BDE8F0810161704770B504460D4616468A
:100920002B4622462946204600F086F9304601F043
:100930006DF870BD2DE9FF4F83B004460F46154694
:10094000DDE9119ADDF840802846FFF760FC86B2A9
:100950000A490988A1EBC60000EBD071C1F34F0B27
:1009600004EB0B0188B28DE800072A463946069B46
:1009700001F016FA07B0BDE8F08F00001E0000205D
:1009800000BFFEE710B500200F4908600F4800685F
:1009900020F070400D4908600846006840F0405063
:1009A000086000200A49C1F89C01022002F094FD71
:1009B000012005490860022002F08EFD0020044954
:1009C000C1F8980110BD000098812142000C01403F
:1009D0000080214208B50121082001F0D7F8C0208D
:1009E000ADF8000010208DF8030003208DF8020000
:1009F00069460448FFF703FFC0210248FFF78AFF5A
:100A000008BD0000000C014010B500200F4908602F
:100A10000F48006820F070400D49086008460068E3
:100A200040F04050086001200A49C1F89C010220B2
:100A300002F052FD012005490860022002F04CFD41
:100A400000200449C1F8980110BD0000988121429E
:100A5000000C01400080214270B505460024174873
:100A6000006820F07040154908600846006840F0B2
:100A700000400860002616E00020114908600220AE
:100A800002F02AFD01200F49C1F898016006040E0A
:100A90000B487C38006808B1601CC4B2012002F029
:100AA0001BFD701CC6B2082EE6DB15B9FFF7ACFFC4
:100AB00001E0FFF767FF204670BD0000000C014019
:100AC000988121420080214270B504461848006890
:100AD00020F07040164908600846006840F0405019
:100AE000086000201349086000251EE0E00920B1DD
:100AF00001201049091D086003E000200D49091D6F
:100B000008606006040E022002F0E6FC012009499C
:100B10000860022002F0E0FC00200749C1F89801BB
:100B2000022002F0D9FC681CC5B2082DDEDB70BDC6
:100B3000000C0140988121420080214210B50F48ED
:100B4000006820F070400D4908600846006840F0D9
:100B50004050086001200A4908600A49C1F898011C
:100B6000042002F0B9FC002005490860042002F0CE
:100B7000B3FC00200349C1F8980110BD000C0140EE
:100B80009C8121420080214210B50F48006820F06E
:100B900070400D4908600846006840F04050086009
:100BA00000200A4908600A49C1F89C01042002F0AB
:100BB00093FC0120054908600549C1F89C01042007
:100BC00002F08AFC10BD0000000C01409881214217
:100BD0000080214210B500241448006820F07040C5
:100BE000124908600846006840F000400860012093
:100BF0000F49086002F070FC01200E49C1F898010D
:100C000002F06AFC07E0601CC4B2FA2C03DDFFF7B7
:100C1000BBFF012010BD0648803800680028F2D1D3
:100C20000349091F086000BFF4E70000000C014001
:100C30009C8121420080214230B504460D462A2085
:100C400000F0EAFE201200F0E1FEE0B200F0DEFE6D
:100C5000101200F0DBFED0B200F0D8FE2B2000F026
:100C6000DBFE281200F0D2FEE8B200F0CFFE181230
:100C700000F0CCFED8B200F0C9FE2C2000F0CCFE73
:100C800030BD000070B506460F484088401E83B254
:100C90000D480088401E82B200210846FFF7CCFFB5
:100CA00000240CE0002504E0304600F0AFFE681C94
:100CB00085B205484088A842F6DC601C84B2024830
:100CC0000088A042EEDC70BD1E0000202DE9FF4F21
:100CD00084B081468A460020029083460698A0EBA5
:100CE00009050798A0EB0A06CDF80490CDF800A0FE
:100CF000002D01DD012705E00DB9002702E04FF0CE
:100D0000FF376D42002E02DD4FF0010806E016B9F4
:100D10004FF0000802E04FF0FF387642B54201DDA7
:100D20002C4600E03446002003901EE0009A91B269
:100D3000019A90B2119A00F01FF80298284402908C
:100D4000B3440298A04205DD0298001B029001986E
:100D500038440190A34504DDABEB040B00984044FC
:100D600000900398401C80B20390611C0398884255
:100D7000DCDB08B0BDE8F08F70B504460D461646C2
:100D80002B46224629462046FFF756FF304600F004
:100D90003DFE70BD2DE9F84105460E4617469846C2
:100DA000079C33463A46314628460094FFF78EFFAB
:100DB00043462A46314628460094FFF787FF4346BC
:100DC0003A46414628460094FFF780FF43463A469C
:100DD000314638460094FFF779FFBDE8F8812DE9E8
:100DE000FF4F85B081468A460020039083460798CE
:100DF000A0EB09050898A0EB0A06CDF80890CDF8FD
:100E000004A0002D01DD012705E00DB9002702E057
:100E10004FF0FF376D42002E02DD4FF0010806E073
:100E200016B94FF0000802E04FF0FF387642B542A5
:100E300001DD2C4600E03446002004901EE0019ABB
:100E400091B2029A90B2129A01F06EFC0398284473
:100E50000390B3440398A04205DD0398001B039060
:100E6000029838440290A34504DDABEB040B0198D3
:100E7000404401900498401C80B20490611C049886
:100E80008842DCDB09B0BDE8F08F2DE9F04706466B
:100E90000F4614461D46DDF820A0681E83B2601E72
:100EA00082B239463046FFF7C7FEB8460EE0B1467B
:100EB00006E0504600F0AAFD09F101001FFA80F992
:100EC000A145F6DB08F101001FFA80F8A845EEDB2A
:100ED000BDE8F08700B59FB00121080200F046FE92
:100EE00001214FF4B47000F051FE0120ADF87800FC
:100EF00010208DF87B0003208DF87A001EA9D048C1
:100F0000FFF77DFC4CF23370ADF8780018208DF8B7
:100F10007B0003208DF87A001EA9CA48FFF76FFCFA
:100F20004FF68070ADF8780018208DF87B00032014
:100F30008DF87A001EA9C448FFF761FC41F2010058
:100F4000ADF8780018208DF87B0003208DF87A002A
:100F50001EA9BE48FFF753FC01200890002009900D
:100F60000F200A9000200B900C900D900E90019095
:100F700002900320039000200490059006900790B3
:100F800006200F9000201090119010201290002049
:100F9000139015901490169017904FF4805018905D
:100FA000002019904FF480401A9000201B9008A850
:100FB0001C9001A81D900FA8FFF7AEFB0121062091
:100FC000FFF790FB322002F061FA602000F0CEFEC5
:100FD000D32000F021FD00F03FF99D49888000F00A
:100FE0003BF99B49888000F037F999498880084689
:100FF00080884FF6FF7101EA00209549888000F053
:101000002BF993498988084391498880CF2000F0C3
:1010100003FD002000F0FAFCC12000F0F7FC3020B6
:1010200000F0F4FCED2000F0F7FC642000F0EEFC92
:10103000032000F0EBFC122000F0E8FC812000F01F
:10104000E5FCE82000F0E8FC852000F0DFFC102043
:1010500000F0DCFC7A2000F0D9FCCB2000F0DCFCB6
:10106000392000F0D3FC2C2000F0D0FC002000F050
:10107000CDFC342000F0CAFC022000F0C7FCF720B1
:1010800000F0CAFC202000F0C1FCEA2000F0C4FC03
:10109000002000F0BBFC002000F0B8FCC02000F0F5
:1010A000BBFC1B2000F0B2FCC12000F0B5FC01200D
:1010B00000F0ACFCC52000F0AFFC302000F0A6FC36
:1010C000302000F0A3FCC72000F0A6FCB72000F001
:1010D0009DFC362000F0A0FC682000F097FC3A2030
:1010E00000F09AFC552000F091FCB12000F094FC37
:1010F000002000F08BFC1A2000F088FCB62000F0E5
:101100008BFC0A2000F082FCA22000F07FFCF22081
:1011100000F082FC002000F079FC262000F07CFC2E
:10112000012000F073FCE02000F076FC0F2000F0BE
:101130006DFC2A2000F06AFC282000F067FC0820E3
:1011400000F064FC0E2000F061FC082000F05EFC62
:10115000542000F05BFCA92000F058FC432000F074
:1011600055FC0A2000F052FC0F2000F04FFC00203C
:1011700000F04CFC002000F049FC002000F046FC90
:10118000002000F043FCE12000F046FC002000F0CD
:101190003DFC152000F03AFC172000F037FC07203A
:1011A00000F034FC112000F031FC062000F02EFC91
:1011B0002B2000F02BFC562000F028FC3C2000F0F7
:1011C00025FC052000F022FC102000F01FFC0F2061
:1011D00000F01CFC3F2000F019FC3F2000F016FC42
:1011E0000F2000F013FC2B2000F016FC002000F074
:1011F0000DFC002000F00AFC012000F007FC3F205D
:1012000000F004FC2A2000F007FC002000F0FEFBA8
:10121000002000F0FBFB002000F0F8FBEF2000F0C6
:10122000F5FB112000F0F8FB782002F02FF92920BF
:1012300000F0F2FB0120074908601FB000BD00006C
:10124000000C014000140140001801400020014042
:101250001E0000208081214208B5034800880090CC
:10126000BDF8000008BD00000008006C2DE9FF4F2C
:1012700080468A4617469B460E9D00200290CDF878
:101280000080284605EBD071C1F347042046E217E1
:1012900004EB5272D2102146E31704EB5373DB10B8
:1012A000A4EBC3030BB1012300E000231A446A43FB
:1012B00092B20192A7F12000C7B20AEB0500401ECE
:1012C00083B208EB0400401E82B251464046FFF74D
:1012D000B3FC002669E00C2D07D107EB4700354928
:1012E00001EB8000805D03901BE0102D05D132489A
:1012F00000EB0710805D039013E0182D07D107EB7A
:1013000047002E4901EB0010805D039009E0202D7D
:1013100005D12B4800EB8710805D039001E0BDE80C
:10132000FF8F4FF000093AE00F98C8B9012000FA8A
:1013300009F00399084018B1584600F067FB02E035
:101340000D9800F063FB0298401CC0B20290029816
:1013500090FBF4F104FB1100E8B90020029021E0B9
:10136000012000FA09F00399084020B15A4651467D
:101370004046FFF701FD08F101001FFA80F80098D0
:10138000A8EB0000A04206D1DDF800800AF10100C0
:101390001FFA80FA06E009F1010000F0FF09B9F137
:1013A000080FC1DB00BF701C86B20198864292DB39
:1013B00000BFB4E73A4E0008AE5200089E5800083D
:1013C0006E6A00082DE9FF4F0646894692469B4605
:1013D0000E9C0020039000962046E21704EB527208
:1013E000D2102146E31704EB5373DB10A4EBC303C5
:1013F0000BB1012300E000231A44624392B2019230
:1014000005200290002579E005EB850000EBC50082
:101410003D4911F810009AF8001088426BD105EB95
:10142000850000EBC500384901EB400040789AF890
:10143000011088425FD109EB0400401E83B23019CD
:10144000401E82B249463046FFF7F6FB00274FE0C8
:101450004FF0000846E00F9808BB05EB850000EB55
:10146000C500294901EB4000801CC05D012101FA43
:1014700008F1084018B1584600F0C8FA02E00D988B
:1014800000F0C4FA0398401CC0B20390039890FB8C
:10149000F4F104FB110008BB0020039025E005EBEC
:1014A000850000EBC500184901EB4000801CC05DC1
:1014B000012101FA08F1084020B15A464946304658
:1014C000FFF75AFC701C86B20098301AA04205D172
:1014D000009E09F101001FFA80F906E008F1010001
:1014E00000F0FF08B8F1080FB5DB00BF781CC7B2E9
:1014F00001988742ACDB00BF681C85B20298854228
:1015000082DBBDE8FF8F00002E8200082DE9FF4F2F
:101510000646894692469B460E9C00200390009604
:101520002046E21704EB5272D2102146E31704EB77
:101530005373DB10A4EBC3030BB1012300E00023C2
:101540001A44624392B201922B200290002571E06E
:1015500005EB05103A4911F810009AF8001088427E
:1015600065D105EB0510364901EB400040789AF84B
:10157000011088425BD109EB0400401E83B2301990
:10158000401E82B249463046FFF756FB00274BE02B
:101590004FF0000842E00F98F8B905EB0510284914
:1015A00001EB4000801CC05D012101FA08F10840F8
:1015B00018B1584600F02AFA02E00D9800F026FA19
:1015C0000398401CC0B20390039890FBF4F104FB15
:1015D0001100F8B90020039023E005EB051018492D
:1015E00001EB4000801CC05D012101FA08F10840B8
:1015F00020B15A4649463046FFF7BEFB701C86B202
:101600000098301AA04205D1009E09F101001FFA8E
:1016100080F906E008F1010000F0FF08B8F1080FBA
:10162000B9DB00BF781CC7B201988742B0DB00BFAE
:10163000681C85B2029885428ADBBDE8FF8F0000F6
:10164000B08200082DE9FF4F0646894692469B4628
:101650000E9C0020039000962046E21704EB527285
:10166000D2102146E31704EB5373DB10A4EBC30342
:101670000BB1012300E000231A44624392B20192AD
:1016800005200290002579E005EB850000EB451070
:101690003D4911F810009AF8001088426BD105EB13
:1016A000850000EB4510384901EB400040789AF87E
:1016B000011088425FD109EB0400401E83B230194B
:1016C000401E82B249463046FFF7B6FA00274FE087
:1016D0004FF0000846E00F9808BB05EB850000EBD3
:1016E0004510294901EB4000801CC05D012101FA31
:1016F00008F1084018B1584600F088F902E00D984A
:1017000000F084F90398401CC0B20390039890FB4A
:10171000F4F104FB110008BB0020039025E005EB69
:10172000850000EB4510184901EB4000801CC05DAE
:10173000012101FA08F1084020B15A4649463046D5
:10174000FFF71AFB701C86B20098301AA04205D130
:10175000009E09F101001FFA80F906E008F101007E
:1017600000F0FF08B8F1080FB5DB00BF781CC7B266
:1017700001988742ACDB00BF681C85B202988542A5
:1017800082DBBDE8FF8F0000668800082DE9FF4F6F
:101790000646894692469B460E9C00200390009682
:1017A0002046E21704EB5272D2102146E31704EBF5
:1017B0005373DB10A4EBC3030BB1012300E0002340
:1017C0001A44624392B2019205200290002571E012
:1017D00005EB85103A4911F810009AF8001088427C
:1017E00065D105EB8510364901EB400040789AF849
:1017F000011088425BD109EB0400401E83B230190E
:10180000401E82B249463046FFF716FA00274BE0E9
:101810004FF0000842E00F98F8B905EB8510284911
:1018200001EB4000801CC05D012101FA08F1084075
:1018300018B1584600F0EAF802E00D9800F0E6F81A
:101840000398401CC0B20390039890FBF4F104FB92
:101850001100F8B90020039023E005EB851018492A
:1018600001EB4000801CC05D012101FA08F1084035
:1018700020B15A4649463046FFF77EFA701C86B2C0
:101880000098301AA04205D1009E09F101001FFA0C
:1018900080F906E008F1010000F0FF08B8F1080F38
:1018A000B9DB00BF781CC7B201988742B0DB00BF2C
:1018B000681C85B2029885428ADBBDE8FF8F000074
:1018C000D88900082DE9FF4F84B0074691461D4690
:1018D000DDE912A600200390304606EBD071C1F37B
:1018E000470B002434E0281B401EC1B20A2001F03F
:1018F000F1FEB9FBF0F00A21B0FBF1F201FB120896
:101900000398A0B9681EA04211DDB8F1000F0CD1F8
:10191000002004FB0B71CDE900A6029088B22022C2
:10192000119B0599FFF7A2FC10E001200390002015
:1019300008F13001CAB204FB0B71CDE900A6029098
:1019400088B2119B0599FFF791FC00BF601CC4B2DF
:10195000AC42C8DB08B0BDE8F08F2DE9FC4F07466C
:10196000884615461E46DDF82C90002408EB06003C
:10197000401E83B27819401E82B241463846FFF7B6
:101980005BF9A2461CE04FF0000B13E019F814209D
:101990000192012000EB440019F800100091DDE9EC
:1019A000001241EA022000F031F8641C0BF1010042
:1019B0001FFA80FBB345E9DB0AF101001FFA80FA48
:1019C000AA45E0DBBDE8FC8F2DE9FE4706460F4641
:1019D00014469846DDE90C5ADDF82C9010E0CDE96C
:1019E000015ACDF800902278434639463046FFF739
:1019F0003DFC284605EBD07106EB61018EB2641CFC
:101A000020780028EBD1BDE8FE870000014908805E
:101A1000704700000008006C014908807047000012
:101A2000FE07006C00BFFEE77047000070B50021A4
:101A300000230F22C47804B3154C246804F4E06436
:101A4000C4F5E064210AC1F10403CA40447804FAF1
:101A500003F184781440214309010E4C0678A15506
:101A6000047804F01F050124AC4005786D11AD0029
:101A700005F1E025C5F8004109E0047804F01F05F0
:101A80000124AC40044D0678761145F8264070BD1F
:101A90000CED00E000E400E080E100E070470000B1
:101AA0000EB52AA0FEF710FD4FF6FF7000902C48EF
:101AB0004088143883B22A48028814210020FFF796
:101AC000E4F9284828231A461E2100900846FFF70B
:101AD00044FF012010214FF6E0721F23CDE90021C1
:101AE000029021A24B212A2000F05AF91D482823F8
:101AF0001A461E2100905A20FFF72FFF01201021C7
:101B00004FF6E0721F23CDE90021029016A24B216F
:101B1000662000F045F9134828231A461E2100903C
:101B20009620FFF71AFF012010214FF6E0721F23C5
:101B3000CDE9002102900CA24B21A22000F030F947
:101B40004FF4966001F0A2FC0EBD0000B2E2CAD4D0
:101B5000363ACDBCC6ACCFD4CABEB2E2CAD40000BD
:101B60001E000020BA4100085151000029B1064A68
:101B700052690243044B5A6104E0034A52698243AA
:101B8000014B5A61704700000010024029B1064A1B
:101B900092690243044B9A6104E0034A92698243CA
:101BA000014B9A61704700000010024030B50021DF
:101BB0000022002400232D4D6D6805F00C0121B199
:101BC000042905D0082923D105E0294D056022E02C
:101BD000274D05601FE0254D6D6805F47012234DFB
:101BE0006D6805F48034022505EB92421CB9214D45
:101BF000554305600BE01D4D6D6805F400351DB1C2
:101C00001C4D5543056002E0194D5543056002E047
:101C1000174D056000BF00BF144D6D6805F0F00161
:101C20000909154D6B5C0568DD4045600F4D6D6819
:101C300005F4E061090A104D6B5C4568DD40856084
:101C40000A4D6D6805F46051C90A0B4D6B5C45681F
:101C5000DD40C560054D6D6805F44041890B074DB9
:101C60006B5CC568B5FBF3F5056130BD0010024043
:101C700000127A0000093D00660000207600002076
:101C8000704710B500F002F810BD00000CB5002040
:101C9000019000903348006840F48030314908607A
:101CA00000BF3048006800F4003000900198401CEC
:101CB0000190009818B90198B0F5A06FF1D12948AA
:101CC000006800F4003010B10120009001E0002015
:101CD00000900098012843D12348006840F010008C
:101CE000214908600846006820F0030008600846A3
:101CF000006840F0020008601A48406819494860CE
:101D00000846406848600846406840F48060486083
:101D10000846406820F47C1048600846406840F45B
:101D2000E81048600846006840F08070086000BF16
:101D30000C48006800F000700028F9D0094840689D
:101D400020F00300074948600846406840F0020060
:101D5000486000BF0348406800F00C000828F9D133
:101D60000CBD000000100240002002400146081196
:101D7000C21700EB92729210A0EB820232B14FF4C4
:101D8000A070064A1080F020508005E0F020034A41
:101D900010804FF4A0705080704700001E0000209B
:101DA0002DE9FF4F83B0064689461546DDE9114807
:101DB000109FB2464FF0000B70E0BBF1000F30D126
:101DC00004EBD471384A1288A2EB6101B14204DB02
:101DD00035494988091B494502DA07B0BDE8F08F4B
:101DE0002878802802DD4FF0010B57E028780D2875
:101DF00006D109EB04001FFA80F956466D1C0EE06F
:101E0000CDE9014800972A7849463046069BFFF7FE
:101E10002DFA204604EBD07106EB61018EB26D1CE9
:101E20003CE021480088001BB04204DB1E4840888B
:101E3000001B484500DAD0E74FF0000B202C09D1F9
:101E4000CDE9014800972A4649463046069BFFF7F0
:101E50009DFC20E0182C09D1CDE9014800972A46C5
:101E600049463046069BFFF7EDFB14E0102C09D1E4
:101E7000CDE9014800972A4649463046069BFFF7C0
:101E800045FB08E0CDE9014800972A46494630461F
:101E9000069BFFF797FAAD1C301986B22878002808
:101EA0008BD100BF99E700001E000020042808D154
:101EB0004FF0E021096941F004014FF0E022116187
:101EC00007E04FF0E021096921F004014FF0E02222
:101ED000116170477047000010B51348006840F06A
:101EE00001001149086008464068104908400E4941
:101EF0004860084600680E4908400B4908600846DB
:101F0000006820F4802008600846406820F4FE0045
:101F100048604FF41F008860FFF7B3FE4FF0006089
:101F20000449086010BD0000001002400000FFF8E6
:101F3000FFFFF6FE08ED00E000B591B000200C9028
:101F40000C904FF6FF700090FE4840880590FD48C9
:101F500000880490024600210846059BFEF795FF85
:101F6000002010214FF6FF724FF47843CDE9002195
:101F70000290F5A228210520FFF726FD4FF47842B4
:101F80001421084600F0EDFB0020F74981F82000FD
:101F9000486291E3F448406805900120059988471C
:101FA000F14890F8200000F0C00040287AD1EE48B7
:101FB00090F8200020F04000EB4981F8200008460E
:101FC00081890DAA0C9822F82010E748C18A0C9844
:101FD00002EB800041800C98401CC0B20C900C9821
:101FE000012806D0022815D0032829D0042810D1B2
:101FF00041E04FF6FF721421084600F0B2FBD148D1
:102000000088143880B24FF478421421059000F013
:10201000A8FB4FE3CB480088143880B24FF6FF721C
:102020001421059000F09DFBC6484088143880B20A
:102030004FF4784201460590142000F092FB39E3FA
:10204000C0484088143880B24FF6FF7201460590B0
:10205000142000F086FBBB484088143880B20590FD
:10206000B8480088143880B24FF47842049005993B
:1020700000F077FB1EE3BDF83400BDF83810401ABD
:102080000590002801DB059801E005984042099081
:10209000BDF83610BDF83A00081A0590002802DB9A
:1020A000059802E007E305984042089009984043EC
:1020B0000990089840430890DDE908100844019011
:1020C00001F0C3FBCDE9020101F00FFBCDE90401F2
:1020D00001F08EFB80B20B90BDF83C00BDF84010C3
:1020E000401A0590002801DB059801E00598404260
:1020F0000990BDF83E100DA8C089081A0590002867
:1021000001DB059801E0059840420890099840439A
:102110000990089840430890DDE9081008440190B0
:1021200001F093FBCDE9020101F0DFFACDE90401F2
:1021300001F05EFB80B20A900A9801F0E9FE04907B
:102140000B9801F0E5FE0390049901F0CBFD05909A
:1021500001F03AFDCDE906014FF06632834BDDE92F
:10216000060101F085FB0BD3814A824BDDE90601B4
:1021700001F00EFC04D30B9810B10A98002837D157
:1021800000200C906F484088143880B205906D484C
:102190000088143880B24FF6FF720490059900F061
:1021A000E0FA4FF478421421084600F0DAFA0020F1
:1021B00010214FF6FF724FF47843CDE900210290D1
:1021C0006DA228210520FFF7FFFB002010214FF60C
:1021D000FF724FF47843CDE9002102906EA23C21BA
:1021E0000520FFF7F1FB4FF47A7001F04FF963E23D
:1021F000BDF83400BDF83C10401A0590002801DB02
:10220000059801E0059840420990BDF83610BDF8E8
:102210003E00081A0590002801DB059801E00598AA
:10222000404208900998404309900898404308901C
:10223000DDE908100844019001F007FBCDE9020137
:1022400001F053FACDE9040101F0D2FA80B20B900B
:10225000BDF83800BDF84010401A0590002801DB99
:10226000059801E0059840420990BDF83A100DA884
:10227000C089081A0590002801DB059801E005983F
:1022800040420890099840430990089840430890BC
:10229000DDE908100844019001F0D7FACDE9020108
:1022A00001F023FACDE9040101F0A2FA80B20A900C
:1022B0000A9801F02DFE04900B9801F029FE03907E
:1022C000049901F00FFD059001F07EFCCDE90601B7
:1022D0004FF06632254BDDE9060101F0C9FA06D35D
:1022E000234A244BDDE9060101F052FB74D20020A1
:1022F0000C9014484088143880B20590114800882A
:10230000143880B24FF6FF720490059900F029FA54
:102310004FF478421421084600F023FA00201021DF
:102320004FF6FF724FF47843CDE90021029012A2DC
:1023300028210520FFF748FB002010214FF6FF72EF
:102340003AE049E01E000020506C65617365206131
:10235000646A7573746D656E742074686520736348
:102360007265656E2E000000240000206666EE3F58
:10237000CDCCCCCCCCCCF03F546F7563682041649D
:102380006A7573742046696C6564212020202020C2
:102390002020202020000000506C656173652041E2
:1023A000646A75737420416761696E212020202062
:1023B00020202020200000004FF47843CDE90021A8
:1023C0000290AFF22C023C210520FFF7FDFA4FF4FA
:1023D0007A7001F05BF86FE1BDF83800BDF83C1091
:1023E000401A0590002801DB059801E0059840425D
:1023F0000990BDF83A10BDF83E00081A0590002873
:1024000001DB059801E00598404208900998404397
:102410000990089840430890DDE9081008440190AD
:1024200001F013FACDE9020101F05FF9CDE90401F1
:1024300001F0DEF980B20B90BDF83400BDF8401019
:10244000401A0590002801DB059801E005984042FC
:102450000990BDF836100DA8C089081A059000280B
:1024600001DB059801E00598404208900998404337
:102470000990089840430890DDE90810084401904D
:1024800001F0E3F9CDE9020101F02FF9CDE90401F2
:1024900001F0AEF980B20A900A9801F039FD04907B
:1024A0000B9801F035FD0390049901F01BFC059099
:1024B00001F08AFBCDE906014FF066327F4BDDE982
:1024C000060101F0D5F906D37D4A7E4BDDE9060110
:1024D00001F05EFA39D200200C907B484088143815
:1024E00080B2059078480088143880B24FF6FF72A9
:1024F0000490059900F035F94FF47842142108460C
:1025000000F02FF9002010214FF6FF724FF47843AE
:10251000CDE900210290AFF2A01228210520FFF79B
:1025200053FA002010214FF6FF724FF47843CDE9A3
:1025300000210290AFF2A0123C210520FFF744FADF
:102540004FF47A7000F0A2FFB6E0BDF83800BDF895
:102550003410401A039001F0C3FC05905A480088DB
:102560002838039001F0BCFC0490059901F0BAFBF7
:1025700056494862BDF83800BDF834100844009050
:1025800001F0AEFC01905148406A0146009001986C
:1025900001F0D2FC03904C480088019001F0B8FC97
:1025A0000290039901F094FD4FF08041049001F0F6
:1025B00099FB059001F058FC00B244498885BDF8AC
:1025C0003E00BDF83610401A039001F089FC0590DA
:1025D0003D4840882838039001F082FC049005991A
:1025E00001F080FB39498862BDF83E00BDF8361025
:1025F0000844009001F074FC01903448806A014660
:102600000090019801F098FC03902F4840880190B9
:1026100001F07EFC0290039901F05AFD4FF08041D9
:10262000049001F05FFB059001F01EFC00B2274909
:10263000C88525484088143880B205902248008813
:10264000143880B24FF6FF720490059900F089F8B3
:10265000002010214FF6FF724FF47843CDE900219E
:1026600002901BA228210520FFF7AEF900201021BF
:102670004FF6FF724FF47843CDE9002102901CA27F
:102680003C210520FFF7A0F94FF47A7000F0FEFE20
:10269000002010214FF6FF724FF47843CDE900215E
:1026A00002901BA228210520FFF78EF900F004FA02
:1026B00011B000BD00BF00BF6CE400006666EE3FD5
:1026C000CDCCCCCCCCCCF03F1E0000202400002090
:1026D000546F7563682053637265656E2041646A48
:1026E000757374204F4B21202020202020000000F3
:1026F00020202020202020202020202020202020DA
:102700002020202020202020202020202000000029
:1027100020202020202020202020202020202020B9
:10272000202020202020200070B504460D461646AB
:10273000324629462046FEF71FFB611C88B232460E
:102740002946FEF719FB681C81B232462046FEF787
:1027500013FB6A1C91B2621C90B23246FEF70CFB6E
:1027600070BDF8B504460D46164604F10D018AB257
:10277000193988B22B4629460096FEF7A7FA05F1CB
:102780000D0083B2193881B2224620460096FEF72A
:102790009DFA6A1C91B2621C90B23246FEF7ECFAC6
:1027A0006A1C91B2621E90B23246FEF7E5FA6A1ECA
:1027B00091B2621C90B23246FEF7DEFA6A1E91B206
:1027C000621E90B23246FEF7D7FA334606222946F9
:1027D0002046FDF7C3FEF8BD10B53620FDF791FD8C
:1027E0000446602C06D10E2203492820FDF778FD0F
:1027F000012010BD0020FCE74800002008B50121A1
:102800008820FFF7C3F90220ADF8000010208DF8F2
:10281000030003208DF8020069462548FDF7EFFF0D
:1028200002212348FEF776F80420ADF80000482086
:102830008DF8030069461E48FDF7E1FF04211C489E
:10284000FEF768F84FF42060ADF8000010208DF816
:10285000030003208DF8020069461648FDF7CFFFFC
:102860004FF420611348FEF755F84FF48060ADF83F
:10287000000048208DF8030069460E48FDF7BFFFB1
:102880004FF480610B48FEF745F80B49A1F10A00AF
:1028900000F09AF8FDF720FDFFF79EFF08B1002039
:1028A00008BDFFF749FBFFF797FF0120F8E700009D
:1028B000000C0140001C01403A00002070B50646A3
:1028C0000025002400201E4908601E49C1F8A4010B
:1028D0001D490860304600F085F9062000F0FCFD37
:1028E00000201A49C1F88401012000F0F5FD012003
:1028F0001349086000F0F0FD00201449C1F884017C
:1029000000BF15E04FF6FF7000EA440400200C49B8
:102910000860012000F0E0FD01200C49C1F88401AD
:1029200007487C38006808B1601C84B2681CC5B2D6
:10293000102DE7DB2411012003490860204670BDFB
:102940008481214200802342AC81234200802142C5
:102950002DE9FE4380460027002406E04046FFF7AD
:10296000ADFF2DF81400601C84B2052CF6DB0024AA
:1029700016E0601C85B20FE03DF814003DF815101C
:10298000884207DD3DF814603DF815002DF814006D
:102990002DF81560681C85B2052DEDDB601C84B236
:1029A000042CE6DB0027012405E03DF81400384440
:1029B00087B2601C84B2042CF7DB032097FBF0F095
:1029C00086B23046BDE8FE832DE9F04104460D464F
:1029D00007480078FFF7BCFF064606480078FFF777
:1029E000B7FF074626802F800120BDE8F081000058
:1029F00058000020590000207FB504460D4602A96A
:102A000003A8FFF7E1FF064616B9002004B070BD29
:102A1000694601A8FFF7D8FF06460EB90020F5E782
:102A2000BDF80400BDF80C10884206DCBDF80C109F
:102A3000BDF80400323081420CDBBDF80C00BDF85B
:102A40000410884236DCBDF80410BDF80C003230AA
:102A500081422FDABDF80000BDF80810884206DC7C
:102A6000BDF80810BDF80000323081420CDBBDF823
:102A70000800BDF8001088421CDCBDF80010BDF84D
:102A800008003230814215DABDF80C10BDF8042080
:102A9000881800EBD071C1F34F012180BDF80810F8
:102AA000BDF80020881800EBD071C1F34F012980D8
:102AB0000120ABE70020A9E710B50E220449282029
:102AC000FDF74BFC60213620FDF759FC10BD0000DE
:102AD000480000202DE9F0410446404800680028E5
:102AE00056D12CB13E49A1F10A00FFF785FF3DE028
:102AF0003B49A1F10A00FFF77FFFB8B33849163907
:102B0000B1F92C0001F0ECF90746354916398889EE
:102B100001F0FEF9804632481638416A404601F01D
:102B20000BFA0646394601F07BF8054601F0B8F984
:102B30002B4916398881B1F92E0001F0D1F90746E9
:102B400027491639C88A01F0E3F980462448163827
:102B5000816A404601F0F0F90646394601F060F816
:102B6000054601F09DF91E491639C8821C481638E1
:102B700090F8200000F0800038BBC02018491639BA
:102B800081F82000084681898182C18AC1831CE0C6
:102B90001348163890F8200000F0800050B110481B
:102BA000163890F8200020F080000D49163981F881
:102BB00020000AE000210A4816388182C1834FF6BE
:102BC000FF70074916398881C8820548163890F881
:102BD000200000F08000BDE8F08100002881234241
:102BE0003A00002070B50446002500BF17E004F04D
:102BF000800018B101200B49086002E0002009495B
:102C000008606006040E002007490860012000F0FB
:102C100063FC01200549C1F88401681CC5B2082D78
:102C2000E5DB70BDA48123428481214200802142E2
:102C3000F8B5002436A0FDF747FC4FF6FF70009072
:102C400039484088143883B237480288142100205C
:102C5000FEF71BF900BF1FE00020334B00905D889A
:102C600005EBD5735B10323B04EBC40707EB04178D
:102C7000D9192D4B1E8806EBD6735B10503B04EB25
:102C8000C40707EB0417D819284B33F814201E2368
:102C900000F048FC601CC4B2052CDDDB40F2DC50C7
:102CA00000F0F4FB4FF6FF7000901F484088143886
:102CB00083B21D48028814210020FEF7E6F80024A4
:102CC0001FE00120184B00905D8805EBD5735B1069
:102CD000323B04EBC40707EB0417D919124B1E88CB
:102CE00006EBD6735B10503B04EBC40707EB0417ED
:102CF000D8190E4B33F814201E2300F013FC601C6F
:102D0000C4B2052CDDDB40F2DC5000F0BFFBF8BDA7
:102D1000B2E2CAD4333A475549BBADD4B2CCEEB3D4
:102D2000E4B2E2CAD40000001E000020140000201B
:102D30000EB553A0FDF7C8FB4FF6FF700090554845
:102D40004088143883B25348028814210020FEF7CB
:102D50009CF8012010214FF6E072CDE9002102908D
:102D60004C490988323988B21F234BA21E21FFF734
:102D700017F84FF4FA7000F089FB002000904548E6
:102D80004088143883B24348028814210020FEF79B
:102D90007CF8012010214FF6E072CDE9002102906D
:102DA0003C490988323988B21F233DA21E21FEF713
:102DB000F7FF4FF4FA7000F069FB4FF47840009091
:102DC00034484088143883B23248028814210020E5
:102DD000FEF75BF8012010214FF6E072CDE90021EB
:102DE00002902C490988323988B21F232EA21E2155
:102DF000FEF7D6FF4FF4FA7000F048FB4FF4FC608A
:102E0000009024484088143883B222480288142154
:102E10000020FEF73AF8012010214FF6E072CDE9CC
:102E2000002102901B490988323988B21F231FA252
:102E30001E21FEF7B5FF4FF4FA7000F027FB1F20AC
:102E4000009014484088143883B212480288142134
:102E50000020FEF71AF8012010214FF6E072CDE9AC
:102E6000002102900B490988323988B21F2311A230
:102E70001E21FEF795FF4FF4FA7000F007FB0EBD20
:102E8000B2E2CAD4313AB4BFC9ABCCEEB3E4B2E2D9
:102E9000CAD400001E000020576869746500000055
:102EA000426C61636B0000005265640047726565A7
:102EB0006E000000426C7565000000002DE9F843CB
:102EC00000245FA0FDF700FB4FF6FF700090624802
:102ED0004088143883B26048028814210020FDF72E
:102EE000D4FF00BF47E05D4830F81400DFF868C148
:102EF0000090BCF8025005EBD57C4FEA6C0CACF1AD
:102F0000500CC4EB0419CC440CF13C0C1FFA8CF3AC
:102F1000DFF844C1BCF8006006EBD67C4FEA6C0CCD
:102F2000ACF1500CC4EB0419CC440CF13C0C1FFA6E
:102F30008CF2DFF824C1BCF8027007EBD77C4FEAB3
:102F40006C0CACF1500CC4EB0419CC441FFA8CF19E
:102F5000DFF804C1BCF8008008EBD87C4FEA6C0CA9
:102F6000ACF1500CC4EB0419CC441FFA8CF0FDF703
:102F700011FF601CC4B2052CB5DB40F2DC5000F040
:102F800085FA4FF6FF70009033484088143883B2BA
:102F90003148028814210020FDF777FF002447E024
:102FA0002E4830F81400DFF8B0C00090BCF8026082
:102FB00006EBD67C4FEA6C0CACF1500CC4EB041958
:102FC000CC440CF13C0C1FFA8CF3DFF88CC0BCF83D
:102FD000005005EBD57C4FEA6C0CACF1500CC4EB07
:102FE0000419CC440CF13C0C1FFA8CF2DFF868C0D9
:102FF000BCF8028008EBD87C4FEA6C0CACF1500CAA
:10300000C4EB0419CC441FFA8CF1DFF84CC0BCF8B7
:10301000007007EBD77C4FEA6C0CACF1500CC4EBA2
:103020000419CC441FFA8CF0FDF72FFF601CC4B2CA
:10303000052CB5DB40F2DC5000F028FABDE8F8833F
:10304000B2E2CAD4323A475549BED8D0CECCEEB35C
:10305000E4B2E2CAD40000001E00002014000020E8
:103060001FB54FF6FF70ADF80C00FFF7C7FB4FF62A
:10307000FF70FDF707FE40A0FDF726FA7BE042480F
:10308000416800208847404890F8200000F0800008
:10309000002870D0012000F0F9F93B4880893B49B5
:1030A0000988884267DA3848C08A3849498888429E
:1030B00061DABDF80C004FF6FF71884207D1324843
:1030C0008089ADF80C003048C08AADF80E004FF48E
:1030D00078402D4C0090E38AA289BDF80E10BDF80F
:1030E0000C00FDF77CFE20468089ADF80C002046E0
:1030F000C08AADF80E0000201021CDE90001029039
:10310000224840883C3881B24FF4784320A20A20FC
:10311000FEF75AFC102000214FF47842CDE900213F
:10312000029020468289194840883C3881B20323A6
:103130001A20FEF7C7FB00201021CDE90001029004
:1031400012484088283881B24FF4784311A20A20EF
:10315000FEF73AFC102000214FF47842CDE900211F
:1031600002902046C28A09484088283881B2032349
:103170001A20FEF7A7FB82E7B2E2CAD4373A546FAF
:10318000756368B2E2CAD400240000201E0000204B
:10319000583A0000593A000010B540F225511D4838
:1031A00000F04AF810B31B4800F002F9C4B21A4804
:1031B000008800F40040C8B91748008800F4804037
:1031C00060B10A2C03D000201349088020E0124887
:1031D000008840F400401049088019E00D2C06D109
:1031E0000D48008840F480400B49088010E00A48F0
:1031F0000088C0F30D0009490C5407480088401CA2
:103200000549088008460088C72801DD002008809D
:1032100010BD000000380140640000207C00002048
:1032200021B1828942F40052828104E082894DF604
:10323000FF731A408281704770B502460024002354
:103240000025002040F66A16B14200D100BFC1F34C
:10325000421501F01F03012606FA03F3012D02D1E6
:103260009689334006E0022D02D1168A334001E0F0
:10327000968A33400C12012606FA04F4168834406C
:1032800013B10CB1012000E0002070BDF0B5034681
:10329000002400260025002040F66A17B94200D11C
:1032A00000BF1846C1F3421401F01F06012707FAB8
:1032B00006F5012C01D10C3004E0022C01D11030B4
:1032C00000E014301AB107682F43076002E0076876
:1032D000AF430760F0BD00002DE9F04786B005461A
:1032E0000E460024A24600BFA1460027B08900B1C7
:1032F00000BF2F462C8A4CF6FF700440F088044330
:103300002C82AC894EF6F3100440B0883189084312
:10331000718908430443AC81AC8A4FF6FF400440F6
:10332000B0890443AC8201A8FEF740FC1F488742E5
:1033300002D1DDF810A001E0DDF80CA0A88900F4AE
:10334000004040B10AEBCA0000EB0A1031684900A6
:10335000B0FBF1F807E00AEBCA0000EB0A10316895
:103360008900B0FBF1F86420B8FBF0F004012009FB
:10337000642101FB1089A88900F4004040B132208B
:1033800000EBC900B0FBF1F000F00700044308E0D7
:10339000322000EB09106421B0FBF1F000F00F00C7
:1033A00004432C8106B0BDE8F087000000380140DE
:1033B00001468888C0F30800704700BFFEE72DE98A
:1033C000F04104460D4616461F46DDF81880EA19FE
:1033D00091B2A21990B24246FDF79EFAEA1991B253
:1033E000A21B90B24246FDF797FAEA1B91B2A219CE
:1033F00090B24246FDF790FAEA1B91B2A21B90B23E
:103400004246FDF789FAAA1991B2E21990B24246F2
:10341000FDF782FAAA1991B2E21B90B24246FDF77B
:103420007BFAAA1B91B2E21990B24246FDF774FAF8
:10343000AA1B91B2E21B90B24246FDF76DFABDE8BD
:10344000F08100BF7047000010B56FF00400FEF778
:103450002DFD0A4800680A49B0FBF1F009490870DF
:103460000846007800EB4001C1EBC0104FF6FF7139
:1034700001EAC0000449088010BD000000000020DF
:1034800000127A005A0000205C0000200146114A18
:1034900012884A434FF0E0235A6100229A611A468B
:1034A000126942F001021A6100BF4FF0E022106978
:1034B00000F001021AB100F48032002AF5D04FF07A
:1034C000E022126922F001024FF0E0231A6100228B
:1034D0009A6170475C0000200146114A12784A4305
:1034E0004FF0E0235A6100229A611A46126942F0B5
:1034F00001021A6100BF4FF0E022106900F00102E2
:103500001AB100F48032002AF5D04FF0E02212699F
:1035100022F001024FF0E0231A6100229A61704705
:103520005A0000202DE9FF4F81B082461746984689
:10353000DDF838B0002445464FEA4800C0F10306E4
:10354000BBF1000F1FD01BE0A14608E04B4622460E
:10355000009750460299FFF732FF09F10109A9458A
:10356000F4DD002E04DA042000FB0460861D06E072
:10357000601B042101FB006000F10A066D1E641C43
:10358000AC42E1DD18E015E02B462246009750469C
:103590000299FFF714FF002E04DA042000FB0460F8
:1035A000861D06E0601B042101FB006000F10A0695
:1035B0006D1E641CAC42E7DD05B0BDE8F08FFFF77F
:1035C00043FF4FF4E13000F0B7F8FDF783FC4FF60E
:1035D000FF70FDF757FB0FE000F010F8FFF7A8FBB6
:1035E000FFF76CFCFFF724FBFDF708F8FCF7F2FE91
:1035F000FEF756FAFFF734FDEEE700000EB51EA009
:10360000FCF762FF012010211F22D302CDE9002127
:1036100002901FA21E210020FDF78CF9012010212D
:103620001F22D302CDE9002102901CA23C210020E0
:10363000FDF780F9012010211F22D302CDE90021DE
:1036400002901AA25A210020FDF774F901201021DE
:103650001F22D302CDE90021029018A27821002078
:10366000FDF768F94FF47A70FFF710FF4FF47A70A6
:10367000FFF70CFF0EBD0000D6D0BEB0D4B0B5E74A
:10368000D7D3D7DBBACFB2E2CAD4B3CCD0F20000E2
:10369000D6D0BEB0D4B0B5E7D7D30000D7DBBACF11
:1036A000B2E2CAD4B3CCD0F200000000494C493990
:1036B000333431203234305833323000D6D0BEB0BB
:1036C000D4B0B5E7D7D320323032302D30352D305D
:1036D0003500000010B50246012000E050430B1EEB
:1036E000A1F10104E1B2F9D110BD2DE9F041064686
:1036F0000F4600F083F9041E0D4618BF0120284331
:1037000020F00040C0F17F6000F1E040C00F0ED01B
:10371000301C18BF0120384320F00040C0F17F600A
:1037200000F1E040C00F04BF0120FCF798FD2046E7
:103730002946BDE8F081000010B586B0044601219D
:1037400044F20500FEF722FA4FF40070ADF81400C1
:1037500003208DF8160018208DF8170005A91C48C5
:10376000FDF74DF84FF48060ADF8140004208DF89B
:10377000170005A91648FDF742F825208DF800002E
:1037800003208DF801008DF8020001208DF8030060
:103790006846FEF74BF901940020ADF80800ADF83B
:1037A0000A00ADF80C00ADF810000C20ADF80E00CA
:1037B00001A90848FFF790FD012240F22551054874
:1037C000FFF764FD01210348FFF72AFD06B010BD95
:1037D0000008014000380140491058BFC1F1404184
:1037E0005B1058BFC3F140438B42EFF3008070473A
:1037F0004FEA1153A3F58063D3F11E03A8BFD3F1A1
:10380000200C08DB4FF0004242EAC12252EA50523B
:1038100032FA03F0704709420BD4102BC4BF0020CA
:10382000704703F5787CBCF1FF3F05D04FF0FF30C7
:1038300070474FF00000704770B500F055F800BFBA
:103840004992248000207047F0E7B0FA80F310FA24
:1038500003F10AD0C3F11D0303F580634FEA415021
:103860004FEA035202EBD12170474FF0000070473E
:1038700051EA030C17D41CF5801F58BFBCF5801FFC
:1038800000F10680994218BF704708BF9042704708
:1038900007D711F5801F58BF13F5801F19D499421F
:1038A0007047894270471CF5801F08D5BCF5801F02
:1038B000F7D58B4218BF704708BF824270474FF45C
:1038C000001C1CEB410F38BF1CEB430F01D28B4295
:1038D000704770B500F008F8922449004FF000518D
:1038E0004FF08053FFF778BF0EF1020E2EF0030E5B
:1038F0005EF8046B364205D4012A43EB030515F547
:10390000001F12D8012841EB010C1CF5001F0CD838
:103910000ED14FEAD17C15F5001F0CEB4C0C0CF1CD
:10392000020C08BF4CEBD37C04E04FF0080C01E024
:103930004FEAD37C0CEB4C0526FA05F606F0070699
:10394000B6F1040C06D20EEB860CBDE870404CF0CC
:10395000010C6047DFE80CF0090B02024FF0004158
:103960004FF00000A1F5002170BD19461046012856
:1039700051EB010418BFD4F5001484BF002001F0FE
:10398000004170BD0808A0F500114FEA31017047F1
:1039900053EA010C17D41CF5801F58BFBCF5801FDB
:1039A00000F106808B4218BF704708BF8242704703
:1039B00007D713F5801F58BF11F5801F19D48B420C
:1039C00070479B4270471CF5801F08D5BCF5801FCF
:1039D000F7D5994218BF704708BF904270474FF41F
:1039E000001C1CEB430F38BF1CEB410F01D2994266
:1039F00070470FB40CBC03BCFFF76BBF2DE9F0415F
:103A000001F5801CBCF5001FC0F2C3804FEA115CB9
:103A100021EA0C510CF1FD0C41F480115FEA5C0CC1
:103A20000CF5C07C01D3400049413DA4890241EA24
:103A3000905187028E0E0A0CA45D04FB04F602FB73
:103A400006F6C6F14046A4FB0662F60D46EA42269B
:103A500006FB06F4A4FB01235242C3F1404338BFE6
:103A60005B1EA6FB02420024E6FB0324D20B42EAC3
:103A70004446A6FB0623A1FB02E2A3FB07E4A4182D
:103A80004FF0000252F10002E3FB01426442C2F136
:103A9000404E38BFAEF1010EA6FB04234FF00002EA
:103AA000E6FB0E32A2FB03464FF00004B61954F1B8
:103AB0000004E2FB0264A1FB06E6A4FB07E816EBA8
:103AC00008064FF0000858F10008E4FB0168764250
:103AD000C8F1405838BFA8F10108A2FB06E4A3FBD7
:103AE00008E52D194FF0000454F10004E2FB0854DE
:103AF000A1FB05E6A7FB04E818EB06084FF000065B
:103B000056F10006E1FB048618F1200556F1000687
:103B1000A809A8F11B08B10908F03F08B8F10A0F7D
:103B200040EA86601CD901EB0C51BDE8F08100BF72
:103B3000FCF5EEE8E2DDD8D3CFCBC7C3C0BDB9B644
:103B4000B4B1AEACA9A7A5A3A19F9D9B9A98969549
:103B50009392908F8D8C8B898887868584838281D0
:103B6000A0FB006800FB01F208EB4208B8EB8728D5
:103B700007D5341858EB0104D5D5401C51F100018C
:103B8000D1E7341A78EB0104CDD4401E71F1000165
:103B9000C9E75FEA4C0C5FEA9C5C0DD105D34FF09E
:103BA000000001F00041BDE8F081BDE8F04170B5D2
:103BB000FFF79AFE6DDBFFBEBDE8F0414FF000005D
:103BC000004970470000F87F43004FEAD30C4FEAEA
:103BD0003C0C43401FBF40070CF1605113F0FE4FF7
:103BE00070471CF0006F03D100200CF000417047BB
:103BF0000CF0004343EA507010B540EACC0000F0EE
:103C00001CFA00BF000000924FEA0001FFF7BABEA5
:103C10004FF000414FF00000A1F500217047000077
:103C200090EA010F48BF81F0004100F15882421A2A
:103C30003CBF801A89184FEAD0524FF07F4C1CEAE3
:103C4000410FA2EBD15318BF9CEA026F00F03B80FA
:103C50004FF0004C4CEA00204CEA012121FA03FC11
:103C600010EB0C0C1ED202F1FF325FEA1C2040EB7D
:103C7000C25038BF70471CF07F0F4FEA400C18BF8E
:103C8000BCF17F4F38BF7047C3F12003994008BF94
:103C900020F00100BCF17F4F38BF7047A0F1C04059
:103CA00000F011BA4FEA3C00000A40EBC25028BFB6
:103CB0001CF0FF0F4FEA400CE6D018BFBCF17F4F5D
:103CC00038BF7047EAE79CEA026F05D010EA5C0F44
:103CD00008BF00F00040704710B500F0AEF900BF1B
:103CE00064FBBE3E4FF47F0C1CEAD0121EBF1CEAE0
:103CF000D11392EA0C0F93EA0C0F00F0858090EA42
:103D0000010F48BF42F4807240F4000C41F40000FF
:103D10002CF07F4120F07F4000B58142A2EB0302EE
:103D20000FF2081CACEB504EC0F100009EF800E012
:103D30004FEA4E0E00FB0EFC38BF49004FEA2C1C28
:103D400002F5FA020CFB0EF34FEACE1E4FEA112CDD
:103D50004FEAC1210EEB635E42EB22420EFB0CFCEC
:103D60004FEA1C5300FB03114FEA112C4FEA0131BB
:103D70000EFB0CFC4FEADC4C00FB0C11C14228BFCF
:103D800009184CEB03335DF804EB10EB410143EBF6
:103D9000C250B2F57C0F38BF704729D512F0F00F32
:103DA0001CBF00F1C04000F00040704700818283DA
:103DB0008485868788898B8C8D8E8F91929395963A
:103DC00097999A9C9D9FA0A2A3A5A7A8AAACAEB0C4
:103DD000B2B3B5B7B9BCBEC0C2C5C7C9CCCED1D4C9
:103DE000D7D9DCDFE2E6E9ECF0F3F7FAFE000000F9
:103DF0004FEA400C0CF1807CBCF17E4F28BF70472D
:103E0000B0F1C04000F05FB990EA010F0CEAD113A5
:103E100048BF42F48072624538BF634507D213F44D
:103E20007F0F16D080EA010000F00040704710B507
:103E300000F003F9097EFC3E00F005B880EA0100BD
:103E400000F00040704780EA010000F0004000F000
:103E50003AB912F47F0F04BF0248704780EA0100AC
:103E600000F031B90000C07F41000B0ED3F19E027B
:103E700008D950F400034FEA032323FA02F048BFA5
:103E80004042704710B500F0D8F800BF4992248036
:103E9000002070476FF0004282EA20007047000067
:103EA000C10DD1F19E0206DB4FEA002343F000432F
:103EB00023FA02F07047004207D54FEA4001B1F102
:103EC000FE4F02D24FF00000704710B500F0B5F879
:103ED00049922480002070476FEA2000704700005C
:103EE00010F0004148BF4042B0FA80F310FA03F2EC
:103EF000C3F19D030BD051EAC35101EB12205306CD
:103F000038BF704700F1010008BF20F00100704782
:103F1000B0FA80F310FA03F2C3F19D030AD0D90579
:103F200001EB1220530638BF704700F1010008BFB3
:103F300020F00100704700004FF47F0C1CEAD01203
:103F40001EBF1CEAD11392EA0C0F93EA0C0F00F08B
:103F5000478090EA010F48BF42F480724FF0004C56
:103F60004CEA00204CEA012102EB0302A0FB011302
:103F7000A2F50002002918BF43F001035B0028BF2F
:103F80004FEA330342EB22425FEA132C4CEBC25060
:103F90002EBFBCEB436FB2F57C0F70474FEA036C4A
:103FA000BCF1004F08BF20F00100B2F57C0F38BF14
:103FB00070470BD582F0FF0212F5803FC8BF7047F3
:103FC00000F1C040D8BF00F00040704700F5000C81
:103FD0005FEA4C0C48BF7047B0F1C04000F073B8C6
:103FE00090EA010F0CEAD11348BF42F48072624597
:103FF00038BF634504D280EA010000F000407047FA
:1040000010B500F01AF800BF8900013E00F007B8B3
:1040100000F009B85FEA410C5FEA1C6C08D080EA46
:10402000010000F050B85FEA400C5FEA1C6CF6D16A
:104030004FF00040A0F5800070470EF1020E2EF008
:10404000030E5EF8044B244204D44FEA4102B2F15D
:104050007F4F11D84FEA4003B3F17F4F0CD80ED1F8
:104060004FEAD07CB2F17F4F0CEB4C0C0CF1020C00
:1040700008BF4CEBD17C04E04FF0080C01E04FEAA4
:10408000D17C0CEB4C0324FA03F404F00704B4F1E4
:10409000040C06D20EEB840CBDE810404CF0010C71
:1040A0006047DFE80CF0070802024FF00040A0F57F
:1040B000800010BD0846420018BFD2F1807288BF50
:1040C00000F0004010BDFF2141EAD050C00570470C
:1040D00090EA010F48BF81F000413FF5A8AD421AB8
:1040E00004D882F00042A0EB020011444FEAD05203
:1040F0004FF07F4C1CEA410FA2EBD15318BF9CEA52
:10410000026F4AD04FF0004C4CEA00204CEA0121EB
:1041100021FA03FCB0EB0C0C0FD412F0FE0F36D0DA
:104120005FEA4C001DD5001240EBC25038BF70470B
:104130001CF03F0F18BF70470BE0A2F101025FEACD
:104140001C2040EBC25038BF70471CF07F0F18BFD7
:104150007047C3F12003994014BF401E20F00100B6
:10416000704780084FEA122308BF7047B0FA80FCFE
:10417000A2EB0C02CCF1280C60FA0CF093EA122F9F
:1041800004BF00EBC25070474FEAC3707047130A78
:104190005FEADC1008BF7047F6E79CEA026F04D0C4
:1041A00010EA5C0F08BF0020704710B5FFF745FF0D
:1041B00040DFF63E81F000407047FFFFFFFFFFFF4A
:1041C000FFFFFFFFFFFFFFFFFFFFFFFFFFFFFFFFFF
:1041D000FFFFFFFFFFFFFFFFF7BEFFFFFFDEC63859
:1041E0008C926B8E6B6E7C10AD96E73CFFFFFFFFF1
:1041F000FFFFFFFFFFFFFFFFFFFFFFFFFFFFFFFFCF
:10420000FFFFFFFFFFFFFFFFFFFFFFFFFFFFFFFFBE
:10421000FFFFFFFFFFFFFFFFFFFFFFFFFFFFFFFFAE
:10422000FFFFFFFFFFFFFFFFEF5D9D15634F426C38
:10423000320A298819461925214531E86B8EC6387E
:10424000FFFFFFFFFFFFFFFFFFFFFFFFFFFFFFFF7E
:10425000FFFFFFFFFFFFFFFFFFFFFFFFFFFFFFFF6E
:10426000FFFFFFFFFFFFFFFFFFFFFFFFFFFFFFFF5E
:10427000FFFFFFFFFFFFA53653104B1053514B0FAD
:104280003A6C31E92167192510E408A3006208831C
:1042900052CBD69AFFFFFFFFFFFFFFFFFFFFFFFF9D
:1042A000FFFFFFFFFFFFFFFFFFFFFFFFFFFFFFFF1E
:1042B000FFFFFFFFFFFFFFFFFFFFFFFFFFFFFFFF0E
:1042C000FFFFE73C637063B37CB863F54311324D85
:1042D00029EA21881926190519051104110410E489
:1042E000008308A38C72FFFFFFFFFFFFFFFFFFFFAC
:1042F000FFFFFFFFFFFFFFFFFFFFFFFFFFFFFFFFCE
:10430000FFFFFFFFFFFFFFFFFFFFFFFFFFFFFFFFBD
:10431000DEDB3A4B42F06C354B5432B12A2E21EBA6
:1043200021A91967190511041104110411041104BC
:10433000190510E4004273AFFFFFFFFFFFFFFFFF0F
:10434000FFFFFFFFFFFFFFFFFFFFFFFFFFFFFFFF7D
:10435000FFFFFFFFFFFFFFFFFFFFFFFFFFFFEF5D1F
:104360003209324C4B10328F2A4F2A2E19CC198920
:104370002189194719051104110410C410C411042E
:104380001104110410E400428431FFFFFFFFFFFF1E
:10439000FFFFFFFFFFFFFFFFFFFFFFFFFFFFFFFF2D
:1043A000FFFFFFFFFFFFFFFFFFFFFFFFFFFF52ECDD
:1043B0001947324C2A0B21EC21EC220C5B914AEE7E
:1043C00011061926190410E410E429A7216608A390
:1043D00019051104110410E40082BDF7FFFFFFFF6F
:1043E000FFFFFFFFFFFFFFFFFFFFFFFFFFFFFFFFDD
:1043F000FFFFFFFFFFFFFFFFFFFFFFFFA535088364
:1044000021882188218921AA218A426B8C71FFFF92
:104410008C720883110408C44229DEFBEF5D5AEC5C
:104420000883110411041104088331E8FFDFFFFF42
:10443000FFFFFFFFFFFFFFFFFFFFFFFFFFFFFFFF8C
:10444000FFFFFFFFFFFFFFFFFFFFF7BE31C710C4F5
:10445000192519261947194729A8528A4A28AD55FE
:10446000FFFF31E808A319056B4D6B4DFFFFEF7D92
:10447000214510C41104110411040062AD76FFFF40
:10448000FFFFFFFFFFFFFFFFFFFFFFFFFFFFFFFF3C
:10449000FFFFFFFFFFFFFFFFFFFFB5960062110464
:1044A00019041105190508C44A8BB5B6EF5DBDF7AF
:1044B000FFFF6B8E006242295AAA4208FFFFFFFFEE
:1044C00052CC088311041104110408A352ADFFFF5C
:1044D000FFFFFFFFFFFFFFFFFFFFFFFFFFFFFFFFEC
:1044E000E71CFFFFFFFFFFFFFFFF634E00621104A9
:1044F0001104110410E40062638EFFFFFFFFFFFF51
:10450000FFFF73CF00019CF3632CB596FFFFFFFF05
:104510005B2D008311041104110410E42167EF3DA9
:10452000FFFFFFFFFFFFFFFFFFFFBDF8B5B7EF9EE7
:1045300052CB94B3FFFFFFFFFFDF31E808A3110464
:1045400011041104110408A34249F7FFF7FFFFFF0C
:10455000FFFF4A6A00018472FFFFFFFFF7FFEFDFF2
:104560003A0908A311041104110411041105BE181D
:10457000FFFFFFFFFFFFFFFFFFFF7BF0006231E85F
:1045800031C70041A535FFFFEF5D214610C411047E
:1045900011041104110410E408A39D76F7FFFFFF36
:1045A000ADB708A308A331C7E79EF7FFF7FFA576CD
:1045B00008A310E411041104110411051105A53517
:1045C000FFFFFFFFFFFFFFFFFFFFDEDB29A70083E9
:1045D00010C410C410C4E71CEF9E110510E41104B0
:1045E000110411041104190408C410E56BD16BD136
:1045F00008C5006408A50043322B9D7784B31925B4
:1046000010C41104110411041104192509269D3543
:10461000FFFFFFFFFFFFFFFFFFFFFFFF73AF006222
:104620001904190500825B0D9B8E1062110511049F
:104630001104190410E40085110539C45A817B4026
:104640009C22AC43A4039B837282498218C200A4BB
:1046500000C510E4190411041905194711675AEC33
:10466000FFBEFFFFFFFFFFFFFFFFFFDFDEDB10C42A
:1046700010E41104110518A4C001888300E4190591
:10468000190408C521448343D523FE42FEE4FF27D5
:10469000FF07FEA4FE64FE03FDA3FCE2EC42B3832D
:1046A000622410E508C41904192619A8218790006E
:1046B000BCD3FFFFFFFFFFFFFFFFFFDFFFFF7C100B
:1046C0000042190511052883D001F84448A300E4ED
:1046D00008C55A44ED02FDE2FE02FE66FF74FFB813
:1046E000FF73F6E7F6A6F645F5A4FCC3FC62FCC230
:1046F000FCC2CBE349C411061988018790A4F801D4
:104700009AECFFFFFFFFFFFFFFFFFFFFFFFFF7BE7A
:1047100031E8008309054082C001F823F08548A3F1
:1047200000A45A44FD02CC23DCC2FE04FE28F64855
:10473000F646F624F5E4FD64FCE3FC62FCC2E40208
:10474000DC02FCE27AA40148016778C4F824F8028C
:10475000B084E77DFFFFFFFFFFFFFFFFFFFFFFFFCD
:10476000DEDB192500A338C4E002D822F844F8A6FD
:1047700078A400632143728339839B82F521FD6114
:10478000FD22FCE2FCA2FC42FC42FC42AB22418343
:1047900092C352040126192598A4F844F823F8027C
:1047A000D0A4EF9EFFFFFFFFFFFFFFFFFFFFFFFF14
:1047B000FFFFD69A298700A5B843F822E023F865C1
:1047C000F8E8C9074883004200A3008429637AA25D
:1047D000B362CBA2D362BB028A82398300A400E514
:1047E00000E508E560C4D864F844F824F823F8022A
:1047F0008883C6DBFFFFFFFFFFFFFFFFFFFFFFFF19
:10480000FFFFFFFFE73D5B503108E823F843F0442A
:10481000F865F909F9ABD189890648A31842000265
:1048200000420061008200620062008320A350C445
:1048300088A5D885F865F844F844F823F823D00310
:10484000108229C7EF5DFFFFFFFFFFFFFFFFFFFFA4
:10485000FFFFFFFFFFFFFFFF326C38A5D802F823F0
:10486000F865F866F8A7F94AFA0CFA4DEA4CD20B4B
:10487000B9A9B168A947B127B907D107E8E7F8C7CF
:10488000F8A7F865F865F844F823F803D00228A3E0
:10489000090508C45AECFFFFFFFFFFFFFFFFFFFF02
:1048A000FFFFFFFFFFFFDEFB190500C441A7C0E6C5
:1048B000F803F886F8A7F887F886F8C7F929F98A7F
:1048C000F9ABF9ABF98BF96AF929F908F8C7F8A639
:1048D000F886F865F864F823F002B106292500E4AB
:1048E00010E4192519259D14FFFFFFFFFFFFFFFFAF
:1048F000FFFFFFFFFFFFAD96006208829535CEBA3D
:10490000A28BD044F825F887F8A7F8C7F8A7F8874E
:10491000F886F886F886F887F8A7F8A7F8A6F88545
:10492000F865F864F024B864930DB6BB63CF0883D0
:10493000110410E421663A49EF5DFFFFFFFFFFFF1E
:10494000FFFFFFFFFFFF94D3004210E4CEBBFFFF49
:10495000E7BEB576AACCC107E045F845F846F8664B
:10496000F886F886F886F886F865F845F865E8650B
:10497000D044A84388019082D73CEFFF9555088327
:10498000110411041905194694B3FFFFFFFFFFFF3F
:10499000FFFFFFFFFFFF94B300412186DF5DFFFFB4
:1049A000FFFFFFFFE7DFC67AB4D3B34EC22AD16858
:1049B000E0E6E8A6E8A5E8A5D8E6C988A906A82201
:1049C000A802A000C800D800E5F7E7FFADF810C4C2
:1049D00010E4110410E411054A8BFFFFFFFFFFFFF5
:1049E000FFFFFFFFFFFFA555004129A7DF5DF7FF90
:1049F000FFFFFFFFFFFFFFFFFFFFEFFFDF7DCEDBCE
:104A0000CE59CDF8CDD7C5F7CE79BEFBA2ABF0031A
:104A1000F845D042E843F000D472DFFFAE3910E42D
:104A200010E4110410E411052987FFFFFFFFFFFFC9
:104A3000FFFFFFFFFFFFCE5908832146D71CF7FF7A
:104A4000FFFFFFFFFFFFFFFFFFFFFFFFFFFFFFFF76
:104A5000FFFFFFFFFFFFFFFFFFFFEFFFBA8BF80431
:104A6000F845E062F044F800DB8EDFFFA5F810C4E3
:104A700010E410E4110410E41925FFFFFFFFFFFF0D
:104A8000FFFFFFFFFFFFF7BE29870883B639F7FF57
:104A9000F7DFFFFFFFFFFFFFFFFFFFFFFFFFFFFF4E
:104AA000FFFFFFFFFFFFFFFFFFFFE7BEBA4AF8036C
:104AB000F845F864F844F800E36ED7FF8CF40883F7
:104AC000110410E410E410E41905FFFFFFFFFFFFDD
:104AD000FFFFFFFFFFFFFFFF73EF00008472EFFF98
:104AE000EFBEFFDFFFFFFFFFFFFFFFFFFFFFFFFF47
:104AF000FFFFFFFFFFFFFFFFFFFFE7DFBA8BF803BA
:104B0000F845F845F823F800D4D3D7FF5B4E0021D1
:104B10003A29A555088310C41925FFFFFFFFFFFFA1
:104B2000FFFFFFFFFFFFFFFFDEFB08A331E8DF9E73
:104B3000E79EEFBFFFFFFFFFFFFFFFFFFFFFFFFF4E
:104B4000FFFFFFFFFFFFFFFFFFFFF7FFBC51E0028A
:104B5000F803F003E043C2ECCF7EBEFC2146002107
:104B600094D3FFFF845100002987FFFFFFFFFFFF61
:104B7000FFFFFFFFFFFFFFFFFFFF845100008CF4EA
:104B8000EFFFE79EEFBFFFDFFFFFFFFFFFFFFFFF2E
:104B9000FFFFFFFFFFFFFFFFFFFFFFFFDF3DBD55F3
:104BA000BC52BC72B5B7C75DDFFF6BF000003A09BD
:104BB000F7BFFFFFFFFF9D14A555FFFFFFFFFFFF9E
:104BC000FFFFFFFFFFFFFFFFFFFFFFFF4AAC08A44F
:104BD000BEBBE7DFE77EEFBEF7DFFFDFFFFFFFFFD4
:104BE000FFFFFFFFFFFFFFFFFFFFFFDFF7DFEFFF2D
:104BF000DFDFD7BFD79EDFDFA5D808831126D6DB3E
:104C0000FFFFFFFFFFFFFFFFFFFFFFFFFFFFFFFFB4
:104C1000FFFFFFFFFFFFFFFFFFFFEE79DC8B31217E
:104C200021A9CF3DDFBFDF7EE79EEFBEEFBFF7DFFD
:104C3000F7DFF7DFF7DFF7DFEFBFEFBEE79EDF7EDF
:104C4000D75ED75EDFDFB69A19260842A3EDFFBF15
:104C5000FFFFFFFFFFFFFFFFFFFFFFFFFFFFFFFF64
:104C6000FFFFFFFFFFFFFFFFDD74DBC0FE00EE4232
:104C700042022189B67BDFDFD77EDF7EDF7EE79EC3
:104C8000E79EE79EE79EE79EDF7EDF7ED75DD75DEE
:104C9000DF9EE7FFA5F8110718E3C502FD60D3E624
:104CA000EEDBFFFFFFFFFFFFFFFFFFFFFFFFFFFF49
:104CB000FFFFFFFFFFFFF79EBA84FCC1FE42FE82AA
:104CC000FEA2838121457474C75EDFDFD77ED75E85
:104CD000D75DD75ED75ED75DD75DD75EDF9EE7FF36
:104CE000C73D63F108845242E626FF29FE86F3E0C1
:104CF000C36AFFFFFFFFFFFFFFFFFFFFFFFFFFFF95
:104D0000FFFFFFFFFFFFDE18D2C1FDA2FE22FE4221
:104D1000FE42FE62D4E26A4142497453A63BC73E5A
:104D2000D7BFD7BFD7BFDFBFD7BFC73EA61A63F273
:104D300029A74182B422FE62FE83FEAAFF0FFD670F
:104D4000BA63EF3CFFFFFFFFFFFFFFFFFFFFFFFF27
:104D5000FFFFFFFFFFFFE69AD280FD21FDC2F5E2D3
:104D6000F5C2F582FD82FD62DC619B216A846AE9FD
:104D7000632C63AF7411636E632C5A8952047A8179
:104D8000CBC2FCE2FD62FD82FDC2FDC2FDE4FD245A
:104D9000CA62E71CFFFFFFFFFFFFFFFFFFFFFFFFF0
:104DA000FFFFFFFFFFFFFFFFCCB1D281F3C0FCC1CB
:104DB000FD02FD02FCE2FCC2FCC2FC81FB80C9C01A
:104DC00081A4AD35CE599C718121DA00FBA1FC8212
:104DD000FCA2FC82FCA2FD02FD22FCE2FC00DA60E7
:104DE000CC90FFFFFFFFFFFFFFFFFFFFFFFFFFFF75
:104DF000FFFFFFFFFFFFFFFFFFFFDE59C40DCB06E4
:104E0000D2E4DB03DB03DAE3D2C3C2A4B309BCD22E
:104E1000F79EFFFFFFFFFFFFE6FBB40EBAA6D283AB
:104E2000E2E3EB02EB22E322DB03D2E4C36AD5B672
:104E3000FFFFFFFFFFFFFFFFFFFF0000000000007C
:104E4000000000000000000004040404040000044A
:104E5000000014140A000000000000000000000020
:104E60000A0A1F0A0A1F0A0A000000040E15050696
:104E70000C14150E0400000012150D152E2C2A120C
:104E800000000000040A0A36151529160000020267
:104E900001000000000000000000100808040404E5
:104EA00004040808100002040408080808080404A0
:104EB000020000000004150E0E15040000000000A2
:104EC0000008083E08080000000000000000000084
:104ED00000000202010000000000003F000000008E
:104EE00000000000000000000000000200000020A0
:104EF0001010080804040202010000000E11111134
:104F00001111110E00000000040604040404040E34
:104F1000000000000E1111080402011F0000000033
:104F20000E11100C1010110E00000000080C0C0ADD
:104F3000091F081C000000001F01010F1110110EB5
:104F4000000000000C12010D1311110E00000000F2
:104F50001E10080804040404000000000E11110EC5
:104F60001111110E000000000E1111191610090682
:104F70000000000000000400000000040000000029
:104F800000000004000000040400000010080402F7
:104F9000020408100000000000003F003F00000075
:104FA00000000000020408101008040200000000C5
:104FB0000E11110804040004000000001C22292D19
:104FC0002D1D221C0000000004040C0A0A1E1233CE
:104FD000000000000F12120E1212120F000000004B
:104FE0001E1101010101110E000000000F1212122A
:104FF0001212120F000000001F120A0E0A02121FE6
:10500000000000001F120A0E0A0202070000000042
:105010001C1201013911120C000000003312121E83
:1050200012121233000000001F0404040404041FC1
:10503000000000003E0808080808080809070000EA
:1050400037120A060A121237000000000702020295
:105050000202223F000000003B1B1B1B15151535EB
:10506000000000003B1216161A1A1217000000006A
:105070000E1111111111110E000000000F12120E6D
:1050800002020207000000000E1111111117190E83
:10509000180000000F12120E0A1212370000000052
:1050A0001E1101060810110F000000001F15040456
:1050B0000404040E00000000331212121212120C2B
:1050C000000000003312120A0A0C04040000000061
:1050D000151515150E0A0A0A000000001B0A0A041D
:1050E000040A0A1B000000001B0A0A0A0404040E3A
:1050F000000000001F0908040402121F00001C0425
:1051000004040404040404041C0000020204040453
:105110000808081010000E08080808080808080801
:105120000E00040A00000000000000000000000063
:105130000000000000000000003F0204000000002A
:1051400000000000000000000000000C121C123CD7
:10515000000000030202020E1212120E00000000F4
:105160000000001C1202120C000000181010101C8D
:105170001212123C000000000000000C121E021C63
:10518000000000182404041E0404041E0000000093
:105190000000003C120C021C221C00030202020E42
:1051A0001212123700000004040000060404040E6A
:1051B000000000080800000C0808080808070003A1
:1051C0000202021A0A060A1300000007040404047B
:1051D0000404041F000000000000000F1515151541
:1051E000000000000000000F121212370000000043
:1051F0000000000C1212120C000000000000000F52
:105200001212120E020700000000001C1212121CE3
:10521000103800000000001B06020207000000001A
:105220000000001E020C101E000000000004041EFE
:105230000404041C000000000000001B1212123CB9
:10524000000000000000001B0A0A04040000000027
:1052500000000015150E0A0A000000000000001BE7
:105260000A040A1B000000000000003312120C08A0
:10527000040300000000001E0804041E00001808BB
:105280000808080C08080808180008080808080892
:1052900008080808080806040404040804040404B0
:1052A00006001609000000000000000000000000D9
:1052B00000000000000000000000000000000000EE
:1052C000000808080808080800001818000000482E
:1052D0006C2412000000000000000000000000002C
:1052E000002424247F1212127F12121200000000E8
:1052F000081C2A2A0A0C1828282A2A1C0808000038
:105300000022251515152A58545454220000000077
:10531000000C1212120A76252911916E0000000667
:105320000604030000000000000000000000004030
:10533000201010080808080808101020400000027B
:1053400004080810101010101008080402000000D3
:10535000000008086B1C1C6B08080000000000001F
:105360000000080808087F0808080800000000007E
:10537000000000000000000000000606040300001A
:10538000000000000000FE0000000000000000001F
:105390000000000000000000000006060000000001
:1053A0008040402020101008080404020200000081
:1053B00000182442424242424242241800000000A7
:1053C00000080E08080808080808083E0000000049
:1053D000003C4242422020100804427E00000000AF
:1053E000003C4242201820404042221C00000000A5
:1053F00000203028242422227E2020780000000073
:10540000007E0202021A26404042221C00000000D8
:1054100000382402021A26424242241800000000EA
:10542000007E22221010080808080808000000006A
:10543000003C4242422418244242423C0000000008
:1054400000182442424264584040241C00000000DE
:1054500000000000181800000000181800000000EC
:105460000000000000080000000000080804000020
:105470000040201008040204081020400000000032
:10548000000000007F0000007F000000000000001E
:105490000002040810204020100804020000000050
:1054A000003C424246402010100018180000000046
:1054B000001C225A555555552D42221C0000000053
:1054C000000808181414243C224242E7000000009F
:1054D000001F2222221E22424242221F0000000000
:1054E000007C4242010101010142221C0000000037
:1054F000001F2242424242424242221F000000005C
:10550000003F4212121E12120242423F00000000EF
:10551000003F4212121E1212020202070000000097
:10552000003C2222010101712122221C0000000006
:1055300000E7424242427E42424242E7000000000F
:10554000003E0808080808080808083E0000000097
:10555000007C10101010101010101010110F00000F
:10556000007722120A0E0A1212222277000000008F
:1055700000070202020202020202427F0000000053
:105580000077363636362A2A2A2A2A6B000000008F
:1055900000E346464A4A5252526262470000000007
:1055A000001C2241414141414141221C00000000B8
:1055B000003F424242423E02020202070000000057
:1055C000001C2241414141414D53321C600000000A
:1055D000003F4242423E1212222242C70000000017
:1055E000007C4242020418204042423E000000007B
:1055F000007F4908080808080808081C0000000087
:1056000000E74242424242424242423C0000000025
:1056100000E7424222242414141808080000000065
:10562000006B4949494955553622222200000000A5
:1056300000E7422424181818242442E70000000040
:1056400000772222141408080808081C0000000033
:10565000007E2120101008040442423F0000007820
:105660000808080808080808080808087800000062
:105670000202040408080810102020204040001EE8
:105680001010101010101010101010101E00003804
:1056900044000000000000000000000000000000C6
:1056A00000000000000000000000000000FF0006F5
:1056B00008000000000000000000000000000000E2
:1056C00000000000003C4278444242FC0000000020
:1056D00000030202021A26424242261A000000007B
:1056E00000000000003844020202443800000000BC
:1056F0000060404040784442424264D800000000CC
:1057000000000000003C427E0202423C000000001B
:1057100000F08808087E08080808083E000000001D
:1057200000000000007C22221C023C42423C00009F
:1057300000030202023A4642424242E700000000F1
:10574000000C0C00000E08080808083E00000000CD
:10575000003030000038202020202020221E0000B1
:10576000000302020272120A1612227700000000E1
:10577000000E0808080808080808083E0000000095
:1057800000000000007F9292929292B70000000009
:1057900000000000003B4642424242E70000000099
:1057A00000000000003C42424242423C0000000037
:1057B00000000000001B26424242221E0207000099
:1057C00000000000007844424242447840E000007B
:1057D0000000000000774C040404041F00000000D7
:1057E00000000000007C42023C40423E00000000FD
:1057F00000000008083E0808080808300000000003
:105800000000000000634242424262DC00000000EF
:105810000000000000E742242414080800000000F3
:105820000000000000EB494955552222000000000D
:1058300000000000007624181818246E00000000F4
:105840000000000000E742242414180808070000A4
:1058500000000000007E22100808447E000000C006
:10586000202020202010202020202020C0001010E8
:105870001010101010101010101010101010000642
:1058800008080808081008080808080806000C326C
:10589000C200000000000000000000000000000046
:1058A00000000000000000000000000000000000F8
:1058B00000000000000000000000000000000000E8
:1058C00000000000000000000000000000000000D8
:1058D000000000000000E000E000E000E000E00068
:1058E0004000400040004000400040000000000038
:1058F0000000E000E000E000000000000000000008
:105900000000600660063003980188004400000033
:105910000000000000000000000000000000000087
:105920000000000000000000000000000000000077
:10593000000000000000000008020802080208023F
:10594000FE07FE070802080204010401FE07FE0725
:105950000401040104010401000000000000000033
:105960000000000040004000F00158034C034C03CD
:105970004C0058007000E000C001C00140034C031F
:105980004C034C034801F0004000400000000000C0
:1059900000000000000000000E030A011101910048
:1059A0009100D1005100FA03AE026004500450048B
:1059B000580448048802840300000000000000002E
:1059C0000000000000000000380064006400640073
:1059D0006400A4031C010C011A019200B300E3004F
:1059E0006300C300A6041C030000000000000000C8
:1059F00000000C001C001000100008000600000051
:105A00000000000000000000000000000000000096
:105A10000000000000000000000000000000000086
:105A2000000000040002000180018000C000C000EE
:105A30006000600060006000600060006000C00006
:105A4000C00080008001000100020004000000008E
:105A500000000200040008001800100030003000B0
:105A60006000600060006000600060006000300066
:105A700030001000180008000400020000000000C0
:105A80000000000000000000000040004000400056
:105A90004E0E5C07F001F0015C074E0E4000400026
:105AA00040000000000000000000000000000000B6
:105AB0000000000000000000000000004000400066
:105AC000400040004000FE0F400040004000400009
:105AD0004000000000000000000000000000000086
