:10603B0053B1FB43B204124962125823123F6D1243
:10604B004780124B0C1257541259A812558B123D04
:03605B002B80E6B1
:10142B00514474656368B0E6C8A8CBF9D3D000D635
:10143B00D0BEB0D4B0B5E7D7D3D7DBBACFB2E2CA00
:10144B00D4B3CCD0F200D6D0BEB0D4B0B5E7D7D39E
:10145B0000D7DBBACFB2E2CAD4B3CCD0F200332E72
:10146B00322720494C493933343120323430583308
:10147B00323000D6D0BEB0D4B020323031342D3023
:10148B00322D323500B2E2CAD4313AB4BFC9ABCC3B
:10149B00EEB3E4B2E2CAD400576869746500426CDB
:1014AB0061636B0052656400477265656E00426C48
:1014BB00756500B2E2CAD4323A475549BED8D0CE90
:1014CB00CCEEB3E4B2E2CAD400B2E2CAD4333A47A8
:1014DB005549BBADD4B2CCEEB3E4B2E2CAD400B240
:1014EB00E2CAD4343AD3A2CEC4CFD4CABEB2E2CA73
:1014FB00D400365831323A61626364656667686955
:10150B006A6B6C6D6E6F70717273747576777879B8
:10151B007A00365831323A414243444546474849AE
:10152B004A4B4C4D4E4F50303132333435363738C1
:10153B003900365831323A7E21402324255E262A43
:10154B0028295F2B7B7D3A3C3E3F2F7C2D2B2E0099
:10155B00385831363A6162636465666768696A6BED
:10156B006C6D6E6F7071727374757677003858315D
:10157B00363A4142434445464748494A4B4C4D4E07
:10158B00303132333435363700385831363A7E21E4
:10159B00402324255E262A28295F2B7B7D3A3C3E5F
:1015AB003F2F7C00B2E2CAD4353AD6D0CEC4CFD4CA
:1015BB00CABEB2E2CAD40031365831363AD6D0BEA2
:1015CB00B0D4B0B5E7D7D3BCBCCAF5D3D0CFDEB956
:1015DB00ABCBBEBBB6D3ADC4FA0031365831363ABD
:1015EB0057656C636F6D65D6D0BEB0D4B0B5E7D719
:1015FB00D30032345832343AD6D0BEB0D4B0D6D071
:10160B00CEC4B2E2CAD40033325833323AD7D6CC36
:10161B00E5B2E2CAD400B2E2CAD4363ACDBCC6AC0B
:10162B00CFD4CABEB2E2CAD400515100B2E2CAD47E
:10163B00373A546F756368B2E2CAD4005253540000
:10164B00FFFFFFFFFFFFFFFFFFFFFFFFFFFFFFFF9F
:10165B00FFFFFFFFFFFFFFFFFFFFFFFFFFFFBEF7D8
:10166B00FFFFDEFF38C6928C8E6B6E6B107C96ADD7
:10167B003CE7FFFFFFFFFFFFFFFFFFFFFFFFFFFF4A
:10168B00FFFFFFFFFFFFFFFFFFFFFFFFFFFFFFFF5F
:10169B00FFFFFFFFFFFFFFFFFFFFFFFFFFFFFFFF4F
:1016AB00FFFFFFFFFFFFFFFFFFFFFFFFFFFF5DEFF1
:1016BB00159D4F636C420A3288294619251945211D
:1016CB00E8318E6B38C6FFFFFFFFFFFFFFFFFFFF09
:1016DB00FFFFFFFFFFFFFFFFFFFFFFFFFFFFFFFF0F
:1016EB00FFFFFFFFFFFFFFFFFFFFFFFFFFFFFFFFFF
:1016FB00FFFFFFFFFFFFFFFFFFFFFFFF36A51053AD
:10170B00104B51530F4B6C3AE93167212519E410FB
:10171B00A30862008308CB529AD6FFFFFFFFFFFF9F
:10172B00FFFFFFFFFFFFFFFFFFFFFFFFFFFFFFFFBE
:10173B00FFFFFFFFFFFFFFFFFFFFFFFFFFFFFFFFAE
:10174B00FFFFFFFFFFFFFFFF3CE77063B363B87C56
:10175B00F56311434D32EA2988212619051905191C
:10176B0004110411E4108300A308728CFFFFFFFF28
:10177B00FFFFFFFFFFFFFFFFFFFFFFFFFFFFFFFF6E
:10178B00FFFFFFFFFFFFFFFFFFFFFFFFFFFFFFFF5E
:10179B00FFFFFFFFFFFFDBDE4B3AF042356C544B94
:1017AB00B1322E2AEB21A921671905190411041155
:1017BB000411041104110519E4104200AF73FFFF6B
:1017CB00FFFFFFFFFFFFFFFFFFFFFFFFFFFFFFFF1E
:1017DB00FFFFFFFFFFFFFFFFFFFFFFFFFFFFFFFF0E
:1017EB00FFFFFFFF5DEF09324C32104B8F324F2A58
:1017FB002E2ACC19891989214719051904110411AD
:10180B00C410C410041104110411E41042003184FB
:10181B00FFFFFFFFFFFFFFFFFFFFFFFFFFFFFFFFCD
:10182B00FFFFFFFFFFFFFFFFFFFFFFFFFFFFFFFFBD
:10183B00FFFFFFFFEC5247194C320B2AEC21EC2136
:10184B000C22915BEE4A061126190419E410E410E0
:10185B00A7296621A308051904110411E4108200BD
:10186B00F7BDFFFFFFFFFFFFFFFFFFFFFFFFFFFFC7
:10187B00FFFFFFFFFFFFFFFFFFFFFFFFFFFFFFFF6D
:10188B00FFFF35A58308882188218921AA218A2178
:10189B006B42718CFFFF728C83080411C4082942C0
:1018AB00FBDE5DEFEC5A830804110411041183086D
:1018BB00E831DFFFFFFFFFFFFFFFFFFFFFFFFFFF32
:1018CB00FFFFFFFFFFFFFFFFFFFFFFFFFFFFFFFF1D
:1018DB00BEF7C731C4102519261947194719A8296E
:1018EB008A52284A55ADFFFFE831A30805194D6B05
:1018FB004D6BFFFF7DEF4521C41004110411041142
:10190B00620076ADFFFFFFFFFFFFFFFFFFFFFFFF53
:10191B00FFFFFFFFFFFFFFFFFFFFFFFFFFFFFFFFCC
:10192B0096B562000411041905110519C4088B4AF8
:10193B00B6B55DEFF7BDFFFF8E6B62002942AA5A69
:10194B000842FFFFFFFFCC5283080411041104115E
:10195B00A308AD52FFFFFFFFFFFFFFFFFFFFFFFFDE
:10196B00FFFFFFFFFFFF1CE7FFFFFFFFFFFFFFFF77
:10197B004E636200041104110411E41062008E63C3
:10198B00FFFFFFFFFFFFFFFFCF730100F39C2C63F3
:10199B0096B5FFFFFFFF2D5B8300041104110411AB
:1019AB00E41067213DEFFFFFFFFFFFFFFFFFFFFF8E
:1019BB00F8BDB7B59EEFCB52B394FFFFFFFFDFFF30
:1019CB00E831A3080411041104110411A3084942BE
:1019DB00FFF7FFF7FFFFFFFF6A4A01007284FFFF6B
:1019EB00FFFFFFF7DFEF093AA308041104110411FD
:1019FB000411051118BEFFFFFFFFFFFFFFFFFFFFE5
:101A0B00F07B6200E831C731410035A5FFFF5DEF88
:101A1B004621C4100411041104110411E410A3088D
:101A2B00769DFFF7FFFFB7ADA308A308C7319EE76D
:101A3B00FFF7FFF776A5A308E410041104110411B6
:101A4B000511051135A5FFFFFFFFFFFFFFFFFFFF8F
:101A5B00DBDEA7298300C410C410C4101CE79EEF63
:101A6B000511E41004110411041104110419C40824
:101A7B00E510D16BD16BC5086400A50843002B3270
:101A8B00779DB3842519C41004110411041104119A
:101A9B0025192609359DFFFFFFFFFFFFFFFFFFFF06
:101AAB00FFFFAF7362000419051982000D5B8E9B5B
:101ABB0062100511041104110419E41085000511BD
:101ACB00C439815A407B229C43AC03A4839B827212
:101ADB008249C218A400C500E410041904110519A9
:101AEB0047196711EC5ABEFFFFFFFFFFFFFFFFFF18
:101AFB00DFFFDBDEC410E41004110511A41801C0D4
:101B0B008388E40005190419C5084421438323D5B0
:101B1B0042FEE4FE27FF07FFA4FE64FE03FEA3FDC7
:101B2B00E2FC42EC83B32462E510C40804192619C5
:101B3B00A81987210090D3BCFFFFFFFFFFFFFFFF1A
:101B4B00DFFFFFFF107C420005190511832801D030
:101B5B0044F8A348E400C508445A02EDE2FD02FE36
:101B6B0066FE74FFB8FF73FFE7F6A6F645F6A4F51D
:101B7B00C3FC62FCC2FCC2FCE3CBC449061188194E
:101B8B008701A49001F8EC9AFFFFFFFFFFFFFFFF17
:101B9B00FFFFFFFFBEF7E83183000509824001C05C
:101BAB0023F885F0A348A400445A02FD23CCC2DCE1
:101BBB0004FE28FE48F646F624F6E4F564FDE3FC45
:101BCB0062FCC2FC02E402DCE2FCA47A480167017D
:101BDB00C47824F802F884B07DE7FFFFFFFFFFFF16
:101BEB00FFFFFFFFFFFFDBDE2519A300C43802E078
:101BFB0022D844F8A6F8A478630043218372833972
:101C0B00829B21F561FD22FDE2FCA2FC42FC42FC21
:101C1B0042FC22AB8341C392045226012519A4989E
:101C2B0044F823F802F8A4D09EEFFFFFFFFFFFFF5D
:101C3B00FFFFFFFFFFFFFFFF9AD68729A50043B8E1
:101C4B0022F823E065F8E8F807C983484200A300AF
:101C5B0084006329A27A62B3A2CB62D302BB828ACD
:101C6B008339A400E500E500E508C46064D844F8B6
:101C7B0024F823F802F88388DBC6FFFFFFFFFFFF82
:101C8B00FFFFFFFFFFFFFFFFFFFF3DE7505B08314B
:101C9B0023E843F844F065F809F9ABF989D10689D3
:101CAB00A3484218020042006100820062006200F9
:101CBB008300A320C450A58885D865F844F844F860
:101CCB0023F823F803D08210C7295DEFFFFFFFFF36
:101CDB00FFFFFFFFFFFFFFFFFFFFFFFFFFFF6C3269
:101CEB00A53802D823F865F866F8A7F84AF90CFA74
:101CFB004DFA4CEA0BD2A9B968B147A927B107B97C
:101D0B0007D1E7E8C7F8A7F865F865F844F823F8B2
:101D1B0003F802D0A3280509C408EC5AFFFFFFFF04
:101D2B00FFFFFFFFFFFFFFFFFFFFFFFFFBDE0519BD
:101D3B00C400A741E6C003F886F8A7F887F886F831
:101D4B00C7F829F98AF9ABF9ABF98BF96AF929F9D3
:101D5B0008F9C7F8A6F886F865F864F823F802F0D6
:101D6B0006B12529E400E41025192519149DFFFF60
:101D7B00FFFFFFFFFFFFFFFFFFFFFFFF96AD6200BF
:101D8B0082083595BACE8BA244D025F887F8A7F8F0
:101D9B00C7F8A7F887F886F886F886F887F8A7F8C3
:101DAB00A7F8A6F885F865F864F824F064B80D93E5
:101DBB00BBB6CF6383080411E4106621493A5DEF8B
:101DCB00FFFFFFFFFFFFFFFFFFFFFFFFD39442006B
:101DDB00E410BBCEFFFFBEE776B5CCAA07C145E04A
:101DEB0045F846F866F886F886F886F886F865F8BA
:101DFB0045F865F865E844D043A8018882903CD744
:101E0B00FFEF559583080411041105194619B39476
:101E1B00FFFFFFFFFFFFFFFFFFFFFFFFB39441003B
:101E2B0086215DDFFFFFFFFFFFFFDFE77AC6D3B43D
:101E3B004EB32AC268D1E6E0A6E8A5E8A5E8E6D845
:101E4B0088C906A922A802A800A000C800D8F7E5F7
:101E5B00FFE7F8ADC410E4100411E41005118B4A30
:101E6B00FFFFFFFFFFFFFFFFFFFFFFFF55A5410038
:101E7B00A7295DDFFFF7FFFFFFFFFFFFFFFFFFFF5F
:101E8B00FFEF7DDFDBCE59CEF8CDD7CDF7C579CEC1
:101E9B00FBBEABA203F045F842D043E800F072D48E
:101EAB00FFDF39AEE410E4100411E41005118729AB
:101EBB00FFFFFFFFFFFFFFFFFFFFFFFF59CE830871
:101ECB0046211CD7FFF7FFFFFFFFFFFFFFFFFFFFC1
:101EDB00FFFFFFFFFFFFFFFFFFFFFFFFFFFFFFFF07
:101EEB00FFEF8BBA04F845F862E044F000F88EDBA4
:101EFB00FFDFF8A5C410E410E4100411E410251959
:101F0B00FFFFFFFFFFFFFFFFFFFFFFFFBEF787296D
:101F1B00830839B6FFF7DFF7FFFFFFFFFFFFFFFF78
:101F2B00FFFFFFFFFFFFFFFFFFFFFFFFFFFFFFFFB6
:101F3B00BEE74ABA03F845F864F844F800F86EE3D4
:101F4B00FFD7F48C83080411E410E410E410051996
:101F5B00FFFFFFFFFFFFFFFFFFFFFFFFFFFFEF7322
:101F6B0000007284FFEFBEEFDFFFFFFFFFFFFFFFFD
:101F7B00FFFFFFFFFFFFFFFFFFFFFFFFFFFFFFFF66
:101F8B00DFE78BBA03F845F845F823F800F8D3D40C
:101F9B00FFD74E5B2100293A55A58308C41025199C
:101FAB00FFFFFFFFFFFFFFFFFFFFFFFFFFFFFBDE5B
:101FBB00A308E8319EDF9EE7BFEFFFFFFFFFFFFFA8
:101FCB00FFFFFFFFFFFFFFFFFFFFFFFFFFFFFFFF16
:101FDB00FFF751BC02E003F803F043E0ECC27ECF05
:101FEB00FCBE46212100D394FFFF518400008729BA
:101FFB00FFFFFFFFFFFFFFFFFFFFFFFFFFFFFFFFE6
:10200B0051840000F48CFFEF9EE7BFEFDFFFFFFF73
:10201B00FFFFFFFFFFFFFFFFFFFFFFFFFFFFFFFFC5
:10202B00FFFF3DDF55BD52BC72BCB7B55DC7FFDFCF
:10203B00F06B0000093ABFF7FFFFFFFF149D55A59A
:10204B00FFFFFFFFFFFFFFFFFFFFFFFFFFFFFFFF95
:10205B00FFFFAC4AA408BBBEDFE77EE7BEEFDFF7AE
:10206B00DFFFFFFFFFFFFFFFFFFFFFFFFFFFFFFF95
:10207B00DFFFDFF7FFEFDFDFBFD79ED7DFDFD8A5AF
:10208B0083082611DBD6FFFFFFFFFFFFFFFFFFFFDC
:10209B00FFFFFFFFFFFFFFFFFFFFFFFFFFFFFFFF45
:1020AB0079EE8BDC2131A9213DCFBFDF7EDF9EE7AF
:1020BB00BEEFBFEFDFF7DFF7DFF7DFF7DFF7BFEFDE
:1020CB00BEEF9EE77EDF5ED75ED7DFDF9AB62619BF
:1020DB004208EDA3BFFFFFFFFFFFFFFFFFFFFFFF67
:1020EB00FFFFFFFFFFFFFFFFFFFFFFFFFFFF74DDA2
:1020FB00C0DB00FE42EE024289217BB6DFDF7ED7DA
:10210B007EDF7EDF9EE79EE79EE79EE79EE77EDF14
:10211B007EDF5DD75DD79EDFFFE7F8A50711E318DC
:10212B0002C560FDE6D3DBEEFFFFFFFFFFFFFFFF06
:10213B00FFFFFFFFFFFFFFFFFFFFFFFF9EF784BACD
:10214B00C1FC42FE82FEA2FE8183452174745EC7F0
:10215B00DFDF7ED75ED75DD75ED75ED75DD75DD726
:10216B005ED79EDFFFE73DC7F1638408425226E648
:10217B0029FF86FEE0F36AC3FFFFFFFFFFFFFFFFB0
:10218B00FFFFFFFFFFFFFFFFFFFFFFFF18DEC1D2C7
:10219B00A2FD22FE42FE42FE62FEE2D4416A4942A9
:1021AB0053743BA63EC7BFD7BFD7BFD7BFDFBFD781
:1021BB003EC71AA6F263A729824122B462FE83FEB0
:1021CB00AAFE0FFF67FD63BA3CEFFFFFFFFFFFFFA8
:1021DB00FFFFFFFFFFFFFFFFFFFFFFFF9AE680D22E
:1021EB0021FDC2FDE2F5C2F582F582FD62FD61DCE7
:1021FB00219B846AE96A2C63AF6311746E632C6351
:10220B00895A0452817AC2CBE2FC62FD82FDC2FD87
:10221B00C2FDE4FD24FD62CA1CE7FFFFFFFFFFFFC9
:10222B00FFFFFFFFFFFFFFFFFFFFFFFFFFFFB1CC34
:10223B0081D2C0F3C1FC02FD02FDE2FCC2FCC2FC78
:10224B0081FC80FBC0C9A48135AD59CE719C218125
:10225B0000DAA1FB82FCA2FC82FCA2FC02FD22FDA7
:10226B00E2FC00FC60DA90CCFFFFFFFFFFFFFFFFFB
:10227B00FFFFFFFFFFFFFFFFFFFFFFFFFFFFFFFF63
:10228B0059DE0DC406CBE4D203DB03DBE3DAC3D2A6
:10229B00A4C209B3D2BC9EF7FFFFFFFFFFFFFBE613
:1022AB000EB4A6BA83D2E3E202EB22EB22E303DB0A
:1022BB00E4D26AC3B6D5FFFFFFFFFFFFFFFFFFFFAF
:0D5F74004A00ACF81FFFE0F80007E0001F36
:065494007BFF7A16793758
:10549A00900005EBF0A3EAF0A3E9F0900082E0FAAD
:1054AA00A3E0FB90000FE4F0A37414F0A3E4F0A3CC
:1054BA00741FF0E4FDFCFFFE12538E900084E0FEA0
:1054CA00A3E0FF24ECFDEE34FFFC900082E0FAA397
:1054DA00E0FB90000FEEF0A3EFF0A3E4F0A3741F3B
:1054EA00F0E4FFFE12538E74FF90007EF0A3F0905A
:1054FA00000EE4F0A3741FF0900005E0F9A3E0FAAF
:10550A00A3E0900010C9F0A3EAF0A3E9F0A3741095
:10551A00F0A37401F074FFFBFA7D027C00E4FFFE45
:10552A00125B12900085E024EEFD900084E034FFC7
:10553A00FC90000EE4F0A3741FF0A374FFF0A374B0
:10554A0014F0A3742BF0A37410F0A37401F074FF89
:10555A00FBFAE4FFFE125B12900082E0FAA3E0FB82
:10556A00900085E024ECFE900084E034FF90000F68
:10557A00F0A3CEF0E4A3F0A3F07D14FCFFFE0253E7
:01558A008E92
:105823007BFF7A14793A12549A90000EE4F0A37431
:105833001FF0A374FFF0A37414F0A37451F0A374C6
:1058430010F0A37401F07B007AF87D1E7C00E4FF66
:10585300FE125B1290000EE4F0A3741FF0A374FF1A
:10586300F0A37414F0A3745CF0A37410F0A3740198
:10587300F07B007AF87D3C7C00E4FFFE125B129023
:10588300000EE4F0A3741FF0A374FFF0A37414F0EC
:10589300A37469F0A37410F0A37401F07BE07AFFA2
:1058A3007D5A7C00E4FFFE125B1290000EE4F0A32D
:1058B300741FF0A374FFF0A37414F0A3747EF0A319
:1058C3007410F0A37401F07B1F7A007D787C00E4F0
:1058D300FFFE125B127FDC7E05125FCA7FDC7E0552
:0358E300025FCA97
:103F6D007BFF7A14799012549A900082E0FAA3E0C4
:103F7D00FB900085E024ECFE900084E034FF90007F
:103F8D000FF0A3CEF074FFA3F0A3F07D147C00E43A
:103F9D00FFFE12538E900083E024CEFF900082E04E
:103FAD0034FFFE90001B74FFF0A374E0F0A374FFC8
:103FBD00F0A37414F0A374A3F0A37410F0A3740110
:103FCD00F07B1F7A007D1E7C001233C17FF47E01D1
:103FDD00125FCA900082E0FAA3E0FB900085E02416
:103FED00ECFE900084E034FF90000FF0A3CEF0E4DF
:103FFD00A3F0A3F07D14FCFFFE12538E900083E01E
:10400D0024CEFF900082E034FFFE90001B74FFF081
:10401D00A374E0F0A374FFF0A37414F0A374A9F0DB
:10402D00A37410F0A37401F07B1F7A007D1E7C0039
:10403D001233C17FF47E01125FCA900082E0FAA3B1
:10404D00E0FB900085E024ECFE900084E034FF90CE
:10405D00000FF0A3CEF0A374F8F0A3E4F07D14FCF0
:10406D00FFFE12538E900083E024CEFF900082E07D
:10407D0034FFFE90001B74FFF0A374E0F0A374FFF7
:10408D00F0A37414F0A374AFF0A37410F0A3740133
:10409D00F07B1F7A007D1E7C001233C17FF47E0100
:1040AD00125FCA900082E0FAA3E0FB900085E02445
:1040BD00ECFE900084E034FF90000FF0A3CEF0A34F
:1040CD007407F0A374E0F07D147C00E4FFFE12533E
:1040DD008E900083E024CEFF900082E034FFFE90AE
:1040ED00001B74FFF0A374E0F0A374FFF0A374142D
:1040FD00F0A374B3F0A37410F0A37401F07B1F7AD6
:10410D00007D1E7C001233C17FF47E01125FCA90C8
:10411D000082E0FAA3E0FB900085E024ECFE900025
:10412D0084E034FF90000FF0A3CEF0A3E4F0A3746D
:10413D001FF07D147C00E4FFFE12538E900083E08F
:10414D0024CEFF900082E034FFFE90001B74FFF040
:10415D00A374E0F0A374FFF0A37414F0A374B9F08A
:10416D00A37410F0A37401F074FFFBFA7D1E7C00A4
:0A417D001233C17FF47E01025FCA15
:10478000E4900000F07BFF7A1479BE12549A9000F6
:1047900082E0FAA3E0FB900085E024ECFE90008428
:1047A000E034FF90000FF0A3CEF074FFA3F0A3F06D
:1047B0007D147C00E4FFFE12538EE4900000F09024
:1047C0000082E0C313FEA3E01324B0FDEE34FFFC2F
:1047D000900000E0F975F00FA4FBAAF02DFFEA3C71
:1047E000FEC006C007900084E0C313FEA3E01324BC
:1047F000B0FFEE34FFCF2BFDEF3AFCC004C00590B4
:104800000082E0C313FCA3E013FDE975F00FA42DB3
:10481000FFE5F03CCF24ECFBEF34FFFAA3E0C31339
:10482000FCA3E013FDE975F00FA42DFFE5F03CCFEC
:1048300024ECCF34FF900007F0A3EFF0D005D004B4
:10484000D007D006125A68900000E025E024ACF5AD
:1048500082E43400F583E0FFA3E090007ECFF0A374
:10486000EFF0900000E004F0E0C39405500302472D
:10487000BF7FDC7E05125FCA900082E0FAA3E0FBF6
:10488000900085E024ECFE900084E034FF90000F5F
:10489000F0A3CEF074FFA3F0A3F07D147C00E4FF3E
:1048A000FE12538EE4900000F0900082E0C313FEED
:1048B000A3E01324B0FDEE34FFFC900000E0F97596
:1048C000F00FA4FBAAF02DFFEA3CFEC006C0079043
:1048D0000084E0C313FEA3E01324B0FFEE34FFCF47
:1048E0002BFDEF3AFCC004C005900082E0C313FC2E
:1048F000A3E013FDE975F00FA42DFFE5F03CCF24F4
:10490000ECFBEF34FFFAA3E0C313FCA3E013FDE9D3
:1049100075F00FA42DFFE5F03CCF24ECCF34FF90D1
:104920000007F0A3EFF0D005D004D007D006126046
:1049300016900000E025E024ACF582E43400F58315
:10494000E0FFA3E090007ECFF0A3EFF0900000E046
:1049500004F0E0C3940550030248A97FDC7E050201
:024960005FCA2C
:104B0C00E4900000F07BFF7A1479D412549A900050
:104B1C0082E0FAA3E0FB900085E024ECFE90008498
:104B2C00E034FF90000FF0A3CEF074FFA3F0A3F0DD
:104B3C007D147C00E4FFFE12538EE4900000F09094
:104B4C000082E0C313FEA3E01324B0FDEE34FFFC9F
:104B5C00900000E0F975F019A4FBAAF02DFFEA3CD7
:104B6C00FEC006C007900084E0C313FEA3E013242C
:104B7C00CEFFEE34FFCF2BFDEF3AFCE925E024AC61
:104B8C00F582E43400F583E0FAA3E0FB900007E43F
:104B9C00F0A3741EF0E4A3F0A3F0D007D0061243E8
:104BAC009F900000E004F0E0C3940540927FDC7E0F
:104BBC0005125FCA900082E0FAA3E0FB900085E04A
:104BCC0024ECFE900084E034FF90000FF0A3CEF0B4
:104BDC0074FFA3F0A3F07D147C00E4FFFE12538E4F
:104BEC00E4900000F0900082E0C313FEA3E01324D5
:104BFC00B0FDEE34FFFC900000E0F975F019A4FB59
:104C0C00AAF02DFFEA3CFEC006C007900084E0C36A
:104C1C0013FEA3E01324CEFFEE34FFCF2BFDEF3AAF
:104C2C00FCE925E024ACF582E43400F583E0FAA33A
:104C3C00E0FB900007E4F0A3741EF0A3E4F0A304DF
:104C4C00F0D007D00612439F900000E004F0E0C3C0
:0B4C5C00940540917FDC7E05025FCADA
:105754007BFF7A1479EA12549A90007E74F8F0A3CD
:10576400E4F0900080F0A3741FF090000A74FFF03E
:10577400A37414F0A374FDF0E4A3F07B0C7D1EFC71
:105784007F0AFE1258E690000A74FFF0A37415F025
:10579400A3741DF0A37401F07B0C7D2D7C007F0AA3
:1057A4007E001258E690000A74FFF0A37415F0A36B
:1057B400743DF0E4A3F07B0C7D3CFC7F0AFE1258A0
:1057C400E690000A74FFF0A37415F0A3745BF0E490
:1057D400A3F07B107D50FC7F0AFE1258E690000A6D
:1057E40074FFF0A37415F0A37478F0A37401F07B34
:1057F400107D647C007F0A7E001258E690000A74D3
:10580400FFF0A37415F0A37494F0E4A3F07B107D6F
:0F58140078FC7F0AFE1258E67FB07E04025FCA5E
:1059A8007BFF7A1579AF12549A90001B74FFF0A30D
:1059B80074E0F0A374FFF0A37415F0A374C2F0A30D
:1059C8007410F0E4A3F07B1FFA7D1EFC7F0AFE1220
:1059D80033C190001B74FFF0A374E0F0A374FFF0D0
:1059E800A37415F0A374E5F0A37410F0A37401F088
:1059F8007B1F7A007D327C007F0A7E001233C190C3
:105A0800001B74FFF0A374E0F0A374FFF0A37415F7
:105A1800F0A374FDF0A37418F0A37401F07B1F7A4F
:105A2800007D467C007F0A7E001233C190001B7403
:105A3800FFF0A374E0F0A374FFF0A37416F0A3744E
:105A480012F0A37420F0A37401F07B1F7A007D6428
:105A58007C007F0A7E001233C17FB07E04025FCAD9
:10558B007BFF7A16792112549A900082E0FAA3E0FD
:10559B00FB900085E024ECFE900084E034FF90004B
:1055AB000FF0A3CEF074FFA3F0A3F07D147C00E406
:1055BB00FFFE12538E7BFF7A16794B7D1E7C007F8C
:1055CB001E7E0012568190001B74FFF0A374E0F056
:1055DB00A374FFF0A37416F0A37434F0A37410F04B
:1055EB00A37401F07B1F7A007D4B7C007F2A7E0029
:1055FB001233C17BFF7A16794B7D1E7C007F5A7E5E
:10560B000012568190001B74FFF0A374E0F0A3749A
:10561B00FFF0A37416F0A37434F0A37410F0A3740A
:10562B0001F07B1F7A007D4B7C007F667E0012337E
:10563B00C17BFF7A16794B7D1E7C007F967E001214
:10564B00568190001B74FFF0A374E0F0A374FFF07D
:10565B00A37416F0A37434F0A37410F0A37401F0C8
:10566B007B1F7A007D4B7C007FA27E001233C17FB3
:06567B00B07E04025FCACC
:103D2B00E4900000F0A3F0A3F0A3F0A3F0125494DE
:103D3B00900083E024E8FF900082E034FFFE9000C7
:103D4B000A74FFF0A37416F0A37447F0A37401F088
:103D5B007B10E4FDFC1258E6900082E0FCA3E0FD32
:103D6B0024CCFFEC34FFFEED24E2FBEC34FFFA90A5
:103D7B00000FE4F0A37412F0A374F8F0A3E4F07D49
:103D8B0002FC12538E90007E74F8F0A3E4F0124EF6
:103D9B00FBEF7003023F63900082E0FEA3E0FF9015
:103DAB000093E0FCA3E0FDC39FEC9E50E1900084E8
:103DBB00E0FEA3E0FF900095E0FAA3E0FBC39FEACF
:103DCB009E50CB900083E024E8FF900082E034FF0C
:103DDB00FED3ED9FEC9E407BEB9410EA9400507366
:103DEB00125494900003E0FFA3E090007ECFF0A369
:103DFB00EFF0900083E024E8FF900082E034FFFEB8
:103E0B0090000A74FFF0A37416F0A37447F0A37428
:103E1B0001F07B10E4FDFC1258E6900082E0FCA35D
:103E2B00E0FD24CCFFEC34FFFEED24E2FBEC34FF91
:103E3B00FA90000FE4F0A37412F090007EE0FDA363
:103E4B00E0900011CDF0A3EDF07D027C0012538EBB
:103E5B00023D99900082E0FEA3E0FF24C4FDEE3406
:103E6B00FFFC900093E0FAA3E0FBD39DEA9C500388
:103E7B00023F47EF24E2FFEE34FFFEC3EB9FEA9EC7
:103E8B004003023F47C3900096E09414900095E0E6
:103E9B0094004003023F47900082E0FCA3E0FD2426
:103EAB00CCFFEC34FFFEC006C007ED24E2FBEC3484
:103EBB00FFFA90000FE4F0A37412F0900001E0FE03
:103ECB00A3E0FF7C007D0512319CED25E0FFEC3378
:103EDB00FE74AC2FF58274003EF583E0FFA3E090F7
:103EEB000011CFF0A3EFF0D007D0067D027C0012BB
:103EFB00538E900001E475F001123207AFF0FE7C97
:103F0B00007D0512319CED25E0FFEC33FE74AC2FE8
:103F1B00F58274003EF583E0FFA3E090007ECFF0C6
:103F2B00A3EFF090007EE0FFA3E0900003CFF0A39F
:103F3B00EFF07F0A7E00125FCA023D99900093E07A
:103F4B00FEA3E0FFA3E0FCA3E0FD90007EE0FAA35C
:103F5B00E0FB125D2C023D997F0A7E00125FCA02C4
:023F6B003D997E
:1000030000000000000000000000000000000404E5
:10001300040404040004000000140A0A00000000A1
:1000230000000000000014143F140A3F0A0A0000F5
:1000330000041E1505060C14150F0400000012150C
:100043000D0A142C2A1200000000040A0A1E1515BA
:100053000936000000020201000000000000000059
:1000630000201008080808080810200000020408EF
:10007300080808080804020000000004150E0E1505
:100083000400000000000404041F04040400000032
:100093000000000000000000000202010000000058
:1000A300001F00000000000000000000000000002E
:1000B3000002000000100808080404020202010004
:1000C30000000E1111111111110E000000000406A1
:1000D30004040404040E000000000E1111080402BD
:1000E300011F000000000E11100C1010110E000073
:1000F3000000080C0A0A091E0818000000001F016E
:10010300010F1010110E000000000E09010F111154
:10011300110E000000001F09080404040404000079
:1001230000000E11110E1111110E000000000E112E
:1001330011111E10120E0000000000000400000048
:10014300000400000000000000040000000404009C
:100153000020100804020408102000000000000022
:100163001F00001F000000000002040810201008F8
:100173000402000000000E11110804040004000032
:1001830000000E111915151D011E000000000404C6
:100193000C0A0A1E1233000000000F12120E121274
:1001A300120F000000001E1101010101110E0000D9
:1001B30000000F1212121212120F000000001F1281
:1001C3000A0E0A02121F000000001F120A0E0A0282
:1001D3000207000000001C1201013911120C00007B
:1001E30000003312121E12121233000000001F040B
:1001F30004040404041F000000003E080808080863
:1002030008090700000037120A060A0A123700001D
:100213000000070202020202223F000000001B1B33
:100223001B1B15151515000000003B1216161A1A94
:100233001217000000000E1111111111110E000010
:1002430000000F12120E02020207000000000E113E
:1002530011111117190E180000000F12120E0A12B5
:100263001237000000001E1101060810110F0000D4
:1002730000001F1504040404040E000000003312E0
:1002830012121212120C000000003312120A0A0C8E
:100293000404000000001515150E0A0A0A0A0000DE
:1002A30000001B0A0A04040A0A1B000000001B0AC0
:1002B3000A040404040E000000001F0908040402D9
:1002C300121F0000001C04040404040404041C00A2
:1002D300000202020404080808100000000E0808C7
:1002E3000808080808080E0000040A0000000000BF
:1002F3000000000000000000000000000000003FBC
:1003030000040000000000000000000000000000E6
:10031300000C121C123C000000000302020E121219
:10032300120E000000000000001C1202021C00005C
:1003330000001810101C1212123C000000000000F4
:10034300000C121E021C000000003804041E0404EA
:10035300041E000000000000003C120C021E221CC0
:1003630000000302020E1212123700000000040004
:1003730000060404040E000000000800000C080836
:100383000808080700000302023A0A0E12370000A9
:100393000000070404040404041F0000000000001C
:1003A300000F15151515000000000000000F1212B4
:1003B3001237000000000000000C1212120C0000A3
:1003C30000000000000F1212120E020700000000CE
:1003D300001C1212121C103800000000001B060241
:1003E3000207000000000000001E020C101E0000A7
:1003F30000000004040E04040418000000000000C0
:10040300001B1212123C0000000000000037120A09
:100413000C040000000000000015150E0A0A00007D
:1004230000000000001B0A040A1B0000000000007B
:100433000037120A0C04040300000000001E080425
:10044300041E00000018080808040808080818001B
:10045300080808080808080808080808000604042B
:100463000408040404040600022518000000000028
:100473000000000000000000000000000000000079
:100483000000000000000008080808080808000031
:100493001818000000486C2412000000000000003F
:1004A300000000000000002424247F1212127F1297
:1004B300121200000000081C2A2A0A0C1828282AF5
:1004C3002A1C080800000022251515152A58545423
:1004D300542200000000000C1212120A7625291182
:1004E300916E0000000606040300000000000000F7
:1004F3000000000000402010100808080808081039
:1005030010204000000204080810101010101008FA
:10051300080402000000000008086B1C1C6B08089C
:100523000000000000000000080808087F08080811
:1005330008000000000000000000000000000000B0
:10054300060604030000000000000000FE00000097
:100553000000000000000000000000000000000098
:100563000606000000008040402020101008080408
:100573000402020000000018244242424242424266
:1005830024180000000000080E08080808080808DE
:10059300083E00000000003C4242422020100804B4
:1005A300427E00000000003C4242201820404042AE
:1005B300221C0000000000203028242422227E2058
:1005C300207800000000007E0202021A264040420A
:1005D300221C0000000000382402021A2642424274
:1005E300241800000000007E2222101008080808CA
:1005F300080800000000003C424242241824424202
:10060300423C00000000001824424242645840402B
:10061300241C000000000000000018180000000067
:10062300181800000000000000000008000000008F
:100633000008080400000040201008040204081009
:10064300204000000000000000007F0000007F0049
:1006530000000000000000020408102040201008E1
:10066300040200000000003C4242464020101000FB
:10067300181800000000001C225A555555552D42EC
:10068300221C00000000000808181414243C224215
:1006930042E700000000001F2222221E22424242A3
:1006A300221F00000000007C4242010101010142BF
:1006B300221C00000000001F2242424242424242EA
:1006C300221F00000000003F4212121E12120242BB
:1006D300423F00000000003F4212121E12120202AB
:1006E300020700000000003C2222010101712122C7
:1006F300221C0000000000E7424242427E42424286
:1007030042E700000000003E08080808080808083F
:10071300083E00000000007C101010101010101094
:100723001010110F0000007722120A0E0A12122273
:100733002277000000000007020202020202020206
:10074300427F000000000077363636362A2A2A2AEE
:100753002A6B0000000000E346464A4A52525262A6
:10076300624700000000001C2241414141414141D8
:10077300221C00000000003F424242423E020202AD
:10078300020700000000001C2241414141414D533A
:10079300321C60000000003F4242423E12122222FD
:1007A30042C700000000007C42420204182040427D
:1007B300423E00000000007F4908080808080808B6
:1007C300081C0000000000E742424242424242420B
:1007D300423C0000000000E7424222242414141883
:1007E300080800000000006B494949495555362265
:1007F30022220000000000E74224241818182424B1
:1008030042E70000000000772222141408080808B9
:10081300081C00000000007E212010100804044280
:10082300423F00000078080808080808080808087C
:1008330008087800000002020404080808101020C9
:1008430020204040001E1010101010101010101027
:1008530010101E00003844000000000000000000DB
:100863000000000000000000000000000000000085
:10087300000000FF00060800000000000000000068
:1008830000000000000000000000003C42784442E9
:1008930042FC0000000000030202021A2642424208
:1008A300261A000000000000000000384402020283
:1008B3004438000000000060404040784442424217
:1008C30064D80000000000000000003C427E0202E9
:1008D300423C0000000000F08808087E0808080871
:1008E300083E0000000000000000007C22221C02E1
:1008F3003C42423C000000030202023A46424242AA
:1009030042E700000000000C0C00000E0808080875
:10091300083E000000000030300000382020202076
:100923002020221E0000000302020272120A161285
:10093300227700000000000E0808080808080808CD
:10094300083E0000000000000000007F9292929297
:1009530092B70000000000000000003B4642424204
:1009630042E70000000000000000003C4242424217
:10097300423C0000000000000000001B26424242EF
:10098300221E020700000000000000784442424299
:10099300447840E000000000000000774C040404A9
:1009A300041F0000000000000000007C42023C40E5
:1009B300423E0000000000000008083E0808080846
:1009C3000830000000000000000000634242424281
:1009D30062DC000000000000000000E74224241451
:1009E3000808000000000000000000EB49495555CD
:1009F30022220000000000000000007624181818CE
:100A0300246E000000000000000000E742242414CC
:100A130018080807000000000000007E22100808E4
:100A2300447E000000C02020202020102020202011
:100A33002020C000101010101010101010101010F3
:100A43001010101000060808080808100808080805
:100A5300080806000C32C20000000000000000007D
:100A630000000000D6D001000100010001003FF8A2
:100A7300210821082108210821083FF82108010045
:100A8300010001000100BEB01FF010101FF0101094
:100A93001FF00100FFFE00001FF0101010101FF0E8
:100AA3000100210845040200D4B000007FFC40048B
:100AB3004FE4400440045FF44484448444844894F1
:100AC3004894507440047FFC4004B5E701000100E2
:100AD30001003FF82108210821083FF821082108D7
:100AE30021083FF8210A0102010200FED7D30000CA
:100AF3007FF800100020004001800100FFFE01008C
:100B03000100010001000100010005000200BCBC5E
:100B130010201020102013FEFC201020102015FCA4
:100B230018843088D0481050102010505188260661
:100B3300CAF501000120011001107FFC038005406C
:100B43000540092011102108410481020100010020
:100B53000100D3D002000200FFFE040004000FF0E6
:100B6300081018102FF0481088100FF00810081004
:100B730008500820CFDE00007BF84A08520853F8DB
:100B8300620852084BF84A444A486A3052204210DD
:100B9300428843064200B9AB0080048004800840C9
:100BA3000840102020104208820604000440082058
:100BB30010203FF010100000CBBE00003FF80008EB
:100BC30000087FE8000800081F8810881088108834
:100BD30010881F88108800280010BBB60080008092
:100BE300FC8004FC050449082A401440104028A056
:100BF30024A045108110020804040802D3AD0000AC
:100C03002080133C122402240224F22412241224EE
:100C130012B4132812201020282047FE0000C4FA23
:100C23000900090011FC3204544899501148124438
:100C330014441140108002005104511290120FF01D
:100C4300B4BF00000020102013FE202026244A24D5
:100C53007A241224222423FC7C20002204227822DA
:100C6300003CC9AB0000000004000FF0102020205E
:100C73007FFC20842084208420843FF820002002ED
:100C830020021FFECCEE00000000204023FE204087
:100C930079FC220423FC220423FC220423FC3A04CF
:100CA30065FA01980204B3E40000010001007FFE2D
:100CB30002200410040808043FFC044204400440DA
:100CC300044208421042607EBED800000000207E2D
:100CD3003E804880488048FE48827F8208820C829A
:100CE30014FA12842280218040FED0CE000000003E
:100CF3007F842208223022C0220222047FC82230AD
:100D030022C222022204220822304040BBAD00004E
:100D130000007FFE00000FF011101110111051128E
:100D23005FF25112511251124FF240027FFCD4B2C2
:100D3300000000007FFE47E24812481247E24FF2EC
:100D4300501250125112511242924472580A3FFCEF
:100D5300CDBC000000003FFE440247F24C22536228
:100D6300408243625E1A41824062430240C2402293
:100D73003FFCC6AC000000402040204020403FFE26
:100D83002000200020003FE0201020102010201021
:100D930040104010CFD4000000003FFC200420048A
:100DA3003FFC200420041FF824441448144814482A
:100DB3000C5004407FFECABE000000003FFC000050
:100DC300000000007FFE00800890088810881084CF
:100DD3002084208240820780B2CB000000200820BC
:100DE3007FFE002000783F881108089009207FFECD
:100DF300018003400D30310C4002B5A50000001006
:100E0300081004203FF8210421043FFC210421049D
:100E13003FF801007FFE010001000100D3A20000A2
:100E2300000008207FFE0820092001003FF8210868
:100E3300210821081FF4014002200C10700ECEC4BB
:100E430000000100010000803F7C0810081004101E
:100E53000420022002400180018002601C18E00689
:100E6300D7DB00000000102011FE2202220249FC01
:100E73005800300013FE2528792401240D24722202
:100E830002A2BACF0000000001800240043018081B
:100E930060061FF800001FF820042004200420042B
:100EA30020041FF8C1C10000010001007FFE000003
:100EB3003FF820083FF83FF8400647C2482408207F
:100EC30008221022603EB6C80000000000803FFEEA
:100ED30044105FFC4410441043F040005FF84408A2
:100EE300423041C04360BC1EB2E20000000067C252
:100EF300145205520552C552255205520552155238
:100F03001752228222424442483ECAD400000000C3
:100F13002014101417FE00120010601013F010902C
:100F230010901090149214EA1F0A0006B3CC00002C
:100F3300000019FE7202120212027DFC18001BFE51
:100F43003420502053FE10201020102013FED0F226
:100F53000000000000803FFE400047FC4208413093
:100F630040C05FFE4042404240444048404044400D
:100F7300B5F70000000023FE122202FA0222E22249
:100F830012FE1272128A128A128A16BA1A421202B6
:100F9300040EB9E200000100010411080908091058
:100FA30009207FFE044004400440044008420842F4
:100FB3001042607CB0E60000000048FE4900490092
:100FC30049007EFE41824144794445284528451025
:100FD300452846440382C8A800001000100013FCF3
:100FE3007D0411041904188434885048505010208B
:100FF3001050108813041402CBF9000000003F7C4A
:10100300204020403E40227E2244224422443E840B
:1010130020842084408441044204C9EE000000007F
:1010230000001000000800080C7FFC04401001C8F9
:10103300A002186042301832231812C300140300B0
:1010430004030C047FF0080F80080B40781360182A
:10105300332018631818831C1903081803000003AE
:1010630000000000DBDA00000000000004100C04A4
:10107300180C04108C04108C04108C04108C04D0F5
:101083008C3F108C04108C04108C04108C04108C76
:1010930004108C04108C05F08C0E208C78208C208E
:1010A300408C00808C01000C02000C000000CAD0B0
:1010B30000000000000000300000180000180800C5
:1010C300001C1FFFE000180000182007FFF00418A1
:1010D30020041820041820041820041820041820C1
:1010E3000418200418200418200418E004184000F1
:1010F3001800001800000000D6D000000000000017
:101103000000000000000018000018000018000094
:1011130018003FFFFE301806301806301806301846
:10112300063018063FFFFE301806001800001800AE
:101133000018000018000018000000000000000064
:101143000000CEC4000000000000000000003800D2
:10115300001C00000600FFFFFF06003006003003FE
:1011630000600300600180C000C18000E30000361E
:1011730000001C0000770003C1E01E003C60000774
:10118300000000000000000000000000B2E20000C8
:101193000000000000000000000040000321FF33B6
:1011A300398333118333019B33C19B33719B3319D0
:1011B3009B33019B33019B33119B3319B333303082
:1011C30033306C0330C6036383032E01BE0000007B
:1011D300000000000000CAD400000000000000006E
:1011E300000000004000D83000CE1800C21C00C030
:1011F30001FFFF0000C0F800C01800C019FFC018AD
:1012030018401818601918601B18611E18311C1F2C
:10121300B139F01910000F000000000000000000B9
:10122300D7D6000000000006000000030000000005
:10123300C0000001C0C0000107C00001FF00021F81
:10124300FE0007F01C0007C070000F00E0000E0353
:10125300F0001C0FF0003C0F70003C00E000180091
:10126300C0000000C0000000C000000060000000DB
:101273002000000037000001FF00007FF80007F89E
:1012830030001F8030000080300000C0300000605C
:1012930060000018E000000FC0000006000000001E
:1012A3000000CCE50000000000000000000000C0CA
:1012B300000000E0002001B800703FF80061FFC0AB
:1012C30000C3030001C60600038C060003080C00DC
:1012D30006080C000E18183F1E101BF31F903F0743
:1012E30000803C1C0190707C019060FE01A0C3F85B
:1012F30001A00FD803A008180360001803400018CA
:1013030003C0001803800018030000180000001831
:10131300000000100000003000000030000000005A
:1013230000000000B2E20000000000000000000026
:10133300000000000000020C1008071FF80403BFA0
:10134300F00201BC300303EC3003015C600300D8FE
:10135300600300D860038098620361B8430771B1EA
:101363004306313243063376C3063A64C7063EEC7E
:10137300C0063E78C0063C3040067C70000678E02C
:1013830060067BFFF006F7C00006E400000640009D
:101393000006000000060000007C00008FF0000043
:1013A3007C0000000000CAD4000000000000000020
:1013B3000000000000003F0000007F80000001806B
:1013C300000000C0000000C0000000CE038000CF7A
:1013D300FFC000DD41800FFE0007FFFC000C00F0A2
:1013E30000180FC03E19FF40F311BC6083307FE04B
:1013F30003B1FE200333802003700030036000102C
:101403000360001807C0000C07C000040780000237
:1014130001000003000000010000000000000000C4
:081423000000000000000000C1
:105F0E00900017FEE0FCA3E0FD900016E02DFD9042
:0D5F1E000015E03CFC90001BE0FAA3E0FB46
:105F2B0090001DEAF0A3EBF0125F4190001DE0FE24
:065F3B00A3E0FF02610F6C
:0E538E00900009EEF0A3EFF0A3ECF0A3EDF019
:10539C00900009E0FEA3E0FFC3EB9FFFEA9ECF2441
:1053AC0001CF3400900017F0A3EFF090000BE0FE5B
:1053BC00A3E0FFC3900010E09FFF90000FE09ECF92
:1053CC002401CF3400900019F0A3EFF090000BE013
:1053DC00FCA3E0FDEB24FFFBEA34FFFA90000FE0A6
:1053EC00FEA3E024FFFFEE34FF90003FF0A3EFF0AC
:1053FC00900009E0FEA3E0FF125E03E4900013F0BE
:10540C00A3F0900019E0FEA3E0FFC3900014E09F0E
:10541C00900013E09E5047E4900015F0A3F090002C
:10542C0017E0FEA3E0FFC3900016E09F900015E08C
:10543C009E501B900011E0FEA3E0FF12610F900044
:10544C0016E004F070D8900015E004F080D09000C5
:10545C0014E004F070AC900013E004F080A4900011
:10546C0083E024FFFB900082E034FFFA900085E09B
:10547C0024FFFE900084E034FF90003FF0A3CEF0B8
:08548C00E4FDFCFFFE025E03DB
:0E459500900009EEF0A3EFF0A3ECF0A3EDF020
:1045A300E4900013F0A3F0A3F0A3F0900009E0FE61
:1045B300A3E0FFC3EB9FFFEA9E900017F0A3EFF089
:1045C30090000BE0FAA3E0FBC3900010E09BFE9089
:1045D300000FE09A900019F0A3CEF0900009E0FFDD
:1045E300A3E0900021CFF0A3EFF0A3EAF0A3EBF058
:1045F300900017E0FEA3E0FFD39400EE6480948064
:10460300400A90001DE4F0A304F08021EF4E7008EF
:1046130090001DF0A3F0801574FF90001DF0A3F02F
:10462300C3E49FFFE49E900017F0A3EFF0900019FE
:10463300E0FEA3E0FFD39400EE64809480400A90F0
:10464300001FE4F0A304F08021EF4E700890001FD8
:10465300F0A3F0801574FF90001FF0A3F0C3E49F54
:10466300FFE49E900019F0A3EFF0900019E0FEA381
:10467300E0FF900017E0FCA3E0FDD39FEE6480F819
:10468300EC64809890001B4007ECF0A3EDF08005EC
:10469300EEF0A3EFF0E4900011F0A3F090001CE023
:1046A3002401FF90001BE03400FED3900012E09F32
:1046B300900011E09E400302477F900021E0FEA39B
:1046C300E0FFA3E0FCA3E0FD125FA0900017E0FE73
:1046D300A3E0FF900014E02FF0900013E03EF09071
:1046E3000019E0FEA3E0FF900016E02FF090001504
:1046F300E03EF090001BE0FEA3E0FF900013E0FC1F
:10470300A3E0FDD39FEE6480F8EC6480984020ED35
:104713009FFFEC9E900013F0A3EFF090001DE0FECE
:10472300A3E0FF900022E02FF0900021E03EF09004
:10473300001BE0FEA3E0FF900015E0FCA3E0FDD327
:104743009FEE6480F8EC6480984020ED9FFFEC9E20
:10475300900015F0A3EFF090001FE0FEA3E0FF90A0
:104763000024E02FF0900023E03EF0900012E004DC
:0C477300F07006900011E004F002469F78
:01477F002217
:105A6800900005EAF0A3EBF0900001EEF0A3EFF050
:105A7800A3ECF0A3EDF0C007A3E0FAA3E0FB9000CD
:105A880003E0FFA3E090000FCFF0A3EFF0D00712E0
:105A98004595900001E0FAA3E0FBFFAE02C007A322
:105AA800E0FCA3E0FD900007E0FFA3E090000FCF2B
:105AB800F0A3EFF0D007124595900007E0FCA3E0B3
:105AC800FD900005E0FAA3E0FBA3E0FFA3E090004F
:105AD8000FCFF0A3EFF0900001E0FEA3E0FF124526
:105AE80095900005E0FAA3E0FBFFAE02C007900026
:105AF80003E0FCA3E0FD900007E0FFA3E090000FA7
:0A5B0800CFF0A3EFF0D0070245959F
:10601600C007900007E0FFA3E090000FCFF0A3EFCA
:10602600F090007EE0FFA3E0900011CFF0A3EFF028
:05603600D00702538EAB
:104DBE00900019F0A3EFF0900005E0FFA3E0900043
:0E4DCE001BCFF0A3EFF0900001E0FEA3E0FF8A
:104DDC00900015ECF0A3EDF0900013EEF0A3EFF0C3
:104DEC00900017EAF0A3EBF02FFFEE3AA3125F113D
:104DFC00900017E0FEA3E0FFC3900014E09FFF902B
:104E0C000013E09EFE900019125F12900017E0FE56
:104E1C00A3E0FF900014E02FFF900013E03EFE9003
:104E2C000019E0FCA3E0FDC3900016E09DFD90008E
:104E3C0015E09C125F22900017E0FEA3E0FFC390E8
:104E4C000014E09FFF900013E09EFE900019E0FC20
:104E5C00A3E0FDC3900016E09DFD900015E09C12B0
:104E6C005F22900019E0FEA3E0FF900014E02FFFFA
:104E7C00900013E03E125F0E900019E0FEA3E0FFDD
:104E8C00C3900014E09FFF900013E09E125F0E9001
:104E9C000019E0FEA3E0FF900014E02FFF90001338
:104EAC00E03EFE900017E0FCA3E0FDC3900016E08E
:104EBC009DFD900015E09C125F22900019E0FEA36E
:104ECC00E0FFC3900014E09FFF900013E09EFE9063
:104EDC000017E0FCA3E0FDC3900016E09DFD9000E0
:0F4EEC0015E09CFC90001BE0FAA3E0FB025F2B9B
:10439F00900001EEF0A3EFF0A3ECF0A3EDF0A3EA91
:0443AF00F0A3EBF09C
:1043B300E490000BF0A3F0900007E0FEA3E0FF9071
:1043C300000DEEF0A3EFF025E0FFEE33FEC3740320
:1043D3009F900012F0E49E900011F0900009E070AD
:1043E30002A3E070030244E290000DE0FEA3E0FFAD
:1043F30090000BE0FCA3E0FDD39FEE6480F8EC6437
:104403008098400302459490000FECF0A3EDF090E8
:10441300000DE0FEA3E0FFD3900010E09FEE648068
:10442300F890000FE0648098502B900003E0FCA309
:10443300E0FD90000BE0FAA3E0FB90000FE0FFA388
:10444300E0CF124DBE900010E004F070C290000F58
:10445300E004F080BA900011E0FCA3E0FDC3EC643B
:10446300809480502390000BE0FEA3E07802C333D6
:10447300CE33CED8F92DFFEC3ECF2406CF340090B7
:104483000011F0A3EFF0804390000DE0FEA3E0FFE6
:10449300C390000CE09FFF90000BE09EFEEF7802BC
:1044A300C333CE33CED8F9FF900012E02FFF900034
:1044B30011E03ECF240ACF3400F0A3EFF090000EBA
:1044C300E024FFF090000DE034FFF090000CE004D6
:1044D300F060030243EB90000BE004F00243EB9027
:1044E300000DE0FEA3E0FF90000BE0FAA3E0FBD396
:1044F3009FEE6480F8EA648098400302459490003C
:1045030003E0FCA3E0FDEE124DBE900011E0FCA31E
:10451300E0FDC3EC64809480502390000BE0FEA385
:10452300E07802C333CE33CED8F92DFFEC3ECF244F
:1045330006CF3400900011F0A3EFF0804390000DFC
:10454300E0FEA3E0FFC390000CE09FFF90000BE0B0
:104553009EFEEF7802C333CE33CED8F9FF9000121C
:10456300E02FFF900011E03ECF240ACF3400F0A3E8
:10457300EFF090000EE024FFF090000DE034FFF028
:1045830090000CE004F0700690000BE004F002448D
:01459300E245
:014594002204
:10418700F0900021E090002FF0900019E0FAA3E0F2
:01419700FB2C
:10419800900025EEF0A3EFF0900029EAF0A3EBF0F1
:0841A800900027ECF0A3EDF0FC
:1041B00090007EE0FFA3E0900033CFF0A3EFF090FB
:1041C000002DE024E0F0A3E0F9C313FF7E0090008F
:1041D00025E0FAA3E02FFFEE3ACF24FFFBEF34FFF8
:1041E000FAE9FFA3E0F8A3E02FFFEE38CF24FFCFDA
:1041F00034FF90003FF0A3EFF0900025E0FEA3E035
:10420000FF125E0390002FE060030242A79000318E
:10421000F090002EE0FF900031E0FEC39F400302CB
:104220004366EFB40C1790002DE075F00CA4240346
:10423000F582E5F03400F583E5822E801A90003196
:10424000E0FF90002DE075F010A42477F582E5F0F2
:104250003404F583E5822FF582E43583F583E49316
:10426000900030F0E4900032F090002EE0C313FF95
:10427000900032E0C39F5026900030E030E005907F
:104280000029800390002BE0FEA3E0FF12610F9055
:104290000030E0C313F0900032E004F080CB9000D7
:1042A00031E004F0024211E4900031F090002EE081
:1042B000FF900031E0FEC39F4003024366EFB40C61
:1042C0001790002DE075F00CA42403F582E5F0347E
:1042D00000F583E5822E801A900031E0FF90002DDA
:1042E000E075F010A42477F582E5F03404F583E559
:1042F000822FF582E43583F583E493900030F0E477
:10430000900032F090002EE0C313FF900032E0FEE8
:10431000C39F5049900029E0FDA3E090007ECDF0BE
:10432000A3EDF0900030E030E024EEFF900026E0B6
:104330002FFF900025E03400FE900031E0FD90005A
:1043400028E02DFD900027E03400FC125FA09000D3
:1043500030E0C313F0900032E004F080A790003109
:10436000E004F00242AC900033E0FFA3E090007E56
:10437000CFF0A3EFF0900083E024FFFB900082E0F9
:1043800034FFFA900085E024FFFE900084E034FFC3
:0F43900090003FF0A3CEF0E4FDFCFFFE025E03C1
:1058E600900005EEF0A3EFF0A3ECF0A3EDF0A3EB30
:1058F600F090000AE0FBA3E0FAA3E0F9123156FFAC
:10590600D3947E40030259A7EFC394205003025953
:10591600A7900083E024FFFD900082E034FFFC9016
:105926000005E0FEA3E0FFD39DEE9C507490008539
:10593600E024FFFB900084E034FFFA900007E0FCCF
:10594600A3E0FDD39BEC9A5058900080E0FBA3E0C7
:1059560090002BCBF0A3EBF090000AE0FBA3E0FA5B
:10596600A3E0F912315690002DF0900009E0900066
:105976002EF090000DE090002FF090007E124193E3
:10598600900009E0C313FF900006E02FF090000599
:10599600E03400F090000BE475F0011231F102588A
:0259A600F722E6
:085E54009000B6EFF0A3EDF0A1
:105E5C00A3123384000000019000B7E0FF14F0EFB0
:105E6C006020A3E0F8A3E0F9A3E0FAA3E0FB900024
:105E7C00B6E0FFE4FCFDFE12323C9000B812337821
:105E8C0080D69000B8E0FCA3E0FDA3E0FEA3E0FF09
:015E9C0022E3
:0E527D0090009FEEF0A3EFF0A3ECF0A3EDF095
:10528B00E49000ABF09000A9F09000A7E0FF900035
:10529B00A9E0FEC39F400302538DC3EF9E14FD7F15
:1052AB000A125E54A804A905AA06AB079000A3E056
:1052BB00FCA3E0FDA3E0FEA3E0FF1232C7E47B0AF0
:1052CB00FAF9F81232C79000AAEBF0A3E0705790EE
:1052DB0000A7E014FF9000A9E0FEC39F5048A3E095
:1052EB00703E9000A8E0F9C3138EF0A4FF9000A0CD
:1052FB00E02FFF90009FE035F0FEC0079000A1E08B
:10530B00FCA3E0FD90007EE0FAA3E0FB900080E0C0
:10531B00FFA3E090002BCFF0A3EFF0A37420804D00
:10532B009000AB7401F09000A8E0F9C313FFA3E069
:10533B00FEEF8EF0A4FF9000A0E02FFF90009FE007
:10534B0035F0FEC0079000A1E0FCA3E0FD90007ECD
:10535B00E0FAA3E0FB900080E0FFA3E090002BCFEE
:10536B00F0A3EFF09000AAE0243090002DF0A3E919
:10537B00F0E4A3F0D0071241989000A9E004F002EA
:02538B0052943A
:01538D0022FD
:10366200900027ECF0A3EDF0A3EAF0A3EBF09000BA
:0636720025EEF0A3EFF0CD
:10367800900037EEF0A3EFF0900035E4F0A3742B40
:10368800F0E4900033F0A3F0900035E0FEA3E0FFF3
:10369800900033E0FCA3E0FDC39FEC9E400302389A
:1036A8007B90002DE0FBA3E0FAA3E0F9123156FF6E
:1036B800900A6775F022ED1233B5EC75F022A42557
:1036C80083F583E4936F600302386A900001123136
:1036D8006FFF900033A3E0900A6875F0221233B5AB
:1036E800EC75F022A42583F583E4936F6003023818
:1036F8006A900025E0FAA3E0FBFFAE02C006C0070F
:10370800A3E0FCA3E0FDEB240FFBE43AFA900027CA
:10371800E0FEA3E0240FFFE43E90003FF0A3EFF0AB
:10372800D007D006125E03E4900031F0E490003236
:10373800F0900032E0FFC39408400302385B900029
:1037480030E0705AA3E0FE900033E0FCA3E0900A5A
:103758006975F0221233B5EC75F022A42583F58340
:10376800E5822EF582E43583F583E493FD3395E015
:10377800FC74807E00A807088006CEA2E713CE134B
:10378800D8F8FFEE5CFEEF5D4E60059000298003DF
:1037980090002BE0FEA3E0FF12610F023852900068
:1037A80029E0FFA3E090007ECFF0A3EFF090003176
:1037B800E0FF900033E0FCA3E0900A6975F0221264
:1037C80033B5EC75F022A42583F583E5822FF582C5
:1037D800E43583F583E493FD3395E0FC900032E013
:1037E800FF74807E00A807088006CEA2E713CE13D8
:1037F800D8F8FFEE5CFEEF5D4E6011900025E0FE0C
:10380800A3E0FFA3E0FCA3E0FD125FA0900026E088
:1038180004F07006900025E004F0900037E0FEA365
:10382800E0FFC3900026E09FFD900025E09EFCEDA0
:1038380064104C7015EEF0A3EFF0900028E004F04F
:103848007011900027E004F08009900032E004F045
:10385800023739900031E004F0E0C39420500302AD
:103868003734900034E004F07006900033E004F040
:10387800023690900083E024FFFB900082E034FF42
:10388800FA900085E024FFFE900084E034FF900069
:0D3898003FF0A3CEF0E4FDFCFFFE025E0356
:1038A500900027ECF0A3EDF0A3EAF0A3EBF0900075
:0638B50025EEF0A3EFF088
:1038BB00900037EEF0A3EFF0900035E4F0A374071F
:1038CB00F0E4900033F0A3F0900035E0FEA3E0FFAE
:1038DB00900033E0FCA3E0FDC39FEC9E4003023A53
:1038EB00BE90002DE0FBA3E0FAA3E0F9123156FFE6
:1038FB0090101D75F04AED1233B5EC75F04AA42506
:10390B0083F583E4936F6003023AAD9000011231AB
:10391B006FFF900033A3E090101E75F04A1233B581
:10392B00EC75F04AA42583F583E4936F6003023AA8
:10393B00AD900025E0FAA3E0FBFFAE02C006C00786
:10394B00A3E0FCA3E0FDEB2417FBE43AFA9000277D
:10395B00E0FEA3E02417FFE43E90003FF0A3EFF05E
:10396B00D007D006125E03E4900031F0E4900032F1
:10397B00F0900032E0FFC394084003023A9E90009F
:10398B0030E0705AA3E0FE900033E0FCA3E090100F
:10399B001F75F04A1233B5EC75F04AA42583F583F5
:1039AB00E5822EF582E43583F583E493FD3395E0D0
:1039BB00FC74807E00A807088006CEA2E713CE1306
:1039CB00D8F8FFEE5CFEEF5D4E600590002980039A
:1039DB0090002BE0FEA3E0FF12610F023A959000DE
:1039EB0029E0FFA3E090007ECFF0A3EFF090003131
:1039FB00E0FF900033E0FCA3E090101F75F04A123B
:103A0B0033B5EC75F04AA42583F583E5822FF58257
:103A1B00E43583F583E493FD3395E0FC900032E0CD
:103A2B00FF74807E00A807088006CEA2E713CE1392
:103A3B00D8F8FFEE5CFEEF5D4E6011900025E0FEC6
:103A4B00A3E0FFA3E0FCA3E0FD125FA0900026E043
:103A5B0004F07006900025E004F0900037E0FEA320
:103A6B00E0FFC3900026E09FFD900025E09EFCED5B
:103A7B0064184C7015EEF0A3EFF0900028E004F002
:103A8B007011900027E004F08009900032E004F000
:103A9B0002397C900031E004F0E0C39448500302FB
:103AAB003977900034E004F07006900033E004F0B6
:103ABB000238D3900083E024FFFB900082E034FFB8
:103ACB00FA900085E024FFFE900084E034FF900024
:0D3ADB003FF0A3CEF0E4FDFCFFFE025E0311
:103AE800900027ECF0A3EDF0A3EAF0A3EBF0900030
:063AF80025EEF0A3EFF043
:103AFE00900037EEF0A3EFF0900035E4F0A37404DD
:103B0E00F0E4900033F0A3F0900035E0FEA3E0FF68
:103B1E00900033E0FCA3E0FDC39FEC9E4003023D0A
:103B2E000190002DE0FBA3E0FAA3E0F9123156FF5D
:103B3E0090122375F082ED1233B5EC75F082A42548
:103B4E0083F583E4936F6003023CF0900001123121
:103B5E006FFF900033A3E090122475F0821233B5FC
:103B6E00EC75F082A42583F583E4936F6003023C29
:103B7E00F0900025E0FAA3E0FBFFAE02C006C007FE
:103B8E00A3E0FCA3E0FDEB241FFBE43AFA90002730
:103B9E00E0FEA3E0241FFFE43E90003FF0A3EFF011
:103BAE00D007D006125E03E4900031F0E4900032AC
:103BBE00F0900032E0FFC394084003023CE1900015
:103BCE0030E0705AA3E0FE900033E0FCA3E09012C8
:103BDE002575F0821233B5EC75F082A42583F5833A
:103BEE00E5822EF582E43583F583E493FD3395E08B
:103BFE00FC74807E00A807088006CEA2E713CE13C1
:103C0E00D8F8FFEE5CFEEF5D4E6005900029800354
:103C1E0090002BE0FEA3E0FF12610F023CD8900053
:103C2E0029E0FFA3E090007ECFF0A3EFF0900031EB
:103C3E00E0FF900033E0FCA3E090122575F08212B5
:103C4E0033B5EC75F082A42583F583E5822FF582DA
:103C5E00E43583F583E493FD3395E0FC900032E088
:103C6E00FF74807E00A807088006CEA2E713CE134D
:103C7E00D8F8FFEE5CFEEF5D4E6011900025E0FE81
:103C8E00A3E0FFA3E0FCA3E0FD125FA0900026E0FE
:103C9E0004F07006900025E004F0900037E0FEA3DB
:103CAE00E0FFC3900026E09FFD900025E09EFCED16
:103CBE0064204C7015EEF0A3EFF0900028E004F0B5
:103CCE007011900027E004F08009900032E004F0BB
:103CDE00023BBF900031E004F0E0C3948050030239
:103CEE003BBA900034E004F07006900033E004F02C
:103CFE00023B16900083E024FFFB900082E034FF2D
:103D0E00FA900085E024FFFE900084E034FF9000DE
:0D3D1E003FF0A3CEF0E4FDFCFFFE025E03CB
:1033C100900017ECF0A3EDF0A3EAF0A3EBF090006E
:0633D10015EEF0A3EFF081
:1033D700900022EEF0A3EFF0E4A3F090001DE0FBD5
:1033E700A3E0FAA3E0F912315670030236619000A8
:1033F70024E06003023523900020E0FFC313FDC3E0
:10340700900083E09DFD900082E09400FCD3900043
:1034170016E09D900015E09C4003023661C39000C2
:1034270085E09FFF900084E09400FE900017E0FC89
:10343700A3E0FDD39FEC9E400302366190001DE0A0
:10344700FBA3E0FAA3E0F9123156FFD394804008BA
:103457009000247401F08083EFB40D2E900020E0DB
:10346700FF900018E02FF0900017E03400F0900074
:1034770022E0FFA3E0900015CFF0A3EFF090001E2D
:10348700E475F0011231F1023516900020E0D39473
:1034970010900015E0FEA3E0FF402F90001BE0FB1B
:1034A700A3E090002BCBF0A3EBF090001DE0FBA373
:1034B700E0FAA3E0F912315690002DF0A374101230
:1034C7004187900016E02408803DA3E0FCA3E0FDBF
:1034D70090001BE0FBA3E090002BCBF0A3EBF09058
:1034E700001DE0FBA3E0FAA3E0F912315690002D8E
:1034F700F0900020E090002E124187900020E0C35A
:1035070013FF900016E02FF0900015E03400F090C4
:10351700001EE475F0011231F10233E2900020E061
:10352700F9FF7E00C3900083E09FFD900082E09E3C
:10353700FCD3900016E09D900015E09C40030236F6
:1035470061C3900085E09FFF900084E09EFE90009D
:1035570017E0FCA3E0FDD39FEC9E4003023661E435
:10356700900024F0E9B42042900015E0FEA3E0FFAC
:1035770090001BE0FBA3E090002BCBF0A3EBF090B7
:10358700001DE0F9A3E0FAA3E090002DC9F0A3EA3B
:10359700F0A3E9F0900021E0900030F0900019E0EE
:1035A700FAA3E0FB123AE8023642900020E06418E2
:1035B7009000157044E0FEA3E0FFA3E0FCA3E0FD4C
:1035C70090001BE0FBA3E090002BCBF0A3EBF09067
:1035D700001DE0F9A3E0FAA3E090002DC9F0A3EAEB
:1035E700F0A3E9F0900021E0900030F0900019E09E
:1035F700FAA3E0FB1238A58042E0FEA3E0FFA3E0B8
:10360700FCA3E0FD90001BE0FBA3E090002BCBF0B8
:10361700A3EBF090001DE0F9A3E0FAA3E090002DE2
:10362700C9F0A3EAF0A3E9F0900021E0900030F0A0
:10363700900019E0FAA3E0FB12366290001EE475D1
:10364700F0021231F1900020E0FF900016E02FF019
:0A365700900015E03400F00233E2A9
:013661002246
:105B1200900008EEF0A3EFF0A3ECF0A3EDF0A3EAFF
:045B2200F0A3EBF011
:105B2600900010E0FBA3E0FAA3E0F9126126EF78FB
:105B360003C333CE33CED8F9FFC3900083E09FFF73
:105B4600900082E09EC313FEEF13FF900009E02F42
:105B5600FF900008E03EFE90000AE0FCA3E0FD9006
:105B6600000EE0FBA3E090001BCBF0A3EBF090004F
:105B760010E0F9A3E0FAA3E090001DC9F0A3EAF053
:105B8600A3E9F0900013E0900020F0900014E0905C
:0E5B96000021F090000CE0FAA3E0FB0233C106
:10568100900000EEF0A3EFF0900004EBF0A3EAF03D
:0B569100A3E9F0900002ECF0A3EDF0A4
:10569C00900000E0FAA3E0FFAE02C006C00724278A
:1056AC00FBE43AFAA3E0FEA3E02427FFE43E9000DB
:1056BC003FF0A3EFF0D007D006125E03E490000792
:1056CC00F0A3F0900008E025E0FF900007E033FE27
:1056DC00900004E0FBA3E0FAA3E0F98F828E831222
:1056EC00316F90000AF0E92FF9EA3EFA90000112AE
:1056FC00316F900009F0FEA3E0FDEDFF12610F90F9
:10570C000008E004F07006900007E004F0C390007D
:10571C0008E09440900007E06480948640A59000D7
:10572C0083E024FFFB900082E034FFFA900085E0D8
:10573C0024FFFE900084E034FF90003FF0A3CEF0F5
:08574C00E4FDFCFFFE025E0318
:105FCA00E4FDFCC3ED9FEE6480F8EC648098501504
:105FDA00E4FBFA0BBB00010ABA03F8BBE8F50DBDF6
:055FEA0000010C80DE47
:015FEF00228F
:105FF000E4FDFCC3ED9FEE6480F8EC6480985015DE
:10600000E4FBFA0BBB00010AEB64014A70F50DBD1D
:0560100000010C80DE20
:016015002268
:03000000025BA4FC
:0C5BA400787FE4F6D8FD758107025BEB0A
:105ED60056583A0056793A004348583A00434859CA
:105EE6003A0041646A757374204F4B2100546F75F4
:105EF600636820416E79776865726520546F204328
:085F06006F6E74696E75650091
:105F810042009B3C4742009D2D3D42008F0F204225
:045F910000910F4A22
:06615D00A2C0E433FF22A2
:09615400D2B7D2B6D2B4D2B62201
:1060DE00E4FEC2B6EF25E0FF92B4C2B6000000D2D5
:0960EE00B60000000EEEB408EB50
:0160F7002286
:10605E00E4FDFFFEEF25E0FFEE33FED2B6000000BA
:10606E00C2B600000030B504EF4401FF0DEDB40CD4
:01607E00E33E
:01607F0022FE
:1060F800C2B71260DED2B600000000C2B6000000CF
:066108000012605ED2B738
:01610E00226E
:024C6700A9079B
:104C6900E490003CF0A3F0FBFAAF011260F8AC0647
:104C7900AD07EB25E0FFEA33FE741E2FF5827400C1
:104C89003EF583ECF0A3EDF00BBB00010AEB640FDA
:104C99004A70D6E4FAFBEB2401FEE43A90001CF0DA
:104CA900A3CEF090001CE0FEA3E0FFC3940FEE94A6
:104CB900004003024D63EF25E0FFEE33FE741E2F23
:104CC900F58274003EF583E0FCA3E0FDEB25E0FFEF
:104CD900EA33FE741E2FF58274003EF583E0FEA3CD
:104CE900E0FFD39DEE9C405E90003EEEF0A3EFF016
:104CF90090001DE025E0FF90001CE033FE741E2F9C
:104D0900F58274003EF583E0FCA3E0FDEB25E0FFAE
:104D1900EA33FE741E2FF58274003EF583ECF0A38E
:104D2900EDF090003EE0FCA3E0FD90001DE025E0E1
:104D3900FF90001CE033FE741E2FF58274003EF5CF
:104D490083ECF0A3EDF090001DE004F06003024C49
:104D5900AC90001CE004F0024CAC0BBB00010AEB68
:104D6900640E4A6003024C9FE490003CF0A3F0FA01
:104D79007B05EB25E0FFEA33FE741E2FF5827400F4
:104D89003EF583E0FEA3E0FF90003DE02FF09000A8
:104D99003CE03EF00BBB00010AEB640A4A70D39079
:104DA900003CE0FEA3E0FF7C007D0512319CA3EEF0
:044DB900F0A3EFF084
:014DBD0022D3
:0B5DA000900014EBF0A3EAF0A3E9F080
:105DAB007FD0124C6790001AEEF0A3EFF07F9012A9
:105DBB004C67C390001BE0946490001AE094004081
:105DCB0008EF9464EE940050037F002290001AE0D9
:105DDB00F9A3E0FD900014E0FBA3E0FAA3E0C98D6A
:105DEB00F012321D900017E0FBA3E0FAA3E0F9EEEE
:075DFB008FF012321D7F0141
:015E0200227D
:0B503400900006EBF0A3EAF0A3E9F007
:10503F009000177401F0A37400F0A3740EF07B01BD
:10504F007A00790C125DA0EF7002FF2290001774A6
:10505F0001F0A37400F0A37412F07B017A007910B1
:10506F00125DA0EF7002FF2290000CE0FEA3E0FFA4
:10507F00900010E0FCA3E0FDD39FEC9E500EED24BA
:10508F0014FDE43CFCC3EF9DEE9C402A900010E021
:10509F00FEA3E0FF90000CE0FCA3E0FDD39FEC9E8D
:1050AF004003025162ED2414FDE43CFCC3EF9DEE7E
:1050BF009C400302516290000EE0FEA3E0FF9000BF
:1050CF0012E0FCA3E0FDD39FEC9E500EED2414FDE7
:1050DF00E43CFCC3EF9DEE9C4024900012E0FEA345
:1050EF00E0FF90000EE0FCA3E0FDD39FEC9E506329
:1050FF00ED2414FDE43CFCC3EF9DEE9C5055900055
:10510F0010E0FEA3E0FF90000DE02FFF90000CE0F9
:10511F003EC313F9EF13FF900006E0FBA3E0FAA3E1
:10512F00E0C98FF012321D900012E0FEA3E0FF9055
:10513F00000FE02FFF90000EE03EC313F9EF13FFB7
:10514F00900009E0FBA3E0FAA3E0C98FF012321D33
:05515F007F01227F002A
:015164002228
:105CB100E49000BCF09000BCE0706A9000097401AF
:105CC100F0A37400F0A37499F07B017A0079971224
:105CD1005034EF60E67F0A7E00125FCA90000974BB
:105CE10001F0A37400F0A374BFF07B017A0079BDC9
:105CF100125034EF60E69000BDE0FEA3E0FF90009B
:105D010097E0B506B0A3E0B507AB9000BFE0FEA3F6
:105D1100E0FF900099E06E7003A3E06F7097900030
:0A5D2100BC04F080909000BCE0FF8D
:015D2B002255
:105165009000C1EEF0A3EFF0A3ECF0A3EDF09000FA
:105175007E74F8F0A3E4F09000C1E0FAA3E0FB240C
:10518500F4FFEA34FFFEC007EB240DFBE43AFAA373
:10519500E0FFA3E090000FCFF0A3EFF0D00712459A
:1051A500959000C1E0FAA3E0FBFFAE02C006C00780
:1051B5009000C4E024F4FD9000C3E034FFFCE0FE61
:1051C500A3E0240DFFE43E90000FF0A3EFF0D0071D
:1051D500D0061245959000C2E02401FF9000C1E081
:1051E5003400FE9000C4E02401FD9000C3E03400CB
:1051F500FC125FA09000C2E024FFFF9000C1E034E4
:10520500FFFE9000C4E02401FD9000C3E03400FCE3
:10521500125FA09000C2E02401FF9000C1E03400BD
:10522500FE9000C4E024FFFD9000C3E034FFFC12B3
:105235005FA09000C2E024FFFF9000C1E034FFFEB4
:105245009000C4E024FFFD9000C3E034FFFC125F32
:10525500A09000C1E0FEA3E0FFA3E0FCA3E0FD9069
:10526500007EE0FAA3E0FB900007E4F0A37406F0EB
:08527500E4A3F0A3F002439F43
:105D2C00900005EEF0A3EFF0A3ECF0A3EDF0AF03C1
:105D3C0090007EEAF0A3EFF0900005E0FEA3E0FFF8
:105D4C00125FA0900006E02401FF900005E03400F3
:105D5C00FE900007E0FCA3E0FD125FA0900005E0C0
:105D6C00FEA3E0FF900008E02401FD900007E03462
:105D7C0000FC125FA0900006E02401FF900005E0FB
:105D8C003400FE900008E02401FD900007E0340090
:045D9C00FC025FA006
:104EFB00E4900005F07B0190000904F0A37400F02E
:104F0B00A37499F07A007997125034EF7003024F23
:104F1B00F89000057401F090008FE0FEA3E0FFD342
:104F2B00900098E09F900097E09E400BAB07AA067D
:104F3B00E0FEA3E0FF8013900097E0FEA3E0FBAA46
:104F4B000690008FE0FEA3E0FFC3EF9BFFEE9AFEFF
:104F5B00E49400FDE49400FCE47BE87A03F9F81296
:104F6B00323CC006C00790009BE0FEA3E0FBAA0604
:104F7B00E4F9F8D007D0061232C7900093EEF0A3F5
:104F8B00EFF0900091E0FEA3E0FFD390009AE09F3A
:104F9B00900099E09E400BAB07AA06E0FEA3E0FF52
:104FAB008013900099E0FEA3E0FBAA06900091E02D
:104FBB00FEA3E0FFC3EF9BFFEE9AFEE49400FDE43B
:104FCB009400FCE47BE87A03F9F812323CC006C08B
:104FDB000790009DE0FEA3E0FBAA06E4F9F8D007DA
:104FEB00D0061232C7900095EEF0A3EFF09000932D
:104FFB00E0FEA3E0FFA3E0FDA3E0900093CDF0A3C0
:10500B00EDF0A3EEF0A3EFF0900093E0FEA3E0FF32
:10501B00C3900083E09FFF900082E09E900093F08E
:08502B00A3EFF0900005E0FF87
:01503300225A
:1022CB00E490007DF0F090007EF0A3741FF074FF9B
:1022DB00900080F0A3F0FFFE125C3090007E74F84B
:1022EB00F0A3E4022A6F20C0FD125CB1EF604290B4
:1022FB000097E0FEA3E0FFE4FCFD90007DE0FB75A2
:10230B00F008A4245DF582E43400F5831233789051
:10231B000099E0FEA3E0FFE4FCFDEB75F008A424BC
:10232B0061F582E43400F58312337890007DE0048C
:10233B00F090007DE024FE602914604514606B244E
:10234B000370A374FFFFFE125C3030C0FD9000835E
:10235B00E024CDFF900082E034FFFE7D327C000252
:10236B002A7F74FFFFFE125C3030C0FD900085E0C9
:10237B0024CDFD900084E034FFFC7F327E00022AE6
:10238B007F74FFFFFE125C3030C0FD900083E024B1
:10239B00CDFF900082E034FFFE900085E024CDFD60
:1023AB00900084E034FFFC022A7F74FFFFFE125C76
:1023BB003030C0FD90005DE0FCA3E0FDA3E0FEA388
:1023CB00E0FF900065E0F8A3E0F9A3E0FAA3E0FBDF
:1023DB00D3123367403490005DE0F8A3E0F9A3E03B
:1023EB00FAA3E0FB900065E0FCA3E0FDA3E0FEA3F5
:1023FB00E09BFFEE9AFEED99FDEC98FCEF2401FFBC
:10240B00E43EFEE43DFDE43C8036900065E0F8A33D
:10241B00E0F9A3E0FAA3E0FB90005DE0FCA3E0FD94
:10242B00A3E0FEA3E0C39BFFEE9AFEED99FDEC98B3
:10243B00FCEF24FFFFEE34FFFEED34FFFDEC34FF29
:10244B00FCE47BE87A03F9F812323CC006C0079033
:10245B000083E0249CFF900082E034FFAB07FAE49A
:10246B00F9F8D007D0061232C7E41230979000412A
:10247B0012337890005DE0FCA3E0FDA3E0FEA3E047
:10248B00FF900065E0F8A3E0F9A3E0FAA3E0FBD32B
:10249B00123367E4FFFE7D487C42900041E0F8A3D5
:1024AB00E0F9A3E0FAA3E0FB4034122E78E4FBFA48
:1024BB00797A7844122F81C004C005C006C00790FA
:1024CB00005DE0FCA3E0FDA3E0FEA3E0FFE412301F
:1024DB0097D003D002D001D000122D838032122E60
:1024EB0078E4FBFA797A7844122F81C004C005C0D6
:1024FB0006C00790005DE0FCA3E0FDA3E0FEA3E0B7
:10250B00FFE4123097D003D002D001D000122D87F8
:10251B001230D5900051EEF0A3EFF0900061E0FC8B
:10252B00A3E0FDA3E0FEA3E0FF900071E0F8A3E0C1
:10253B00F9A3E0FAA3E0FBD3123367401D900061CF
:10254B00E0F8A3E0F9A3E0FAA3E0FB900071E0FC54
:10255B00A3E0FDA3E0FEA3E0801C900071E0F8A3D4
:10256B00E0F9A3E0FAA3E0FB900061E0FCA3E0FD3F
:10257B00A3E0FEA3E0C39BFFEE9AFEED99FDEC9862
:10258B00FCEF24FFFFEE34FFFEED34FFFDEC34FFD8
:10259B00FCE47BE87A03F9F812323CC006C00790E2
:1025AB000085E0249CFF900084E034FFAB07FAE445
:1025BB00F9F8D007D0061232C7E4123097900049D1
:1025CB00123378900061E0FCA3E0FDA3E0FEA3E0F2
:1025DB00FF900071E0F8A3E0F9A3E0FAA3E0FBD3CE
:1025EB00123367E4FFFE7D487C42900049E0F8A37C
:1025FB00E0F9A3E0FAA3E0FB4034122E78E4FBFAF7
:10260B00797A7844122F81C004C005C006C00790A8
:10261B000061E0FCA3E0FDA3E0FEA3E0FFE41230C9
:10262B0097D003D002D001D000122D838032122E0E
:10263B0078E4FBFA797A7844122F81C004C005C084
:10264B0006C007900061E0FCA3E0FDA3E0FEA3E061
:10265B00FFE4123097D003D002D001D000122D87A7
:10266B001230D5900055EEF0A3EFF090006DE0FC2A
:10267B00A3E0FDA3E0FEA3E0FF900075E0F8A3E06C
:10268B00F9A3E0FAA3E0FBD3123367403490006D5B
:10269B00E0F8A3E0F9A3E0FAA3E0FB900075E0FCFF
:1026AB00A3E0FDA3E0FEA3E09BFFEE9AFEED99FDF8
:1026BB00EC98FCEF2401FFE43EFEE43DFDE43C809E
:1026CB0036900075E0F8A3E0F9A3E0FAA3E0FB90E5
:1026DB00006DE0FCA3E0FDA3E0FEA3E0C39BFFEED7
:1026EB009AFEED99FDEC98FCEF24FFFFEE34FFFE14
:1026FB00ED34FFFDEC34FFFCE47BE87A03F9F812D0
:10270B00323CC006C007900083E0249CFF900082FF
:10271B00E034FFAB07FAE4F9F8D007D0061232C762
:10272B00E412309790004512337890006DE0FCA3D3
:10273B00E0FDA3E0FEA3E0FF900075E0F8A3E0F955
:10274B00A3E0FAA3E0FBD3123367E4FFFE7D487CE2
:10275B0042900045E0F8A3E0F9A3E0FAA3E0FB40C8
:10276B0034122E78E4FBFA797A7844122F81C00464
:10277B00C005C006C00790006DE0FCA3E0FDA3E020
:10278B00FEA3E0FFE4123097D003D002D001D000BB
:10279B00122D838032122E78E4FBFA797A78441268
:1027AB002F81C004C005C006C00790006DE0FCA3DC
:1027BB00E0FDA3E0FEA3E0FFE4123097D003D002CC
:1027CB00D001D000122D871230D5900053EEF0A31C
:1027DB00EFF0900069E0FCA3E0FDA3E0FEA3E0FFB7
:1027EB00900079E0F8A3E0F9A3E0FAA3E0FBD312A1
:1027FB003367401D900069E0F8A3E0F9A3E0FAA36A
:10280B00E0FB900079E0FCA3E0FDA3E0FEA3E080F9
:10281B001C900079E0F8A3E0F9A3E0FAA3E0FB90A9
:10282B000069E0FCA3E0FDA3E0FEA3E0C39BFFEE89
:10283B009AFEED99FDEC98FCEF24FFFFEE34FFFEC2
:10284B00ED34FFFDEC34FFFCE47BE87A03F9F8127E
:10285B00323CC006C007900085E0249CFF900084AA
:10286B00E034FFAB07FAE4F9F8D007D0061232C711
:10287B00E412309790004D123378900069E0FCA37E
:10288B00E0FDA3E0FEA3E0FF900079E0F8A3E0F900
:10289B00A3E0FAA3E0FBD3123367E4FFFE7D487C91
:1028AB004290004DE0F8A3E0F9A3E0FAA3E0FB406F
:1028BB0034122E78E4FBFA797A7844122F81C00413
:1028CB00C005C006C007900069E0FCA3E0FDA3E0D3
:1028DB00FEA3E0FFE4123097D003D002D001D0006A
:1028EB00122D838032122E78E4FBFA797A78441217
:1028FB002F81C004C005C006C007900069E0FCA38F
:10290B00E0FDA3E0FEA3E0FFE4123097D003D0027A
:10291B00D001D000122D871230D5900057EEF0A3C6
:10292B00EFF0900045E0FCA3E0FDA3E0FEA3E0FF89
:10293B00900041E0F8A3E0F9A3E0FAA3E0FB12302A
:10294B001E60324030E4FFFE7D7A7C44900045E00F
:10295B00F8A3E0F9A3E0FAA3E0FB122D8790004166
:10296B00E0F8A3E0F9A3E0FAA3E0FB12301E600548
:10297B004003022A6B900045E0FCA3E0FDA3E0FEC0
:10298B00A3E0FF900041E0F8A3E0F9A3E0FAA3E095
:10299B00FB12301E502EE4FFFE7D7A7CC490004566
:1029AB00E0F8A3E0F9A3E0FAA3E0FB122D87900077
:1029BB0041E0F8A3E0F9A3E0FAA3E0FB12301E50CC
:1029CB0003022A6B90004DE0FCA3E0FDA3E0FEA305
:1029DB00E0FF900049E0F8A3E0F9A3E0FAA3E0FBE5
:1029EB0012301E602F402DE4FFFE7D7A7C44900058
:1029FB004DE0F8A3E0F9A3E0FAA3E0FB122D8790DA
:102A0B000049E0F8A3E0F9A3E0FAA3E0FB12301EC3
:102A1B006002504C90004DE0FCA3E0FDA3E0FEA350
:102A2B00E0FF900049E0F8A3E0F9A3E0FAA3E0FB94
:102A3B0012301E5045E4FFFE7D7A7CC490004DE0C1
:102A4B00F8A3E0F9A3E0FAA3E0FB122D879000496D
:102A5B00E0F8A3E0F9A3E0FAA3E0FB12301E501A52
:102A6B00E490007DF074FFFFFE125C307D327C0041
:102A7B007F327E001251650222F1900045E0FCA3EB
:102A8B00E0FDA3E0FEA3E0FF900041E0F8A3E0F936
:102A9B00A3E0FAA3E0FB122D87E4FBFAF9784012CE
:102AAB002F811230D590009BEEF0A3EFF090004DEC
:102ABB00E0FCA3E0FDA3E0FEA3E0FF900049E0F8FB
:102ACB00A3E0F9A3E0FAA3E0FB122D87E4FBFAF9EC
:102ADB007840122F811230D590009DEEF0A3EFF0CD
:102AEB00900053E0FEA3E0FF900052E02FFF900018
:102AFB0051E03EC313FEEF13FF90008FEEF0A3EFF8
:102B0B00F0900057E0FEA3E0FF900056E02FFF90FF
:102B1B000055E03EC313FEEF13FF900091EEF0A3C0
:102B2B00EFF074FFFFFE125C30E490007EF0A3F038
:102B3B00900080F0A3741FF0900059E4F0A374325E
:102B4B00F0A3E4F0A37496F090000A74FFF0A37462
:102B5B005EF0A374D6F0A37401F07B107D967C001D
:102B6B007F327E001258E690005AE02428F0900045
:102B7B0059E03400F090009BE0FEA3E0FFE4FCFD85
:102B8B009000A31233789000A77406F0A37410F092
:102B9B0090005BE0FCA3E0FD900059E0FEA3E0FF9A
:102BAB0012527D900059E4F0A37432F090005CE077
:102BBB002414F090005BE03400F0E0FCA3E0FD9007
:102BCB00000A74FFF0A3745EF0A374DAF0A374012F
:102BDB00F07B107F327E001258E690005AE02428DA
:102BEB00F0900059E03400F090009DE0FEA3E0FF70
:102BFB00E4FCFD9000A31233789000A77406F0A3B9
:102C0B007410F090005BE0FCA3E0FD900059E0FE37
:102C1B00A3E0FF12527D900059E4F0A37432F090C0
:102C2B00005CE02414F090005BE03400F0E0FCA3C7
:102C3B00E0FD90000A74FFF0A3745EF0A374DEF065
:102C4B00A37401F07B107F327E001258E690005A7D
:102C5B00E02428F0900059E03400F090008FE0FE63
:102C6B00A3E0FFE4FCFD9000A31233789000A7745F
:102C7B0006F0A37410F090005BE0FCA3E0FD900065
:102C8B0059E0FEA3E0FF12527D900059E4F0A374CB
:102C9B0032F090005CE02414F090005BE03400F024
:102CAB00E0FCA3E0FD90000A74FFF0A3745EF0A3B8
:102CBB0074E3F0A37401F07B107F327E001258E6B0
:102CCB0090005AE02428F0900059E03400F0900076
:102CDB0091E0FEA3E0FFE4FCFD9000A3123378909B
:102CEB0000A77406F0A37410F090005BE0FCA3E067
:102CFB00FD900059E0FEA3E0FF12527D900059E4D5
:102D0B00F0A3741EF090005CE0241EF090005BE0DA
:102D1B003400F0E0FCA3E0FD90000A74FFF0A37414
:102D2B005EF0A374E8F0A37401F07B107F1E7E00AD
:102D3B001258E6900059E4F0A3741EF090005CE08A
:102D4B00241EF090005BE03400F0E0FCA3E0FD906B
:102D5B00000A74FFF0A3745EF0A374F3F0A3740184
:102D6B00F07B107F1E7E001258E6125CB174FFFFE1
:042D7B00FE125C30B8
:012D7F002231
:0A5F950042007E0000420080FFFF82
:0B6080001260AC90008DE0FEA3E0FF7A
:10608B00AD07AC06C292C293ECFF8FA0AF058F8019
:07609B00C291D291D29322C1
:0A60A20012608BE4FF1260ACE4FF13
:1060AC00AD07AC06D292C293ECFF8FA0AF058F80E8
:0760BC00C291D291D29322A0
:10610F00AD07AC06D292C293ECFF8FA0AF058F8084
:07611F00C291D291D293223C
:0E613B00AB05AA0412608BAE02AF030260AC8B
:0B614900900089E0FEA3E0FF02608BE5
:085C30009000C5EEF0A3EFF0B7
:105C3800900083E024FFFB900082E034FFFA90009C
:105C480085E024FFFE900084E034FF90003FF0A33D
:105C5800CEF0E4FDFCFFFE125E03E49000C7F0A363
:105C6800F0900082E0FEA3E0FFC39000C8E09F90A0
:105C780000C7E09E5032E4FBFAD3900085E09B9089
:105C88000084E09A40129000C5E0FEA3E0FF126194
:105C98000F0BBB00010A80E19000C8E004F070C15E
:085CA8009000C7E004F080B990
:015CB00022D1
:105FA000AB07AA068D828C83C006C007AE83AF8282
:105FB00090003FEEF0A3EFF0D007D006125E039002
:0A5FC000007EE0FEA3E0FF02610F87
:1060C300D2B37F327E00125FCAC2B37F327E001228
:0B60D3005FCAD2B37F327E00025FCABA
:104962001260C3D2907FCF7E0012608BE4FF126090
:10497200AC7FC11260AC7F301260AC7FED12608BF5
:104982007F641260AC7F031260AC7F121260AC7F56
:10499200811260AC7FE812608B7F851260AC7F1061
:1049A2001260AC7F7A1260AC7FCB12608B7F3912BF
:1049B20060AC7F2C1260A77F341260AC7F02126061
:1049C200AC7FF712608B7F201260AC7FEA1260A28C
:1049D2007FC012608B7F1B1260AC7FC112608B7F25
:1049E200011260AC7FC512608B7F301260AC7F30E9
:1049F2001260AC7FC712608B7FB71260AC7F361239
:104A0200608B7F481260AC7F3A12608B7F551260D8
:104A1200AC7FB112608BE4FF1260AC7F1A1260AC03
:104A22007FB612608B7F0A1260AC7FA21260AC7FED
:104A3200F212608BE4FF1260AC7F2612608B7F0162
:104A42001260AC7FE012608B7F0F1260AC7F2A1283
:104A520060AC7F281260AC7F081260AC7F0E1260DF
:104A6200AC7F081260AC7F541260AC7FA91260ACBC
:104A72007F431260AC7F0A1260AC7F0F1260AC12EF
:104A820060A51260A57FE112608BE4FF1260AC7F2B
:104A9200151260AC7F171260AC7F071260AC7F11F9
:104AA2001260AC7F061260AC7F2B1260AC7F561294
:104AB20060AC7F3C1260AC7F051260AC7F1012606C
:104AC200AC7F0F1260AC7F3F1260AC7F3F1260ACD4
:104AD2007F0F1260AC7F2B1260A27F011260AC7F4D
:104AE2003F1260AC7F2A1260A2E4FF1260AC7FEF3B
:104AF2001260AC7F1112608B7F78125FCA7F297EB1
:0A4B02000012608B125E9DD2B222F9
:105E0300900039EEF0A3EFF0A3ECF0A3EDF09000D7
:105E13008B126086900039E0FF7E001260ACA3E035
